{
  "contractName": "ChainConfig",
  "abi": [
    {
      "inputs": [
        {
          "internalType": "bytes",
          "name": "constructorParams",
          "type": "bytes"
        }
      ],
      "stateMutability": "nonpayable",
      "type": "constructor"
    },
    {
      "anonymous": false,
      "inputs": [
        {
          "indexed": false,
          "internalType": "uint32",
          "name": "prevValue",
          "type": "uint32"
        },
        {
          "indexed": false,
          "internalType": "uint32",
          "name": "newValue",
          "type": "uint32"
        }
      ],
      "name": "ActiveValidatorsLengthChanged",
      "type": "event"
    },
    {
      "anonymous": false,
      "inputs": [
        {
          "indexed": false,
          "internalType": "uint32",
          "name": "prevValue",
          "type": "uint32"
        },
        {
          "indexed": false,
          "internalType": "uint32",
          "name": "newValue",
          "type": "uint32"
        }
      ],
      "name": "EpochBlockIntervalChanged",
      "type": "event"
    },
    {
      "anonymous": false,
      "inputs": [
        {
          "indexed": false,
          "internalType": "uint32",
          "name": "prevValue",
          "type": "uint32"
        },
        {
          "indexed": false,
          "internalType": "uint32",
          "name": "newValue",
          "type": "uint32"
        }
      ],
      "name": "FelonyThresholdChanged",
      "type": "event"
    },
    {
      "anonymous": false,
      "inputs": [
        {
          "indexed": false,
          "internalType": "uint256",
          "name": "prevValue",
          "type": "uint256"
        },
        {
          "indexed": false,
          "internalType": "uint256",
          "name": "newValue",
          "type": "uint256"
        }
      ],
      "name": "MinStakingAmountChanged",
      "type": "event"
    },
    {
      "anonymous": false,
      "inputs": [
        {
          "indexed": false,
          "internalType": "uint256",
          "name": "prevValue",
          "type": "uint256"
        },
        {
          "indexed": false,
          "internalType": "uint256",
          "name": "newValue",
          "type": "uint256"
        }
      ],
      "name": "MinValidatorStakeAmountChanged",
      "type": "event"
    },
    {
      "anonymous": false,
      "inputs": [
        {
          "indexed": false,
          "internalType": "uint32",
          "name": "prevValue",
          "type": "uint32"
        },
        {
          "indexed": false,
          "internalType": "uint32",
          "name": "newValue",
          "type": "uint32"
        }
      ],
      "name": "MisdemeanorThresholdChanged",
      "type": "event"
    },
    {
      "anonymous": false,
      "inputs": [
        {
          "indexed": false,
          "internalType": "uint32",
          "name": "prevValue",
          "type": "uint32"
        },
        {
          "indexed": false,
          "internalType": "uint32",
          "name": "newValue",
          "type": "uint32"
        }
      ],
      "name": "UndelegatePeriodChanged",
      "type": "event"
    },
    {
      "anonymous": false,
      "inputs": [
        {
          "indexed": false,
          "internalType": "uint32",
          "name": "prevValue",
          "type": "uint32"
        },
        {
          "indexed": false,
          "internalType": "uint32",
          "name": "newValue",
          "type": "uint32"
        }
      ],
      "name": "ValidatorJailEpochLengthChanged",
      "type": "event"
    },
    {
      "inputs": [],
      "name": "getChainConfig",
      "outputs": [
        {
          "internalType": "contract IChainConfig",
          "name": "",
          "type": "address"
        }
      ],
      "stateMutability": "view",
      "type": "function"
    },
    {
      "inputs": [],
      "name": "getGovernance",
      "outputs": [
        {
          "internalType": "contract IGovernance",
          "name": "",
          "type": "address"
        }
      ],
      "stateMutability": "view",
      "type": "function"
    },
    {
      "inputs": [],
      "name": "getSlashingIndicator",
      "outputs": [
        {
          "internalType": "contract ISlashingIndicator",
          "name": "",
          "type": "address"
        }
      ],
      "stateMutability": "view",
      "type": "function"
    },
    {
      "inputs": [],
      "name": "getStaking",
      "outputs": [
        {
          "internalType": "contract IStaking",
          "name": "",
          "type": "address"
        }
      ],
      "stateMutability": "view",
      "type": "function"
    },
    {
      "inputs": [],
      "name": "getStakingPool",
      "outputs": [
        {
          "internalType": "contract IStakingPool",
          "name": "",
          "type": "address"
        }
      ],
      "stateMutability": "view",
      "type": "function"
    },
    {
      "inputs": [],
      "name": "getSystemReward",
      "outputs": [
        {
          "internalType": "contract ISystemReward",
          "name": "",
          "type": "address"
        }
      ],
      "stateMutability": "view",
      "type": "function"
    },
    {
      "inputs": [],
      "name": "init",
      "outputs": [],
      "stateMutability": "nonpayable",
      "type": "function"
    },
    {
      "inputs": [
        {
          "internalType": "contract IStaking",
          "name": "stakingContract",
          "type": "address"
        },
        {
          "internalType": "contract ISlashingIndicator",
          "name": "slashingIndicatorContract",
          "type": "address"
        },
        {
          "internalType": "contract ISystemReward",
          "name": "systemRewardContract",
          "type": "address"
        },
        {
          "internalType": "contract IStakingPool",
          "name": "stakingPoolContract",
          "type": "address"
        },
        {
          "internalType": "contract IGovernance",
          "name": "governanceContract",
          "type": "address"
        },
        {
          "internalType": "contract IChainConfig",
          "name": "chainConfigContract",
          "type": "address"
        },
        {
          "internalType": "contract IRuntimeUpgrade",
          "name": "runtimeUpgradeContract",
          "type": "address"
        },
        {
          "internalType": "contract IDeployerProxy",
          "name": "deployerProxyContract",
          "type": "address"
        }
      ],
      "name": "initManually",
      "outputs": [],
      "stateMutability": "nonpayable",
      "type": "function"
    },
    {
      "inputs": [],
      "name": "isInitialized",
      "outputs": [
        {
          "internalType": "bool",
          "name": "",
          "type": "bool"
        }
      ],
      "stateMutability": "view",
      "type": "function"
    },
    {
      "inputs": [
        {
          "internalType": "uint32",
          "name": "activeValidatorsLength",
          "type": "uint32"
        },
        {
          "internalType": "uint32",
          "name": "epochBlockInterval",
          "type": "uint32"
        },
        {
          "internalType": "uint32",
          "name": "misdemeanorThreshold",
          "type": "uint32"
        },
        {
          "internalType": "uint32",
          "name": "felonyThreshold",
          "type": "uint32"
        },
        {
          "internalType": "uint32",
          "name": "validatorJailEpochLength",
          "type": "uint32"
        },
        {
          "internalType": "uint32",
          "name": "undelegatePeriod",
          "type": "uint32"
        },
        {
          "internalType": "uint256",
          "name": "minValidatorStakeAmount",
          "type": "uint256"
        },
        {
          "internalType": "uint256",
          "name": "minStakingAmount",
          "type": "uint256"
        }
      ],
      "name": "ctor",
      "outputs": [],
      "stateMutability": "nonpayable",
      "type": "function"
    },
    {
      "inputs": [],
      "name": "getActiveValidatorsLength",
      "outputs": [
        {
          "internalType": "uint32",
          "name": "",
          "type": "uint32"
        }
      ],
      "stateMutability": "view",
      "type": "function"
    },
    {
      "inputs": [
        {
          "internalType": "uint32",
          "name": "newValue",
          "type": "uint32"
        }
      ],
      "name": "setActiveValidatorsLength",
      "outputs": [],
      "stateMutability": "nonpayable",
      "type": "function"
    },
    {
      "inputs": [],
      "name": "getEpochBlockInterval",
      "outputs": [
        {
          "internalType": "uint32",
          "name": "",
          "type": "uint32"
        }
      ],
      "stateMutability": "view",
      "type": "function"
    },
    {
      "inputs": [
        {
          "internalType": "uint32",
          "name": "newValue",
          "type": "uint32"
        }
      ],
      "name": "setEpochBlockInterval",
      "outputs": [],
      "stateMutability": "nonpayable",
      "type": "function"
    },
    {
      "inputs": [],
      "name": "getMisdemeanorThreshold",
      "outputs": [
        {
          "internalType": "uint32",
          "name": "",
          "type": "uint32"
        }
      ],
      "stateMutability": "view",
      "type": "function"
    },
    {
      "inputs": [
        {
          "internalType": "uint32",
          "name": "newValue",
          "type": "uint32"
        }
      ],
      "name": "setMisdemeanorThreshold",
      "outputs": [],
      "stateMutability": "nonpayable",
      "type": "function"
    },
    {
      "inputs": [],
      "name": "getFelonyThreshold",
      "outputs": [
        {
          "internalType": "uint32",
          "name": "",
          "type": "uint32"
        }
      ],
      "stateMutability": "view",
      "type": "function"
    },
    {
      "inputs": [
        {
          "internalType": "uint32",
          "name": "newValue",
          "type": "uint32"
        }
      ],
      "name": "setFelonyThreshold",
      "outputs": [],
      "stateMutability": "nonpayable",
      "type": "function"
    },
    {
      "inputs": [],
      "name": "getValidatorJailEpochLength",
      "outputs": [
        {
          "internalType": "uint32",
          "name": "",
          "type": "uint32"
        }
      ],
      "stateMutability": "view",
      "type": "function"
    },
    {
      "inputs": [
        {
          "internalType": "uint32",
          "name": "newValue",
          "type": "uint32"
        }
      ],
      "name": "setValidatorJailEpochLength",
      "outputs": [],
      "stateMutability": "nonpayable",
      "type": "function"
    },
    {
      "inputs": [],
      "name": "getUndelegatePeriod",
      "outputs": [
        {
          "internalType": "uint32",
          "name": "",
          "type": "uint32"
        }
      ],
      "stateMutability": "view",
      "type": "function"
    },
    {
      "inputs": [
        {
          "internalType": "uint32",
          "name": "newValue",
          "type": "uint32"
        }
      ],
      "name": "setUndelegatePeriod",
      "outputs": [],
      "stateMutability": "nonpayable",
      "type": "function"
    },
    {
      "inputs": [],
      "name": "getMinValidatorStakeAmount",
      "outputs": [
        {
          "internalType": "uint256",
          "name": "",
          "type": "uint256"
        }
      ],
      "stateMutability": "view",
      "type": "function"
    },
    {
      "inputs": [
        {
          "internalType": "uint256",
          "name": "newValue",
          "type": "uint256"
        }
      ],
      "name": "setMinValidatorStakeAmount",
      "outputs": [],
      "stateMutability": "nonpayable",
      "type": "function"
    },
    {
      "inputs": [],
      "name": "getMinStakingAmount",
      "outputs": [
        {
          "internalType": "uint256",
          "name": "",
          "type": "uint256"
        }
      ],
      "stateMutability": "view",
      "type": "function"
    },
    {
      "inputs": [
        {
          "internalType": "uint256",
          "name": "newValue",
          "type": "uint256"
        }
      ],
      "name": "setMinStakingAmount",
      "outputs": [],
      "stateMutability": "nonpayable",
      "type": "function"
    }
  ],
  "bytecode": "0x60806040523480156200001157600080fd5b506040516200124038038062001240833981016040819052620000349162000110565b805181906200004b90600190602084019062000054565b50505062000229565b8280546200006290620001ec565b90600052602060002090601f016020900481019282620000865760008555620000d1565b82601f10620000a157805160ff1916838001178555620000d1565b82800160010185558215620000d1579182015b82811115620000d1578251825591602001919060010190620000b4565b50620000df929150620000e3565b5090565b5b80821115620000df5760008155600101620000e4565b634e487b7160e01b600052604160045260246000fd5b600060208083850312156200012457600080fd5b82516001600160401b03808211156200013c57600080fd5b818501915085601f8301126200015157600080fd5b815181811115620001665762000166620000fa565b604051601f8201601f19908116603f01168101908382118183101715620001915762000191620000fa565b816040528281528886848701011115620001aa57600080fd5b600093505b82841015620001ce5784840186015181850187015292850192620001af565b82841115620001e05760008684830101525b98975050505050505050565b600181811c908216806200020157607f821691505b602082108114156200022357634e487b7160e01b600052602260045260246000fd5b50919050565b61100780620002396000396000f3fe608060405234801561001057600080fd5b506004361061018e5760003560e01c80636f856847116100de578063c227a41211610097578063e1a2e86311610071578063e1a2e8631461035d578063e1c7392a14610370578063eea9a01b14610378578063fcd6cb3e1461038057600080fd5b8063c227a41214610324578063c8652bd514610337578063d98e3ebf1461034a57600080fd5b80636f856847146102b35780637a37cc59146102c55780637b1391a6146102d65780639dbf97db146102e7578063af70fa2c146102fc578063be1997381461030f57600080fd5b806341d8a0801161014b5780635e7b72ad116101255780635e7b72ad14610265578063606c0c941461027a578063612d669e1461028b5780636cbe6cd81461029e57600080fd5b806341d8a0801461022e57806345946334146102415780634b635ac51461025257600080fd5b8063244d825714610193578063289b3c0d146101bd57806332cc6f08146101ce578063346c90a8146101ed578063392e53cd146102035780633e1bbdc914610219575b600080fd5b6003546001600160a01b03165b6040516001600160a01b0390911681526020015b60405180910390f35b6006546001600160a01b03166101a0565b60645463ffffffff165b60405163ffffffff90911681526020016101b4565b606454640100000000900463ffffffff166101d8565b60005460ff1660405190151581526020016101b4565b61022c610227366004610cf7565b610393565b005b61022c61023c366004610db9565b610458565b6005546001600160a01b03166101a0565b61022c610260366004610ddb565b6104ec565b606454600160a01b900463ffffffff166101d8565b6007546001600160a01b03166101a0565b61022c610299366004610e64565b6107c7565b606454600160801b900463ffffffff166101d8565b6065545b6040519081526020016101b4565b6004546001600160a01b03166101a0565b6002546001600160a01b03166101a0565b606454600160401b900463ffffffff166101d8565b61022c61030a366004610db9565b61082f565b606454600160601b900463ffffffff166101d8565b61022c610332366004610db9565b6108bd565b61022c610345366004610db9565b61093b565b61022c610358366004610db9565b6109c7565b61022c61036b366004610e64565b610a53565b61022c610abb565b6066546102b7565b61022c61038e366004610db9565b610b61565b60005460ff16156103bf5760405162461bcd60e51b81526004016103b690610e7d565b60405180910390fd5b600280546001600160a01b03199081166001600160a01b038b8116919091179092556003805482168a841617905560048054821689841617905560058054821688841617905560068054821687841617905560078054821686841617905560088054821685841617905560098054909116918316919091179055610441610bed565b50506000805460ff19166001179055505050505050565b6006546001600160a01b031633146104825760405162461bcd60e51b81526004016103b690610eb4565b6064805463ffffffff838116600160a01b81810263ffffffff60a01b1985161790945560408051949093049091168084526020840191909152917fb191e5acbef9e4b8ce0f17af112f8984f92833324657b89fe39768885f81b6ce91015b60405180910390a15050565b60005460ff161561050f5760405162461bcd60e51b81526004016103b690610e7d565b6064805463ffffffff191663ffffffff8a16908117909155604080516000815260208101929092527f1c4cfc6dcf4219ed649285020aedf5d064480d1acdf4b8c75b397abd5910f40c910160405180910390a16064805467ffffffff00000000191664010000000063ffffffff8a1690810291909117909155604080516000815260208101929092527f33c8012b0f51f8c1a1e525ea046da837d0eb4fa7473cd863e0bfb73a4f475a5a910160405180910390a16064805463ffffffff60401b1916600160401b63ffffffff891690810291909117909155604080516000815260208101929092527f5aa72ebd12c45515403eef36583106e321b8707946a6ae621f5f393ee0c9677b910160405180910390a16064805463ffffffff60601b1916600160601b63ffffffff881690810291909117909155604080516000815260208101929092527f67da1e9c07e7b373ed5e18cc8355caf6dfe18ab4472ec575600a2172772c6204910160405180910390a16064805463ffffffff60801b1916600160801b63ffffffff871690810291909117909155604080516000815260208101929092527f0a677ce4509bf46fe9bdf65c86abe71921755a78494111b1caa25df328ffcd1c910160405180910390a16064805463ffffffff60a01b1916600160a01b63ffffffff861690810291909117909155604080516000815260208101929092527fb191e5acbef9e4b8ce0f17af112f8984f92833324657b89fe39768885f81b6ce910160405180910390a160658290556040805160008152602081018490527f207082661d623a88e041ad2d52c2d4ddc719880c70c3ab44aa81accff9bd86ed910160405180910390a160668190556040805160008152602081018390527f973f438cb6bc47d284033b6113687c6087f4fb7a3395b03597578ae1259bf23c910160405180910390a15050505050505050565b6006546001600160a01b031633146107f15760405162461bcd60e51b81526004016103b690610eb4565b606680549082905560408051828152602081018490527f973f438cb6bc47d284033b6113687c6087f4fb7a3395b03597578ae1259bf23c91016104e0565b6006546001600160a01b031633146108595760405162461bcd60e51b81526004016103b690610eb4565b6064805463ffffffff83811664010000000081810267ffffffff000000001985161790945560408051949093049091168084526020840191909152917f33c8012b0f51f8c1a1e525ea046da837d0eb4fa7473cd863e0bfb73a4f475a5a91016104e0565b6006546001600160a01b031633146108e75760405162461bcd60e51b81526004016103b690610eb4565b6064805463ffffffff83811663ffffffff1983168117909355604080519190921680825260208201939093527f1c4cfc6dcf4219ed649285020aedf5d064480d1acdf4b8c75b397abd5910f40c91016104e0565b6006546001600160a01b031633146109655760405162461bcd60e51b81526004016103b690610eb4565b6064805463ffffffff838116600160801b81810263ffffffff60801b1985161790945560408051949093049091168084526020840191909152917f0a677ce4509bf46fe9bdf65c86abe71921755a78494111b1caa25df328ffcd1c91016104e0565b6006546001600160a01b031633146109f15760405162461bcd60e51b81526004016103b690610eb4565b6064805463ffffffff838116600160401b81810263ffffffff60401b1985161790945560408051949093049091168084526020840191909152917f5aa72ebd12c45515403eef36583106e321b8707946a6ae621f5f393ee0c9677b91016104e0565b6006546001600160a01b03163314610a7d5760405162461bcd60e51b81526004016103b690610eb4565b606580549082905560408051828152602081018490527f207082661d623a88e041ad2d52c2d4ddc719880c70c3ab44aa81accff9bd86ed91016104e0565b60005460ff1615610ade5760405162461bcd60e51b81526004016103b690610e7d565b600280546001600160a01b03199081166110001790915560038054821661100117905560048054821661100217905560058054821661700117905560068054821661700217905560078054821661700317905560088054821661700417905560098054909116617005179055610b52610bed565b6000805460ff19166001179055565b6006546001600160a01b03163314610b8b5760405162461bcd60e51b81526004016103b690610eb4565b6064805463ffffffff838116600160601b81810263ffffffff60601b1985161790945560408051949093049091168084526020840191909152917f67da1e9c07e7b373ed5e18cc8355caf6dfe18ab4472ec575600a2172772c620491016104e0565b60018054610bfa90610efa565b15159050610c0457565b600080306001600160a01b03166001604051610c209190610f35565b6000604051808303816000865af19150503d8060008114610c5d576040519150601f19603f3d011682016040523d82523d6000602084013e610c62565b606091505b50915091508115610c71575050565b8051610cd65760405162461bcd60e51b815260206004820152602e60248201527f496e6a6563746f723a20636f6e737472756374696f6e206661696c656420772f60448201526d103ab735b737bbb71032b93937b960911b60648201526084016103b6565b80518082602001fd5b6001600160a01b0381168114610cf457600080fd5b50565b600080600080600080600080610100898b031215610d1457600080fd5b8835610d1f81610cdf565b97506020890135610d2f81610cdf565b96506040890135610d3f81610cdf565b95506060890135610d4f81610cdf565b94506080890135610d5f81610cdf565b935060a0890135610d6f81610cdf565b925060c0890135610d7f81610cdf565b915060e0890135610d8f81610cdf565b809150509295985092959890939650565b803563ffffffff81168114610db457600080fd5b919050565b600060208284031215610dcb57600080fd5b610dd482610da0565b9392505050565b600080600080600080600080610100898b031215610df857600080fd5b610e0189610da0565b9750610e0f60208a01610da0565b9650610e1d60408a01610da0565b9550610e2b60608a01610da0565b9450610e3960808a01610da0565b9350610e4760a08a01610da0565b925060c0890135915060e089013590509295985092959890939650565b600060208284031215610e7657600080fd5b5035919050565b6020808252601d908201527f496e6a6563746f723a20616c726561647920696e697469616c697a6564000000604082015260600190565b60208082526026908201527f496e6a6563746f72436f6e74657874486f6c6465723a206f6e6c7920676f7665604082015265726e616e636560d01b606082015260800190565b600181811c90821680610f0e57607f821691505b60208210811415610f2f57634e487b7160e01b600052602260045260246000fd5b50919050565b600080835481600182811c915080831680610f5157607f831692505b6020808410821415610f7157634e487b7160e01b86526022600452602486fd5b818015610f855760018114610f9657610fc3565b60ff19861689528489019650610fc3565b60008a81526020902060005b86811015610fbb5781548b820152908501908301610fa2565b505084890196505b50949897505050505050505056fea2646970667358221220d720f1d64e45c1bd07530a528af0ab782d5cc846d945ad85e80b8161be5fbedf64736f6c634300080b0033",
  "immutableReferences": {},
  "source": "// SPDX-License-Identifier: GPL-3.0-only\r\npragma solidity ^0.8.0;\r\n\r\nimport \"./Injector.sol\";\r\n\r\ncontract ChainConfig is InjectorContextHolder, IChainConfig {\r\n\r\n    event ActiveValidatorsLengthChanged(uint32 prevValue, uint32 newValue);\r\n    event EpochBlockIntervalChanged(uint32 prevValue, uint32 newValue);\r\n    event MisdemeanorThresholdChanged(uint32 prevValue, uint32 newValue);\r\n    event FelonyThresholdChanged(uint32 prevValue, uint32 newValue);\r\n    event ValidatorJailEpochLengthChanged(uint32 prevValue, uint32 newValue);\r\n    event UndelegatePeriodChanged(uint32 prevValue, uint32 newValue);\r\n    event MinValidatorStakeAmountChanged(uint256 prevValue, uint256 newValue);\r\n    event MinStakingAmountChanged(uint256 prevValue, uint256 newValue);\r\n\r\n    struct ConsensusParams {\r\n        uint32 activeValidatorsLength;\r\n        uint32 epochBlockInterval;\r\n        uint32 misdemeanorThreshold;\r\n        uint32 felonyThreshold;\r\n        uint32 validatorJailEpochLength;\r\n        uint32 undelegatePeriod;\r\n        uint256 minValidatorStakeAmount;\r\n        uint256 minStakingAmount;\r\n    }\r\n\r\n    ConsensusParams private _consensusParams;\r\n\r\n    constructor(bytes memory constructorParams) InjectorContextHolder(constructorParams) {\r\n    }\r\n\r\n    function ctor(\r\n        uint32 activeValidatorsLength,\r\n        uint32 epochBlockInterval,\r\n        uint32 misdemeanorThreshold,\r\n        uint32 felonyThreshold,\r\n        uint32 validatorJailEpochLength,\r\n        uint32 undelegatePeriod,\r\n        uint256 minValidatorStakeAmount,\r\n        uint256 minStakingAmount\r\n    ) external whenNotInitialized {\r\n        _consensusParams.activeValidatorsLength = activeValidatorsLength;\r\n        emit ActiveValidatorsLengthChanged(0, activeValidatorsLength);\r\n        _consensusParams.epochBlockInterval = epochBlockInterval;\r\n        emit EpochBlockIntervalChanged(0, epochBlockInterval);\r\n        _consensusParams.misdemeanorThreshold = misdemeanorThreshold;\r\n        emit MisdemeanorThresholdChanged(0, misdemeanorThreshold);\r\n        _consensusParams.felonyThreshold = felonyThreshold;\r\n        emit FelonyThresholdChanged(0, felonyThreshold);\r\n        _consensusParams.validatorJailEpochLength = validatorJailEpochLength;\r\n        emit ValidatorJailEpochLengthChanged(0, validatorJailEpochLength);\r\n        _consensusParams.undelegatePeriod = undelegatePeriod;\r\n        emit UndelegatePeriodChanged(0, undelegatePeriod);\r\n        _consensusParams.minValidatorStakeAmount = minValidatorStakeAmount;\r\n        emit MinValidatorStakeAmountChanged(0, minValidatorStakeAmount);\r\n        _consensusParams.minStakingAmount = minStakingAmount;\r\n        emit MinStakingAmountChanged(0, minStakingAmount);\r\n    }\r\n\r\n    function getActiveValidatorsLength() external view override returns (uint32) {\r\n        return _consensusParams.activeValidatorsLength;\r\n    }\r\n\r\n    function setActiveValidatorsLength(uint32 newValue) external override onlyFromGovernance {\r\n        uint32 prevValue = _consensusParams.activeValidatorsLength;\r\n        _consensusParams.activeValidatorsLength = newValue;\r\n        emit ActiveValidatorsLengthChanged(prevValue, newValue);\r\n    }\r\n\r\n    function getEpochBlockInterval() external view override returns (uint32) {\r\n        return _consensusParams.epochBlockInterval;\r\n    }\r\n\r\n    function setEpochBlockInterval(uint32 newValue) external override onlyFromGovernance {\r\n        uint32 prevValue = _consensusParams.epochBlockInterval;\r\n        _consensusParams.epochBlockInterval = newValue;\r\n        emit EpochBlockIntervalChanged(prevValue, newValue);\r\n    }\r\n\r\n    function getMisdemeanorThreshold() external view override returns (uint32) {\r\n        return _consensusParams.misdemeanorThreshold;\r\n    }\r\n\r\n    function setMisdemeanorThreshold(uint32 newValue) external override onlyFromGovernance {\r\n        uint32 prevValue = _consensusParams.misdemeanorThreshold;\r\n        _consensusParams.misdemeanorThreshold = newValue;\r\n        emit MisdemeanorThresholdChanged(prevValue, newValue);\r\n    }\r\n\r\n    function getFelonyThreshold() external view override returns (uint32) {\r\n        return _consensusParams.felonyThreshold;\r\n    }\r\n\r\n    function setFelonyThreshold(uint32 newValue) external override onlyFromGovernance {\r\n        uint32 prevValue = _consensusParams.felonyThreshold;\r\n        _consensusParams.felonyThreshold = newValue;\r\n        emit FelonyThresholdChanged(prevValue, newValue);\r\n    }\r\n\r\n    function getValidatorJailEpochLength() external view override returns (uint32) {\r\n        return _consensusParams.validatorJailEpochLength;\r\n    }\r\n\r\n    function setValidatorJailEpochLength(uint32 newValue) external override onlyFromGovernance {\r\n        uint32 prevValue = _consensusParams.validatorJailEpochLength;\r\n        _consensusParams.validatorJailEpochLength = newValue;\r\n        emit ValidatorJailEpochLengthChanged(prevValue, newValue);\r\n    }\r\n\r\n    function getUndelegatePeriod() external view override returns (uint32) {\r\n        return _consensusParams.undelegatePeriod;\r\n    }\r\n\r\n    function setUndelegatePeriod(uint32 newValue) external override onlyFromGovernance {\r\n        uint32 prevValue = _consensusParams.undelegatePeriod;\r\n        _consensusParams.undelegatePeriod = newValue;\r\n        emit UndelegatePeriodChanged(prevValue, newValue);\r\n    }\r\n\r\n    function getMinValidatorStakeAmount() external view returns (uint256) {\r\n        return _consensusParams.minValidatorStakeAmount;\r\n    }\r\n\r\n    function setMinValidatorStakeAmount(uint256 newValue) external override onlyFromGovernance {\r\n        uint256 prevValue = _consensusParams.minValidatorStakeAmount;\r\n        _consensusParams.minValidatorStakeAmount = newValue;\r\n        emit MinValidatorStakeAmountChanged(prevValue, newValue);\r\n    }\r\n\r\n    function getMinStakingAmount() external view returns (uint256) {\r\n        return _consensusParams.minStakingAmount;\r\n    }\r\n\r\n    function setMinStakingAmount(uint256 newValue) external override onlyFromGovernance {\r\n        uint256 prevValue = _consensusParams.minStakingAmount;\r\n        _consensusParams.minStakingAmount = newValue;\r\n        emit MinStakingAmountChanged(prevValue, newValue);\r\n    }\r\n}",
  "sourcePath": "D:\\code\\rust\\bas-genesis-config\\contracts\\ChainConfig.sol",
  "compiler": {
    "name": "solc",
    "version": "0.8.11+commit.d7f03943.Emscripten.clang"
  },
  "schemaVersion": "3.4.4",
  "updatedAt": "2022-04-21T10:08:23.683Z",
  "devdoc": {
    "kind": "dev",
    "methods": {},
    "version": 1
  },
  "userdoc": {
    "kind": "user",
    "methods": {},
    "version": 1
  }
}