{
  "contractName": "DeployerProxy",
  "abi": [
    {
      "inputs": [
        {
          "internalType": "bytes",
          "name": "ctor",
          "type": "bytes"
        }
      ],
      "stateMutability": "nonpayable",
      "type": "constructor"
    },
    {
      "anonymous": false,
      "inputs": [
        {
          "indexed": true,
          "internalType": "address",
          "name": "account",
          "type": "address"
        },
        {
          "indexed": false,
          "internalType": "address",
          "name": "impl",
          "type": "address"
        }
      ],
      "name": "ContractDeployed",
      "type": "event"
    },
    {
      "anonymous": false,
      "inputs": [
        {
          "indexed": true,
          "internalType": "address",
          "name": "contractAddress",
          "type": "address"
        }
      ],
      "name": "ContractDisabled",
      "type": "event"
    },
    {
      "anonymous": false,
      "inputs": [
        {
          "indexed": true,
          "internalType": "address",
          "name": "contractAddress",
          "type": "address"
        }
      ],
      "name": "ContractEnabled",
      "type": "event"
    },
    {
      "anonymous": false,
      "inputs": [
        {
          "indexed": true,
          "internalType": "address",
          "name": "account",
          "type": "address"
        }
      ],
      "name": "DeployerAdded",
      "type": "event"
    },
    {
      "anonymous": false,
      "inputs": [
        {
          "indexed": true,
          "internalType": "address",
          "name": "account",
          "type": "address"
        }
      ],
      "name": "DeployerBanned",
      "type": "event"
    },
    {
      "anonymous": false,
      "inputs": [
        {
          "indexed": true,
          "internalType": "address",
          "name": "account",
          "type": "address"
        }
      ],
      "name": "DeployerRemoved",
      "type": "event"
    },
    {
      "anonymous": false,
      "inputs": [
        {
          "indexed": true,
          "internalType": "address",
          "name": "account",
          "type": "address"
        }
      ],
      "name": "DeployerUnbanned",
      "type": "event"
    },
    {
      "inputs": [],
      "name": "getChainConfig",
      "outputs": [
        {
          "internalType": "contract IChainConfig",
          "name": "",
          "type": "address"
        }
      ],
      "stateMutability": "view",
      "type": "function"
    },
    {
      "inputs": [],
      "name": "getGovernance",
      "outputs": [
        {
          "internalType": "contract IGovernance",
          "name": "",
          "type": "address"
        }
      ],
      "stateMutability": "view",
      "type": "function"
    },
    {
      "inputs": [],
      "name": "getSlashingIndicator",
      "outputs": [
        {
          "internalType": "contract ISlashingIndicator",
          "name": "",
          "type": "address"
        }
      ],
      "stateMutability": "view",
      "type": "function"
    },
    {
      "inputs": [],
      "name": "getStaking",
      "outputs": [
        {
          "internalType": "contract IStaking",
          "name": "",
          "type": "address"
        }
      ],
      "stateMutability": "view",
      "type": "function"
    },
    {
      "inputs": [],
      "name": "getStakingPool",
      "outputs": [
        {
          "internalType": "contract IStakingPool",
          "name": "",
          "type": "address"
        }
      ],
      "stateMutability": "view",
      "type": "function"
    },
    {
      "inputs": [],
      "name": "getSystemReward",
      "outputs": [
        {
          "internalType": "contract ISystemReward",
          "name": "",
          "type": "address"
        }
      ],
      "stateMutability": "view",
      "type": "function"
    },
    {
      "inputs": [],
      "name": "init",
      "outputs": [],
      "stateMutability": "nonpayable",
      "type": "function"
    },
    {
      "inputs": [
        {
          "internalType": "contract IStaking",
          "name": "stakingContract",
          "type": "address"
        },
        {
          "internalType": "contract ISlashingIndicator",
          "name": "slashingIndicatorContract",
          "type": "address"
        },
        {
          "internalType": "contract ISystemReward",
          "name": "systemRewardContract",
          "type": "address"
        },
        {
          "internalType": "contract IStakingPool",
          "name": "stakingPoolContract",
          "type": "address"
        },
        {
          "internalType": "contract IGovernance",
          "name": "governanceContract",
          "type": "address"
        },
        {
          "internalType": "contract IChainConfig",
          "name": "chainConfigContract",
          "type": "address"
        },
        {
          "internalType": "contract IRuntimeUpgrade",
          "name": "runtimeUpgradeContract",
          "type": "address"
        },
        {
          "internalType": "contract IDeployerProxy",
          "name": "deployerProxyContract",
          "type": "address"
        }
      ],
      "name": "initManually",
      "outputs": [],
      "stateMutability": "nonpayable",
      "type": "function"
    },
    {
      "inputs": [],
      "name": "isInitialized",
      "outputs": [
        {
          "internalType": "bool",
          "name": "",
          "type": "bool"
        }
      ],
      "stateMutability": "view",
      "type": "function"
    },
    {
      "inputs": [
        {
          "internalType": "address[]",
          "name": "deployers",
          "type": "address[]"
        }
      ],
      "name": "ctor",
      "outputs": [],
      "stateMutability": "nonpayable",
      "type": "function"
    },
    {
      "inputs": [
        {
          "internalType": "address",
          "name": "account",
          "type": "address"
        }
      ],
      "name": "isDeployer",
      "outputs": [
        {
          "internalType": "bool",
          "name": "",
          "type": "bool"
        }
      ],
      "stateMutability": "view",
      "type": "function"
    },
    {
      "inputs": [
        {
          "internalType": "address",
          "name": "account",
          "type": "address"
        }
      ],
      "name": "isBanned",
      "outputs": [
        {
          "internalType": "bool",
          "name": "",
          "type": "bool"
        }
      ],
      "stateMutability": "view",
      "type": "function"
    },
    {
      "inputs": [
        {
          "internalType": "address",
          "name": "account",
          "type": "address"
        }
      ],
      "name": "addDeployer",
      "outputs": [],
      "stateMutability": "nonpayable",
      "type": "function"
    },
    {
      "inputs": [
        {
          "internalType": "address",
          "name": "account",
          "type": "address"
        }
      ],
      "name": "removeDeployer",
      "outputs": [],
      "stateMutability": "nonpayable",
      "type": "function"
    },
    {
      "inputs": [
        {
          "internalType": "address",
          "name": "account",
          "type": "address"
        }
      ],
      "name": "banDeployer",
      "outputs": [],
      "stateMutability": "nonpayable",
      "type": "function"
    },
    {
      "inputs": [
        {
          "internalType": "address",
          "name": "account",
          "type": "address"
        }
      ],
      "name": "unbanDeployer",
      "outputs": [],
      "stateMutability": "nonpayable",
      "type": "function"
    },
    {
      "inputs": [
        {
          "internalType": "address",
          "name": "contractAddress",
          "type": "address"
        }
      ],
      "name": "getContractState",
      "outputs": [
        {
          "internalType": "uint8",
          "name": "state",
          "type": "uint8"
        },
        {
          "internalType": "address",
          "name": "impl",
          "type": "address"
        },
        {
          "internalType": "address",
          "name": "deployer",
          "type": "address"
        }
      ],
      "stateMutability": "view",
      "type": "function"
    },
    {
      "inputs": [
        {
          "internalType": "address",
          "name": "deployer",
          "type": "address"
        },
        {
          "internalType": "address",
          "name": "impl",
          "type": "address"
        }
      ],
      "name": "registerDeployedContract",
      "outputs": [],
      "stateMutability": "nonpayable",
      "type": "function"
    },
    {
      "inputs": [
        {
          "internalType": "address",
          "name": "impl",
          "type": "address"
        }
      ],
      "name": "checkContractActive",
      "outputs": [],
      "stateMutability": "view",
      "type": "function"
    },
    {
      "inputs": [
        {
          "internalType": "address",
          "name": "impl",
          "type": "address"
        }
      ],
      "name": "disableContract",
      "outputs": [],
      "stateMutability": "nonpayable",
      "type": "function"
    },
    {
      "inputs": [
        {
          "internalType": "address",
          "name": "impl",
          "type": "address"
        }
      ],
      "name": "enableContract",
      "outputs": [],
      "stateMutability": "nonpayable",
      "type": "function"
    }
  ],
  "bytecode": "0x60806040523480156200001157600080fd5b506040516200185738038062001857833981016040819052620000349162000110565b805181906200004b90600190602084019062000054565b50505062000229565b8280546200006290620001ec565b90600052602060002090601f016020900481019282620000865760008555620000d1565b82601f10620000a157805160ff1916838001178555620000d1565b82800160010185558215620000d1579182015b82811115620000d1578251825591602001919060010190620000b4565b50620000df929150620000e3565b5090565b5b80821115620000df5760008155600101620000e4565b634e487b7160e01b600052604160045260246000fd5b600060208083850312156200012457600080fd5b82516001600160401b03808211156200013c57600080fd5b818501915085601f8301126200015157600080fd5b815181811115620001665762000166620000fa565b604051601f8201601f19908116603f01168101908382118183101715620001915762000191620000fa565b816040528281528886848701011115620001aa57600080fd5b600093505b82841015620001ce5784840186015181850187015292850192620001af565b82841115620001e05760008684830101525b98975050505050505050565b600181811c908216806200020157607f821691505b602082108114156200022357634e487b7160e01b600052602260045260246000fd5b50919050565b61161e80620002396000396000f3fe608060405234801561001057600080fd5b50600436106101375760003560e01c80636ac4d975116100b8578063880f40391161007c578063880f40391461028557806397f735d514610298578063a154ce82146102cb578063aad7e363146102de578063e1c7392a1461031a578063f315df861461032257600080fd5b80636ac4d9751461022a57806377fdcede1461023d5780637a37cc59146102505780637b1391a61461026157806386497f411461027257600080fd5b80633e1bbdc9116100ff5780633e1bbdc9146101b657806345946334146101c957806347d23419146101da57806350c358a4146101ed578063606c0c941461021957600080fd5b80630e17790f1461013c578063244d825714610151578063289b3c0d1461017b578063392e53cd1461018c57806339e7c536146101a3575b600080fd5b61014f61014a366004611229565b610335565b005b6003546001600160a01b03165b6040516001600160a01b0390911681526020015b60405180910390f35b6006546001600160a01b031661015e565b60005460ff165b6040519015158152602001610172565b61014f6101b1366004611262565b6103a3565b61014f6101c4366004611286565b6103af565b6005546001600160a01b031661015e565b61014f6101e8366004611262565b61046b565b6101936101fb366004611262565b6001600160a01b031660009081526064602052604090205460ff1690565b6007546001600160a01b031661015e565b61014f610238366004611345565b61049e565b61014f61024b366004611262565b610501565b6004546001600160a01b031661015e565b6002546001600160a01b031661015e565b61014f610280366004611262565b610534565b61014f610293366004611262565b610567565b6101936102a6366004611262565b6001600160a01b0316600090815260646020526040902054600160a81b900460ff1690565b61014f6102d9366004611262565b61059a565b6102f16102ec366004611262565b6105cd565b6040805160ff90941684526001600160a01b039283166020850152911690820152606001610172565b61014f610673565b61014f610330366004611262565b610719565b3341146103955760405162461bcd60e51b8152602060048201526024808201527f496e6a6563746f72436f6e74657874486f6c6465723a206f6e6c7920636f696e6044820152636261736560e01b60648201526084015b60405180910390fd5b61039f828261074c565b5050565b6103ac8161096f565b50565b60005460ff16156103d25760405162461bcd60e51b815260040161038c9061140a565b600280546001600160a01b03199081166001600160a01b038b8116919091179092556003805482168a841617905560048054821689841617905560058054821688841617905560068054821687841617905560078054821686841617905560088054821685841617905560098054909116918316919091179055610454610a51565b50506000805460ff19166001179055505050505050565b6006546001600160a01b031633146104955760405162461bcd60e51b815260040161038c90611441565b6103ac81610b43565b60005460ff16156104c15760405162461bcd60e51b815260040161038c9061140a565b60005b815181101561039f576104ef8282815181106104e2576104e2611487565b6020026020010151610cdb565b806104f98161149d565b9150506104c4565b6006546001600160a01b0316331461052b5760405162461bcd60e51b815260040161038c90611441565b6103ac81610dee565b6006546001600160a01b0316331461055e5760405162461bcd60e51b815260040161038c90611441565b6103ac81610ef2565b6006546001600160a01b031633146105915760405162461bcd60e51b815260040161038c90611441565b6103ac81610cdb565b6006546001600160a01b031633146105c45760405162461bcd60e51b815260040161038c90611441565b6103ac81610fe5565b6001600160a01b0381166000908152606560205260408082208151606081019092528054839283928392829060ff16600281111561060d5761060d6114c6565b600281111561061e5761061e6114c6565b815281546001600160a01b03610100909104811660208301526001909201549091166040909101528051909150600281111561065c5761065c6114c6565b602082015160409092015190969195509350915050565b60005460ff16156106965760405162461bcd60e51b815260040161038c9061140a565b600280546001600160a01b0319908116611000179091556003805482166110011790556004805482166110021790556005805482166170011790556006805482166170021790556007805482166170031790556008805482166170041790556009805490911661700517905561070a610a51565b6000805460ff19166001179055565b6006546001600160a01b031633146107435760405162461bcd60e51b815260040161038c90611441565b6103ac8161117d565b6001600160a01b03821660009081526064602052604090205460ff166107be5760405162461bcd60e51b815260206004820152602160248201527f4465706c6f7965723a206465706c6f796572206973206e6f7420616c6c6f77656044820152601960fa1b606482015260840161038c565b6001600160a01b0381166000908152606560205260408082208151606081019092528054829060ff1660028111156107f8576107f86114c6565b6002811115610809576108096114c6565b815281546001600160a01b036101009091048116602080840191909152600190930154811660409092019190915290820151919250161561089b5760405162461bcd60e51b815260206004820152602660248201527f4465706c6f7965723a20636f6e7472616374206973206465706c6f79656420616044820152656c726561647960d01b606482015260840161038c565b60018082526001600160a01b0383811660208085018290529186166040808601919091526000918252606590925220825181548493839160ff1916908360028111156108e9576108e96114c6565b02179055506020828101518254610100600160a81b0319166101006001600160a01b0392831602178355604093840151600190930180546001600160a01b0319169382169390931790925591518482168152908516917f33c981baba081f8fd2c52ac6ad1ea95b6814b4376640f55689051f6584729688910160405180910390a2505050565b6001600160a01b0381166000908152606560205260408082208151606081019092528054829060ff1660028111156109a9576109a96114c6565b60028111156109ba576109ba6114c6565b815281546001600160a01b036101009091048116602083015260019092015490911660409091015290506002815160028111156109f9576109f96114c6565b141561039f5760405162461bcd60e51b815260206004820152602160248201527f4465706c6f7965723a20636f6e7472616374206973206e6f7420656e61626c656044820152601960fa1b606482015260840161038c565b60018054610a5e906114dc565b15159050610a6857565b600080306001600160a01b03166001604051610a849190611517565b6000604051808303816000865af19150503d8060008114610ac1576040519150601f19603f3d011682016040523d82523d6000602084013e610ac6565b606091505b50915091508115610ad5575050565b8051610b3a5760405162461bcd60e51b815260206004820152602e60248201527f496e6a6563746f723a20636f6e737472756374696f6e206661696c656420772f60448201526d103ab735b737bbb71032b93937b960911b606482015260840161038c565b80518082602001fd5b6001600160a01b0381166000908152606560205260408082208151606081019092528054829060ff166002811115610b7d57610b7d6114c6565b6002811115610b8e57610b8e6114c6565b815281546001600160a01b03610100909104811660208301526001909201549091166040909101529050600281516002811115610bcd57610bcd6114c6565b14610c255760405162461bcd60e51b815260206004820152602260248201527f4465706c6f7965723a20636f6e747261637420616c726561647920656e61626c604482015261195960f21b606482015260840161038c565b60018082526001600160a01b0383166000908152606560205260409020825181548493839160ff191690836002811115610c6157610c616114c6565b021790555060208201518154610100600160a81b0319166101006001600160a01b0392831602178255604092830151600190920180546001600160a01b031916928216929092179091559051908316907fae81c15a680e6640ba872ca44f364ad67c60a04089ad9fa100f7a3ce94da9f6890600090a25050565b6001600160a01b03811660009081526064602052604090205460ff1615610d445760405162461bcd60e51b815260206004820181905260248201527f4465706c6f7965723a206465706c6f79657220616c7265616479206578697374604482015260640161038c565b60408051606081018252600181526001600160a01b0383811660208084018281526000858701818152848252606490935286812095518654925193516001600160a81b0319909316901515610100600160a81b0319161761010093909516929092029390931760ff60a81b1916600160a81b9315159390930292909217909255915190917f861a21548a3ee34d896ccac3668a9d65030aaf2cb7367a2ed13608014016a03291a250565b6001600160a01b03811660009081526064602052604090205460ff16610e265760405162461bcd60e51b815260040161038c906115b3565b6001600160a01b038116600090815260646020526040902054600160a81b900460ff1615610ea05760405162461bcd60e51b815260206004820152602160248201527f4465706c6f7965723a206465706c6f79657220616c72656164792062616e6e656044820152601960fa1b606482015260840161038c565b6001600160a01b038116600081815260646020526040808220805460ff60a81b1916600160a81b179055517f9cf4d5b60708c113f822fd9addfd8d6d6280c3f539f5edf3ab97b528dedfa80a9190a250565b6001600160a01b03811660009081526064602052604090205460ff16610f2a5760405162461bcd60e51b815260040161038c906115b3565b6001600160a01b038116600090815260646020526040902054600160a81b900460ff16610f995760405162461bcd60e51b815260206004820181905260248201527f4465706c6f7965723a206465706c6f796572206973206e6f742062616e6e6564604482015260640161038c565b6001600160a01b038116600081815260646020526040808220805460ff60a81b19169055517f59c71bff57754566be21262a328a9c5c20b85a1be305ff7e01378049d02493e19190a250565b6001600160a01b0381166000908152606560205260408082208151606081019092528054829060ff16600281111561101f5761101f6114c6565b6002811115611030576110306114c6565b815281546001600160a01b0361010090910481166020830152600192830154166040909101529091508151600281111561106c5761106c6114c6565b146110c55760405162461bcd60e51b815260206004820152602360248201527f4465706c6f7965723a20636f6e747261637420616c72656164792064697361626044820152621b195960ea1b606482015260840161038c565b60028082526001600160a01b0383166000908152606560205260409020825181548493839160ff1916906001908490811115611103576111036114c6565b021790555060208201518154610100600160a81b0319166101006001600160a01b0392831602178255604092830151600190920180546001600160a01b031916928216929092179091559051908316907f793bc6423dd0257d64f9d47db72fd4b2162f4541aa41740ba1c5fb5e2cd41bcd90600090a25050565b6001600160a01b03811660009081526064602052604090205460ff166111b55760405162461bcd60e51b815260040161038c906115b3565b6001600160a01b03811660008181526064602052604080822080546001600160b01b0319169055517ffdb22628e87f888d060acc53d048a6a8400a5024f81f9dcb0606e723f238864a9190a250565b6001600160a01b03811681146103ac57600080fd5b803561122481611204565b919050565b6000806040838503121561123c57600080fd5b823561124781611204565b9150602083013561125781611204565b809150509250929050565b60006020828403121561127457600080fd5b813561127f81611204565b9392505050565b600080600080600080600080610100898b0312156112a357600080fd5b88356112ae81611204565b975060208901356112be81611204565b965060408901356112ce81611204565b955060608901356112de81611204565b945060808901356112ee81611204565b935060a08901356112fe81611204565b925060c089013561130e81611204565b915060e089013561131e81611204565b809150509295985092959890939650565b634e487b7160e01b600052604160045260246000fd5b6000602080838503121561135857600080fd5b823567ffffffffffffffff8082111561137057600080fd5b818501915085601f83011261138457600080fd5b8135818111156113965761139661132f565b8060051b604051601f19603f830116810181811085821117156113bb576113bb61132f565b6040529182528482019250838101850191888311156113d957600080fd5b938501935b828510156113fe576113ef85611219565b845293850193928501926113de565b98975050505050505050565b6020808252601d908201527f496e6a6563746f723a20616c726561647920696e697469616c697a6564000000604082015260600190565b60208082526026908201527f496e6a6563746f72436f6e74657874486f6c6465723a206f6e6c7920676f7665604082015265726e616e636560d01b606082015260800190565b634e487b7160e01b600052603260045260246000fd5b60006000198214156114bf57634e487b7160e01b600052601160045260246000fd5b5060010190565b634e487b7160e01b600052602160045260246000fd5b600181811c908216806114f057607f821691505b6020821081141561151157634e487b7160e01b600052602260045260246000fd5b50919050565b600080835481600182811c91508083168061153357607f831692505b602080841082141561155357634e487b7160e01b86526022600452602486fd5b8180156115675760018114611578576115a5565b60ff198616895284890196506115a5565b60008a81526020902060005b8681101561159d5781548b820152908501908301611584565b505084890196505b509498975050505050505050565b6020808252818101527f4465706c6f7965723a206465706c6f79657220646f65736e277420657869737460408201526060019056fea264697066735822122027c454349a8915c72f8a9a294eaa62189a9be4552baa5b3a7f8b14a340d83c3964736f6c634300080b0033",
  "immutableReferences": {},
  "source": "// SPDX-License-Identifier: GPL-3.0-only\r\npragma solidity ^0.8.0;\r\n\r\nimport \"./Injector.sol\";\r\n\r\ncontract DeployerProxy is IDeployerProxy, InjectorContextHolder {\r\n\r\n    event DeployerAdded(address indexed account);\r\n    event DeployerRemoved(address indexed account);\r\n    event DeployerBanned(address indexed account);\r\n    event DeployerUnbanned(address indexed account);\r\n    event ContractDisabled(address indexed contractAddress);\r\n    event ContractEnabled(address indexed contractAddress);\r\n\r\n    event ContractDeployed(address indexed account, address impl);\r\n\r\n    struct Deployer {\r\n        bool exists;\r\n        address account;\r\n        bool banned;\r\n    }\r\n\r\n    enum ContractState {\r\n        NotFound,\r\n        Enabled,\r\n        Disabled\r\n    }\r\n\r\n    struct SmartContract {\r\n        ContractState state;\r\n        address impl;\r\n        address deployer;\r\n    }\r\n\r\n    mapping(address => Deployer) private _contractDeployers;\r\n    mapping(address => SmartContract) private _smartContracts;\r\n\r\n    constructor(bytes memory ctor) InjectorContextHolder(ctor) {\r\n    }\r\n\r\n    function ctor(address[] memory deployers) external whenNotInitialized {\r\n        for (uint256 i = 0; i < deployers.length; i++) {\r\n            _addDeployer(deployers[i]);\r\n        }\r\n    }\r\n\r\n    function isDeployer(address account) public override view returns (bool) {\r\n        return _contractDeployers[account].exists;\r\n    }\r\n\r\n    function isBanned(address account) public override view returns (bool) {\r\n        return _contractDeployers[account].banned;\r\n    }\r\n\r\n    function addDeployer(address account) public onlyFromGovernance virtual override {\r\n        _addDeployer(account);\r\n    }\r\n\r\n    function _addDeployer(address account) internal {\r\n        require(!_contractDeployers[account].exists, \"Deployer: deployer already exist\");\r\n        _contractDeployers[account] = Deployer({\r\n        exists : true,\r\n        account : account,\r\n        banned : false\r\n        });\r\n        emit DeployerAdded(account);\r\n    }\r\n\r\n    function removeDeployer(address account) public onlyFromGovernance virtual override {\r\n        _removeDeployer(account);\r\n    }\r\n\r\n    function _removeDeployer(address account) internal {\r\n        require(_contractDeployers[account].exists, \"Deployer: deployer doesn't exist\");\r\n        delete _contractDeployers[account];\r\n        emit DeployerRemoved(account);\r\n    }\r\n\r\n    function banDeployer(address account) public onlyFromGovernance virtual override {\r\n        _banDeployer(account);\r\n    }\r\n\r\n    function _banDeployer(address account) internal {\r\n        require(_contractDeployers[account].exists, \"Deployer: deployer doesn't exist\");\r\n        require(!_contractDeployers[account].banned, \"Deployer: deployer already banned\");\r\n        _contractDeployers[account].banned = true;\r\n        emit DeployerBanned(account);\r\n    }\r\n\r\n    function _unbanDeployer(address account) internal {\r\n        require(_contractDeployers[account].exists, \"Deployer: deployer doesn't exist\");\r\n        require(_contractDeployers[account].banned, \"Deployer: deployer is not banned\");\r\n        _contractDeployers[account].banned = false;\r\n        emit DeployerUnbanned(account);\r\n    }\r\n\r\n    function unbanDeployer(address account) public onlyFromGovernance virtual override {\r\n        _unbanDeployer(account);\r\n    }\r\n\r\n    function getContractState(address contractAddress) external view virtual override returns (uint8 state, address impl, address deployer) {\r\n        SmartContract memory dc = _smartContracts[contractAddress];\r\n        state = uint8(dc.state);\r\n        impl = dc.impl;\r\n        deployer = dc.deployer;\r\n    }\r\n\r\n    function _registerDeployedContract(address deployer, address impl) internal {\r\n        // make sure this call is allowed\r\n        require(isDeployer(deployer), \"Deployer: deployer is not allowed\");\r\n        // remember who deployed contract\r\n        SmartContract memory dc = _smartContracts[impl];\r\n        require(dc.impl == address(0x00), \"Deployer: contract is deployed already\");\r\n        dc.state = ContractState.Enabled;\r\n        dc.impl = impl;\r\n        dc.deployer = deployer;\r\n        _smartContracts[impl] = dc;\r\n        // emit event\r\n        emit ContractDeployed(deployer, impl);\r\n    }\r\n\r\n    function registerDeployedContract(address deployer, address impl) public onlyFromCoinbase virtual override {\r\n        _registerDeployedContract(deployer, impl);\r\n    }\r\n\r\n    function checkContractActive(address impl) external view virtual override {\r\n        _checkContractActive(impl);\r\n    }\r\n\r\n    function _checkContractActive(address impl) internal view {\r\n        // check that contract is not disabled\r\n        SmartContract memory dc = _smartContracts[impl];\r\n        require(dc.state != ContractState.Disabled, \"Deployer: contract is not enabled\");\r\n    }\r\n\r\n    function disableContract(address impl) public onlyFromGovernance virtual override {\r\n        _disableContract(impl);\r\n    }\r\n\r\n    function enableContract(address impl) public onlyFromGovernance virtual override {\r\n        _enableContract(impl);\r\n    }\r\n\r\n    function _disableContract(address contractAddress) internal {\r\n        SmartContract memory dc = _smartContracts[contractAddress];\r\n        require(dc.state == ContractState.Enabled, \"Deployer: contract already disabled\");\r\n        dc.state = ContractState.Disabled;\r\n        _smartContracts[contractAddress] = dc;\r\n        //emit event\r\n        emit ContractDisabled(contractAddress);\r\n    }\r\n\r\n    function _enableContract(address contractAddress) internal {\r\n        SmartContract memory dc = _smartContracts[contractAddress];\r\n        require(dc.state == ContractState.Disabled, \"Deployer: contract already enabled\");\r\n        dc.state = ContractState.Enabled;\r\n        _smartContracts[contractAddress] = dc;\r\n        //emit event\r\n        emit ContractEnabled(contractAddress);\r\n    }\r\n}",
  "sourcePath": "D:\\code\\rust\\bas-genesis-config\\contracts\\DeployerProxy.sol",
  "compiler": {
    "name": "solc",
    "version": "0.8.11+commit.d7f03943.Emscripten.clang"
  },
  "schemaVersion": "3.4.4",
  "updatedAt": "2022-04-21T10:08:23.696Z",
  "devdoc": {
    "kind": "dev",
    "methods": {},
    "version": 1
  },
  "userdoc": {
    "kind": "user",
    "methods": {},
    "version": 1
  }
}