{
  "contractName": "FakeDeployerProxy",
  "abi": [
    {
      "inputs": [
        {
          "internalType": "bytes",
          "name": "ctor",
          "type": "bytes"
        }
      ],
      "stateMutability": "nonpayable",
      "type": "constructor"
    },
    {
      "anonymous": false,
      "inputs": [
        {
          "indexed": true,
          "internalType": "address",
          "name": "account",
          "type": "address"
        },
        {
          "indexed": false,
          "internalType": "address",
          "name": "impl",
          "type": "address"
        }
      ],
      "name": "ContractDeployed",
      "type": "event"
    },
    {
      "anonymous": false,
      "inputs": [
        {
          "indexed": true,
          "internalType": "address",
          "name": "contractAddress",
          "type": "address"
        }
      ],
      "name": "ContractDisabled",
      "type": "event"
    },
    {
      "anonymous": false,
      "inputs": [
        {
          "indexed": true,
          "internalType": "address",
          "name": "contractAddress",
          "type": "address"
        }
      ],
      "name": "ContractEnabled",
      "type": "event"
    },
    {
      "anonymous": false,
      "inputs": [
        {
          "indexed": true,
          "internalType": "address",
          "name": "account",
          "type": "address"
        }
      ],
      "name": "DeployerAdded",
      "type": "event"
    },
    {
      "anonymous": false,
      "inputs": [
        {
          "indexed": true,
          "internalType": "address",
          "name": "account",
          "type": "address"
        }
      ],
      "name": "DeployerBanned",
      "type": "event"
    },
    {
      "anonymous": false,
      "inputs": [
        {
          "indexed": true,
          "internalType": "address",
          "name": "account",
          "type": "address"
        }
      ],
      "name": "DeployerRemoved",
      "type": "event"
    },
    {
      "anonymous": false,
      "inputs": [
        {
          "indexed": true,
          "internalType": "address",
          "name": "account",
          "type": "address"
        }
      ],
      "name": "DeployerUnbanned",
      "type": "event"
    },
    {
      "inputs": [
        {
          "internalType": "address[]",
          "name": "deployers",
          "type": "address[]"
        }
      ],
      "name": "ctor",
      "outputs": [],
      "stateMutability": "nonpayable",
      "type": "function"
    },
    {
      "inputs": [],
      "name": "getChainConfig",
      "outputs": [
        {
          "internalType": "contract IChainConfig",
          "name": "",
          "type": "address"
        }
      ],
      "stateMutability": "view",
      "type": "function"
    },
    {
      "inputs": [
        {
          "internalType": "address",
          "name": "contractAddress",
          "type": "address"
        }
      ],
      "name": "getContractState",
      "outputs": [
        {
          "internalType": "uint8",
          "name": "state",
          "type": "uint8"
        },
        {
          "internalType": "address",
          "name": "impl",
          "type": "address"
        },
        {
          "internalType": "address",
          "name": "deployer",
          "type": "address"
        }
      ],
      "stateMutability": "view",
      "type": "function"
    },
    {
      "inputs": [],
      "name": "getGovernance",
      "outputs": [
        {
          "internalType": "contract IGovernance",
          "name": "",
          "type": "address"
        }
      ],
      "stateMutability": "view",
      "type": "function"
    },
    {
      "inputs": [],
      "name": "getSlashingIndicator",
      "outputs": [
        {
          "internalType": "contract ISlashingIndicator",
          "name": "",
          "type": "address"
        }
      ],
      "stateMutability": "view",
      "type": "function"
    },
    {
      "inputs": [],
      "name": "getStaking",
      "outputs": [
        {
          "internalType": "contract IStaking",
          "name": "",
          "type": "address"
        }
      ],
      "stateMutability": "view",
      "type": "function"
    },
    {
      "inputs": [],
      "name": "getStakingPool",
      "outputs": [
        {
          "internalType": "contract IStakingPool",
          "name": "",
          "type": "address"
        }
      ],
      "stateMutability": "view",
      "type": "function"
    },
    {
      "inputs": [],
      "name": "getSystemReward",
      "outputs": [
        {
          "internalType": "contract ISystemReward",
          "name": "",
          "type": "address"
        }
      ],
      "stateMutability": "view",
      "type": "function"
    },
    {
      "inputs": [],
      "name": "init",
      "outputs": [],
      "stateMutability": "nonpayable",
      "type": "function"
    },
    {
      "inputs": [
        {
          "internalType": "contract IStaking",
          "name": "stakingContract",
          "type": "address"
        },
        {
          "internalType": "contract ISlashingIndicator",
          "name": "slashingIndicatorContract",
          "type": "address"
        },
        {
          "internalType": "contract ISystemReward",
          "name": "systemRewardContract",
          "type": "address"
        },
        {
          "internalType": "contract IStakingPool",
          "name": "stakingPoolContract",
          "type": "address"
        },
        {
          "internalType": "contract IGovernance",
          "name": "governanceContract",
          "type": "address"
        },
        {
          "internalType": "contract IChainConfig",
          "name": "chainConfigContract",
          "type": "address"
        },
        {
          "internalType": "contract IRuntimeUpgrade",
          "name": "runtimeUpgradeContract",
          "type": "address"
        },
        {
          "internalType": "contract IDeployerProxy",
          "name": "deployerProxyContract",
          "type": "address"
        }
      ],
      "name": "initManually",
      "outputs": [],
      "stateMutability": "nonpayable",
      "type": "function"
    },
    {
      "inputs": [
        {
          "internalType": "address",
          "name": "account",
          "type": "address"
        }
      ],
      "name": "isBanned",
      "outputs": [
        {
          "internalType": "bool",
          "name": "",
          "type": "bool"
        }
      ],
      "stateMutability": "view",
      "type": "function"
    },
    {
      "inputs": [
        {
          "internalType": "address",
          "name": "account",
          "type": "address"
        }
      ],
      "name": "isDeployer",
      "outputs": [
        {
          "internalType": "bool",
          "name": "",
          "type": "bool"
        }
      ],
      "stateMutability": "view",
      "type": "function"
    },
    {
      "inputs": [],
      "name": "isInitialized",
      "outputs": [
        {
          "internalType": "bool",
          "name": "",
          "type": "bool"
        }
      ],
      "stateMutability": "view",
      "type": "function"
    },
    {
      "inputs": [
        {
          "internalType": "address",
          "name": "account",
          "type": "address"
        }
      ],
      "name": "addDeployer",
      "outputs": [],
      "stateMutability": "nonpayable",
      "type": "function"
    },
    {
      "inputs": [
        {
          "internalType": "address",
          "name": "account",
          "type": "address"
        }
      ],
      "name": "removeDeployer",
      "outputs": [],
      "stateMutability": "nonpayable",
      "type": "function"
    },
    {
      "inputs": [
        {
          "internalType": "address",
          "name": "account",
          "type": "address"
        }
      ],
      "name": "banDeployer",
      "outputs": [],
      "stateMutability": "nonpayable",
      "type": "function"
    },
    {
      "inputs": [
        {
          "internalType": "address",
          "name": "account",
          "type": "address"
        }
      ],
      "name": "unbanDeployer",
      "outputs": [],
      "stateMutability": "nonpayable",
      "type": "function"
    },
    {
      "inputs": [
        {
          "internalType": "address",
          "name": "deployer",
          "type": "address"
        },
        {
          "internalType": "address",
          "name": "impl",
          "type": "address"
        }
      ],
      "name": "registerDeployedContract",
      "outputs": [],
      "stateMutability": "nonpayable",
      "type": "function"
    },
    {
      "inputs": [
        {
          "internalType": "address",
          "name": "impl",
          "type": "address"
        }
      ],
      "name": "checkContractActive",
      "outputs": [],
      "stateMutability": "view",
      "type": "function"
    },
    {
      "inputs": [
        {
          "internalType": "address",
          "name": "impl",
          "type": "address"
        }
      ],
      "name": "disableContract",
      "outputs": [],
      "stateMutability": "nonpayable",
      "type": "function"
    },
    {
      "inputs": [
        {
          "internalType": "address",
          "name": "impl",
          "type": "address"
        }
      ],
      "name": "enableContract",
      "outputs": [],
      "stateMutability": "nonpayable",
      "type": "function"
    }
  ],
  "bytecode": "0x60806040523480156200001157600080fd5b50604051620016c1380380620016c1833981016040819052620000349162000113565b8051819081906200004d90600190602084019062000057565b505050506200022c565b8280546200006590620001ef565b90600052602060002090601f016020900481019282620000895760008555620000d4565b82601f10620000a457805160ff1916838001178555620000d4565b82800160010185558215620000d4579182015b82811115620000d4578251825591602001919060010190620000b7565b50620000e2929150620000e6565b5090565b5b80821115620000e25760008155600101620000e7565b634e487b7160e01b600052604160045260246000fd5b600060208083850312156200012757600080fd5b82516001600160401b03808211156200013f57600080fd5b818501915085601f8301126200015457600080fd5b815181811115620001695762000169620000fd565b604051601f8201601f19908116603f01168101908382118183101715620001945762000194620000fd565b816040528281528886848701011115620001ad57600080fd5b600093505b82841015620001d15784840186015181850187015292850192620001b2565b82841115620001e35760008684830101525b98975050505050505050565b600181811c908216806200020457607f821691505b602082108114156200022657634e487b7160e01b600052602260045260246000fd5b50919050565b611485806200023c6000396000f3fe608060405234801561001057600080fd5b50600436106101375760003560e01c80636ac4d975116100b8578063880f40391161007c578063880f40391461028557806397f735d514610298578063a154ce82146102cb578063aad7e363146102de578063e1c7392a1461031a578063f315df861461032257600080fd5b80636ac4d9751461022a57806377fdcede1461023d5780637a37cc59146102505780637b1391a61461026157806386497f411461027257600080fd5b80633e1bbdc9116100ff5780633e1bbdc9146101b657806345946334146101c957806347d23419146101da57806350c358a4146101ed578063606c0c941461021957600080fd5b80630e17790f1461013c578063244d825714610151578063289b3c0d1461017b578063392e53cd1461018c57806339e7c536146101a3575b600080fd5b61014f61014a3660046110d6565b610335565b005b6003546001600160a01b03165b6040516001600160a01b0390911681526020015b60405180910390f35b6006546001600160a01b031661015e565b60005460ff165b6040519015158152602001610172565b61014f6101b136600461110f565b610343565b61014f6101c4366004611133565b61034f565b6005546001600160a01b031661015e565b61014f6101e836600461110f565b610414565b6101936101fb36600461110f565b6001600160a01b031660009081526064602052604090205460ff1690565b6007546001600160a01b031661015e565b61014f6102383660046111f2565b61041d565b61014f61024b36600461110f565b610480565b6004546001600160a01b031661015e565b6002546001600160a01b031661015e565b61014f61028036600461110f565b610489565b61014f61029336600461110f565b610492565b6101936102a636600461110f565b6001600160a01b0316600090815260646020526040902054600160a81b900460ff1690565b61014f6102d936600461110f565b61049b565b6102f16102ec36600461110f565b6104a4565b6040805160ff90941684526001600160a01b039283166020850152911690820152606001610172565b61014f61054a565b61014f61033036600461110f565b6105f0565b61033f82826105f9565b5050565b61034c8161081c565b50565b60005460ff161561037b5760405162461bcd60e51b8152600401610372906112b7565b60405180910390fd5b600280546001600160a01b03199081166001600160a01b038b8116919091179092556003805482168a8416179055600480548216898416179055600580548216888416179055600680548216878416179055600780548216868416179055600880548216858416179055600980549091169183169190911790556103fd6108fe565b50506000805460ff19166001179055505050505050565b61034c816109f0565b60005460ff16156104405760405162461bcd60e51b8152600401610372906112b7565b60005b815181101561033f5761046e828281518110610461576104616112ee565b6020026020010151610b88565b8061047881611304565b915050610443565b61034c81610c9b565b61034c81610d9f565b61034c81610b88565b61034c81610e92565b6001600160a01b0381166000908152606560205260408082208151606081019092528054839283928392829060ff1660028111156104e4576104e461132d565b60028111156104f5576104f561132d565b815281546001600160a01b0361010090910481166020830152600190920154909116604090910152805190915060028111156105335761053361132d565b602082015160409092015190969195509350915050565b60005460ff161561056d5760405162461bcd60e51b8152600401610372906112b7565b600280546001600160a01b031990811661100017909155600380548216611001179055600480548216611002179055600580548216617001179055600680548216617002179055600780548216617003179055600880548216617004179055600980549091166170051790556105e16108fe565b6000805460ff19166001179055565b61034c8161102a565b6001600160a01b03821660009081526064602052604090205460ff1661066b5760405162461bcd60e51b815260206004820152602160248201527f4465706c6f7965723a206465706c6f796572206973206e6f7420616c6c6f77656044820152601960fa1b6064820152608401610372565b6001600160a01b0381166000908152606560205260408082208151606081019092528054829060ff1660028111156106a5576106a561132d565b60028111156106b6576106b661132d565b815281546001600160a01b03610100909104811660208084019190915260019093015481166040909201919091529082015191925016156107485760405162461bcd60e51b815260206004820152602660248201527f4465706c6f7965723a20636f6e7472616374206973206465706c6f79656420616044820152656c726561647960d01b6064820152608401610372565b60018082526001600160a01b0383811660208085018290529186166040808601919091526000918252606590925220825181548493839160ff1916908360028111156107965761079661132d565b02179055506020828101518254610100600160a81b0319166101006001600160a01b0392831602178355604093840151600190930180546001600160a01b0319169382169390931790925591518482168152908516917f33c981baba081f8fd2c52ac6ad1ea95b6814b4376640f55689051f6584729688910160405180910390a2505050565b6001600160a01b0381166000908152606560205260408082208151606081019092528054829060ff1660028111156108565761085661132d565b60028111156108675761086761132d565b815281546001600160a01b036101009091048116602083015260019092015490911660409091015290506002815160028111156108a6576108a661132d565b141561033f5760405162461bcd60e51b815260206004820152602160248201527f4465706c6f7965723a20636f6e7472616374206973206e6f7420656e61626c656044820152601960fa1b6064820152608401610372565b6001805461090b90611343565b1515905061091557565b600080306001600160a01b03166001604051610931919061137e565b6000604051808303816000865af19150503d806000811461096e576040519150601f19603f3d011682016040523d82523d6000602084013e610973565b606091505b50915091508115610982575050565b80516109e75760405162461bcd60e51b815260206004820152602e60248201527f496e6a6563746f723a20636f6e737472756374696f6e206661696c656420772f60448201526d103ab735b737bbb71032b93937b960911b6064820152608401610372565b80518082602001fd5b6001600160a01b0381166000908152606560205260408082208151606081019092528054829060ff166002811115610a2a57610a2a61132d565b6002811115610a3b57610a3b61132d565b815281546001600160a01b03610100909104811660208301526001909201549091166040909101529050600281516002811115610a7a57610a7a61132d565b14610ad25760405162461bcd60e51b815260206004820152602260248201527f4465706c6f7965723a20636f6e747261637420616c726561647920656e61626c604482015261195960f21b6064820152608401610372565b60018082526001600160a01b0383166000908152606560205260409020825181548493839160ff191690836002811115610b0e57610b0e61132d565b021790555060208201518154610100600160a81b0319166101006001600160a01b0392831602178255604092830151600190920180546001600160a01b031916928216929092179091559051908316907fae81c15a680e6640ba872ca44f364ad67c60a04089ad9fa100f7a3ce94da9f6890600090a25050565b6001600160a01b03811660009081526064602052604090205460ff1615610bf15760405162461bcd60e51b815260206004820181905260248201527f4465706c6f7965723a206465706c6f79657220616c72656164792065786973746044820152606401610372565b60408051606081018252600181526001600160a01b0383811660208084018281526000858701818152848252606490935286812095518654925193516001600160a81b0319909316901515610100600160a81b0319161761010093909516929092029390931760ff60a81b1916600160a81b9315159390930292909217909255915190917f861a21548a3ee34d896ccac3668a9d65030aaf2cb7367a2ed13608014016a03291a250565b6001600160a01b03811660009081526064602052604090205460ff16610cd35760405162461bcd60e51b81526004016103729061141a565b6001600160a01b038116600090815260646020526040902054600160a81b900460ff1615610d4d5760405162461bcd60e51b815260206004820152602160248201527f4465706c6f7965723a206465706c6f79657220616c72656164792062616e6e656044820152601960fa1b6064820152608401610372565b6001600160a01b038116600081815260646020526040808220805460ff60a81b1916600160a81b179055517f9cf4d5b60708c113f822fd9addfd8d6d6280c3f539f5edf3ab97b528dedfa80a9190a250565b6001600160a01b03811660009081526064602052604090205460ff16610dd75760405162461bcd60e51b81526004016103729061141a565b6001600160a01b038116600090815260646020526040902054600160a81b900460ff16610e465760405162461bcd60e51b815260206004820181905260248201527f4465706c6f7965723a206465706c6f796572206973206e6f742062616e6e65646044820152606401610372565b6001600160a01b038116600081815260646020526040808220805460ff60a81b19169055517f59c71bff57754566be21262a328a9c5c20b85a1be305ff7e01378049d02493e19190a250565b6001600160a01b0381166000908152606560205260408082208151606081019092528054829060ff166002811115610ecc57610ecc61132d565b6002811115610edd57610edd61132d565b815281546001600160a01b03610100909104811660208301526001928301541660409091015290915081516002811115610f1957610f1961132d565b14610f725760405162461bcd60e51b815260206004820152602360248201527f4465706c6f7965723a20636f6e747261637420616c72656164792064697361626044820152621b195960ea1b6064820152608401610372565b60028082526001600160a01b0383166000908152606560205260409020825181548493839160ff1916906001908490811115610fb057610fb061132d565b021790555060208201518154610100600160a81b0319166101006001600160a01b0392831602178255604092830151600190920180546001600160a01b031916928216929092179091559051908316907f793bc6423dd0257d64f9d47db72fd4b2162f4541aa41740ba1c5fb5e2cd41bcd90600090a25050565b6001600160a01b03811660009081526064602052604090205460ff166110625760405162461bcd60e51b81526004016103729061141a565b6001600160a01b03811660008181526064602052604080822080546001600160b01b0319169055517ffdb22628e87f888d060acc53d048a6a8400a5024f81f9dcb0606e723f238864a9190a250565b6001600160a01b038116811461034c57600080fd5b80356110d1816110b1565b919050565b600080604083850312156110e957600080fd5b82356110f4816110b1565b91506020830135611104816110b1565b809150509250929050565b60006020828403121561112157600080fd5b813561112c816110b1565b9392505050565b600080600080600080600080610100898b03121561115057600080fd5b883561115b816110b1565b9750602089013561116b816110b1565b9650604089013561117b816110b1565b9550606089013561118b816110b1565b9450608089013561119b816110b1565b935060a08901356111ab816110b1565b925060c08901356111bb816110b1565b915060e08901356111cb816110b1565b809150509295985092959890939650565b634e487b7160e01b600052604160045260246000fd5b6000602080838503121561120557600080fd5b823567ffffffffffffffff8082111561121d57600080fd5b818501915085601f83011261123157600080fd5b813581811115611243576112436111dc565b8060051b604051601f19603f83011681018181108582111715611268576112686111dc565b60405291825284820192508381018501918883111561128657600080fd5b938501935b828510156112ab5761129c856110c6565b8452938501939285019261128b565b98975050505050505050565b6020808252601d908201527f496e6a6563746f723a20616c726561647920696e697469616c697a6564000000604082015260600190565b634e487b7160e01b600052603260045260246000fd5b600060001982141561132657634e487b7160e01b600052601160045260246000fd5b5060010190565b634e487b7160e01b600052602160045260246000fd5b600181811c9082168061135757607f821691505b6020821081141561137857634e487b7160e01b600052602260045260246000fd5b50919050565b600080835481600182811c91508083168061139a57607f831692505b60208084108214156113ba57634e487b7160e01b86526022600452602486fd5b8180156113ce57600181146113df5761140c565b60ff1986168952848901965061140c565b60008a81526020902060005b868110156114045781548b8201529085019083016113eb565b505084890196505b509498975050505050505050565b6020808252818101527f4465706c6f7965723a206465706c6f79657220646f65736e277420657869737460408201526060019056fea2646970667358221220f7a8e47f1af469e55ad3523ca3a18d6f6a63d179a8691eeda081c156dc9b25b664736f6c634300080b0033",
  "immutableReferences": {},
  "source": "// SPDX-License-Identifier: GPL-3.0-only\r\npragma solidity ^0.8.0;\r\n\r\nimport \"../DeployerProxy.sol\";\r\n\r\ncontract FakeDeployerProxy is DeployerProxy {\r\n\r\n    constructor(bytes memory ctor) DeployerProxy(ctor) {\r\n    }\r\n\r\n    function addDeployer(address account) public override {\r\n        _addDeployer(account);\r\n    }\r\n\r\n    function removeDeployer(address account) public override {\r\n        _removeDeployer(account);\r\n    }\r\n\r\n    function banDeployer(address account) public override {\r\n        _banDeployer(account);\r\n    }\r\n\r\n    function unbanDeployer(address account) public override {\r\n        _unbanDeployer(account);\r\n    }\r\n\r\n    function registerDeployedContract(address deployer, address impl) public override {\r\n        _registerDeployedContract(deployer, impl);\r\n    }\r\n\r\n    function checkContractActive(address impl) external view override {\r\n        _checkContractActive(impl);\r\n    }\r\n\r\n    function disableContract(address impl) public override {\r\n        _disableContract(impl);\r\n    }\r\n\r\n    function enableContract(address impl) public override {\r\n        _enableContract(impl);\r\n    }\r\n}",
  "sourcePath": "D:\\code\\rust\\bas-genesis-config\\contracts\\tests\\FakeDeployerProxy.sol",
  "compiler": {
    "name": "solc",
    "version": "0.8.11+commit.d7f03943.Emscripten.clang"
  },
  "schemaVersion": "3.4.4",
  "updatedAt": "2022-04-21T10:08:23.845Z",
  "devdoc": {
    "kind": "dev",
    "methods": {},
    "version": 1
  },
  "userdoc": {
    "kind": "user",
    "methods": {},
    "version": 1
  }
}