{
  "contractName": "FakeRuntimeUpgradeEvmHook",
  "abi": [
    {
      "anonymous": false,
      "inputs": [
        {
          "indexed": false,
          "internalType": "address",
          "name": "contractAddress",
          "type": "address"
        },
        {
          "indexed": false,
          "internalType": "bytes",
          "name": "byteCode",
          "type": "bytes"
        }
      ],
      "name": "Upgraded",
      "type": "event"
    },
    {
      "inputs": [
        {
          "internalType": "address",
          "name": "contractAddress",
          "type": "address"
        },
        {
          "internalType": "bytes",
          "name": "byteCode",
          "type": "bytes"
        }
      ],
      "name": "upgradeTo",
      "outputs": [],
      "stateMutability": "nonpayable",
      "type": "function"
    }
  ],
  "bytecode": "0x608060405234801561001057600080fd5b5061018c806100206000396000f3fe608060405234801561001057600080fd5b506004361061002b5760003560e01c80636fbc15e914610030575b600080fd5b61004361003e366004610085565b610045565b005b7f3b864ad8da4ee758946f28fb3d0eaeb4d28c980ee47bf13c0c7fe3808855cfcf83838360405161007893929190610116565b60405180910390a1505050565b60008060006040848603121561009a57600080fd5b83356001600160a01b03811681146100b157600080fd5b9250602084013567ffffffffffffffff808211156100ce57600080fd5b818601915086601f8301126100e257600080fd5b8135818111156100f157600080fd5b87602082850101111561010357600080fd5b6020830194508093505050509250925092565b6001600160a01b03841681526040602082018190528101829052818360608301376000818301606090810191909152601f909201601f191601019291505056fea2646970667358221220760c357fada2154c80a24863979de59320eb2d2aebc658f994fb73dc08ceffd664736f6c634300080b0033",
  "immutableReferences": {},
  "source": "// SPDX-License-Identifier: GPL-3.0-only\r\npragma solidity ^0.8.0;\r\n\r\nimport \"../interfaces/IRuntimeUpgradeEvmHook.sol\";\r\n\r\ncontract FakeRuntimeUpgradeEvmHook is IRuntimeUpgradeEvmHook {\r\n\r\n    event Upgraded(address contractAddress, bytes byteCode);\r\n\r\n    function upgradeTo(address contractAddress, bytes calldata byteCode) external override {\r\n        emit Upgraded(contractAddress, byteCode);\r\n    }\r\n}",
  "sourcePath": "D:\\code\\rust\\bas-genesis-config\\contracts\\tests\\FakeRuntimeUpgradeEvmHook.sol",
  "compiler": {
    "name": "solc",
    "version": "0.8.11+commit.d7f03943.Emscripten.clang"
  },
  "schemaVersion": "3.4.4",
  "updatedAt": "2022-04-21T10:08:23.859Z",
  "devdoc": {
    "kind": "dev",
    "methods": {},
    "version": 1
  },
  "userdoc": {
    "kind": "user",
    "methods": {},
    "version": 1
  }
}