{
  "contractName": "FakeRuntimeUpgrade",
  "abi": [
    {
      "inputs": [
        {
          "internalType": "bytes",
          "name": "constructorParams",
          "type": "bytes"
        }
      ],
      "stateMutability": "nonpayable",
      "type": "constructor"
    },
    {
      "anonymous": false,
      "inputs": [
        {
          "indexed": false,
          "internalType": "address",
          "name": "contractAddress",
          "type": "address"
        },
        {
          "indexed": false,
          "internalType": "bytes",
          "name": "newByteCode",
          "type": "bytes"
        }
      ],
      "name": "SmartContractUpgrade",
      "type": "event"
    },
    {
      "inputs": [
        {
          "internalType": "address",
          "name": "evmHookAddress",
          "type": "address"
        }
      ],
      "name": "ctor",
      "outputs": [],
      "stateMutability": "nonpayable",
      "type": "function"
    },
    {
      "inputs": [
        {
          "internalType": "address",
          "name": "systemContractAddress",
          "type": "address"
        },
        {
          "internalType": "bytes",
          "name": "newByteCode",
          "type": "bytes"
        },
        {
          "internalType": "bytes",
          "name": "applyFunction",
          "type": "bytes"
        }
      ],
      "name": "deploySystemSmartContract",
      "outputs": [],
      "stateMutability": "nonpayable",
      "type": "function"
    },
    {
      "inputs": [],
      "name": "getChainConfig",
      "outputs": [
        {
          "internalType": "contract IChainConfig",
          "name": "",
          "type": "address"
        }
      ],
      "stateMutability": "view",
      "type": "function"
    },
    {
      "inputs": [],
      "name": "getEvmHookAddress",
      "outputs": [
        {
          "internalType": "address",
          "name": "",
          "type": "address"
        }
      ],
      "stateMutability": "view",
      "type": "function"
    },
    {
      "inputs": [],
      "name": "getGovernance",
      "outputs": [
        {
          "internalType": "contract IGovernance",
          "name": "",
          "type": "address"
        }
      ],
      "stateMutability": "view",
      "type": "function"
    },
    {
      "inputs": [],
      "name": "getSlashingIndicator",
      "outputs": [
        {
          "internalType": "contract ISlashingIndicator",
          "name": "",
          "type": "address"
        }
      ],
      "stateMutability": "view",
      "type": "function"
    },
    {
      "inputs": [],
      "name": "getStaking",
      "outputs": [
        {
          "internalType": "contract IStaking",
          "name": "",
          "type": "address"
        }
      ],
      "stateMutability": "view",
      "type": "function"
    },
    {
      "inputs": [],
      "name": "getStakingPool",
      "outputs": [
        {
          "internalType": "contract IStakingPool",
          "name": "",
          "type": "address"
        }
      ],
      "stateMutability": "view",
      "type": "function"
    },
    {
      "inputs": [],
      "name": "getSystemContracts",
      "outputs": [
        {
          "internalType": "address[]",
          "name": "",
          "type": "address[]"
        }
      ],
      "stateMutability": "view",
      "type": "function"
    },
    {
      "inputs": [],
      "name": "getSystemReward",
      "outputs": [
        {
          "internalType": "contract ISystemReward",
          "name": "",
          "type": "address"
        }
      ],
      "stateMutability": "view",
      "type": "function"
    },
    {
      "inputs": [],
      "name": "init",
      "outputs": [],
      "stateMutability": "nonpayable",
      "type": "function"
    },
    {
      "inputs": [
        {
          "internalType": "contract IStaking",
          "name": "stakingContract",
          "type": "address"
        },
        {
          "internalType": "contract ISlashingIndicator",
          "name": "slashingIndicatorContract",
          "type": "address"
        },
        {
          "internalType": "contract ISystemReward",
          "name": "systemRewardContract",
          "type": "address"
        },
        {
          "internalType": "contract IStakingPool",
          "name": "stakingPoolContract",
          "type": "address"
        },
        {
          "internalType": "contract IGovernance",
          "name": "governanceContract",
          "type": "address"
        },
        {
          "internalType": "contract IChainConfig",
          "name": "chainConfigContract",
          "type": "address"
        },
        {
          "internalType": "contract IRuntimeUpgrade",
          "name": "runtimeUpgradeContract",
          "type": "address"
        },
        {
          "internalType": "contract IDeployerProxy",
          "name": "deployerProxyContract",
          "type": "address"
        }
      ],
      "name": "initManually",
      "outputs": [],
      "stateMutability": "nonpayable",
      "type": "function"
    },
    {
      "inputs": [],
      "name": "isInitialized",
      "outputs": [
        {
          "internalType": "bool",
          "name": "",
          "type": "bool"
        }
      ],
      "stateMutability": "view",
      "type": "function"
    },
    {
      "inputs": [
        {
          "internalType": "address",
          "name": "systemContractAddress",
          "type": "address"
        },
        {
          "internalType": "bytes",
          "name": "newByteCode",
          "type": "bytes"
        },
        {
          "internalType": "bytes",
          "name": "applyFunction",
          "type": "bytes"
        }
      ],
      "name": "upgradeSystemSmartContract",
      "outputs": [],
      "stateMutability": "nonpayable",
      "type": "function"
    }
  ],
  "bytecode": "0x60806040523480156200001157600080fd5b506040516200123638038062001236833981016040819052620000349162000113565b8051819081906200004d90600190602084019062000057565b505050506200022c565b8280546200006590620001ef565b90600052602060002090601f016020900481019282620000895760008555620000d4565b82601f10620000a457805160ff1916838001178555620000d4565b82800160010185558215620000d4579182015b82811115620000d4578251825591602001919060010190620000b7565b50620000e2929150620000e6565b5090565b5b80821115620000e25760008155600101620000e7565b634e487b7160e01b600052604160045260246000fd5b600060208083850312156200012757600080fd5b82516001600160401b03808211156200013f57600080fd5b818501915085601f8301126200015457600080fd5b815181811115620001695762000169620000fd565b604051601f8201601f19908116603f01168101908382118183101715620001945762000194620000fd565b816040528281528886848701011115620001ad57600080fd5b600093505b82841015620001d15784840186015181850187015292850192620001b2565b82841115620001e35760008684830101525b98975050505050505050565b600181811c908216806200020457607f821691505b602082108114156200022657634e487b7160e01b600052602260045260246000fd5b50919050565b610ffa806200023c6000396000f3fe608060405234801561001057600080fd5b50600436106100ea5760003560e01c8063459463341161008c5780637b1391a6116100665780637b1391a6146101c7578063a8648464146101d8578063afaf1dbc146101e9578063e1c7392a146101fc57600080fd5b80634594633414610194578063606c0c94146101a55780637a37cc59146101b657600080fd5b8063289b3c0d116100c8578063289b3c0d1461014757806338dc8ff314610158578063392e53cd1461016b5780633e1bbdc91461018157600080fd5b806316cbea51146100ef57806318f062cd14610104578063244d825714610122575b600080fd5b6101026100fd366004610bb4565b610204565b005b61010c610252565b6040516101199190610bd8565b60405180910390f35b6003546001600160a01b03165b6040516001600160a01b039091168152602001610119565b6006546001600160a01b031661012f565b610102610166366004610c6e565b6104c3565b60005460ff166040519015158152602001610119565b61010261018f366004610cf1565b6104d7565b6005546001600160a01b031661012f565b6007546001600160a01b031661012f565b6004546001600160a01b031661012f565b6002546001600160a01b031661012f565b6064546001600160a01b031661012f565b6101026101f7366004610c6e565b610593565b6101026106c1565b60005460ff16156102305760405162461bcd60e51b815260040161022790610d9a565b60405180910390fd5b606480546001600160a01b0319166001600160a01b0392909216919091179055565b606554606090600090610266906008610de7565b67ffffffffffffffff81111561027e5761027e610dff565b6040519080825280602002602001820160405280156102a7578160200160208202803683370190505b5060025481519192506001600160a01b03169082906000906102cb576102cb610e15565b6001600160a01b0392831660209182029290920101526003548251911690829060019081106102fc576102fc610e15565b6001600160a01b03928316602091820292909201015260045482519116908290600290811061032d5761032d610e15565b6001600160a01b03928316602091820292909201015260055482519116908290600390811061035e5761035e610e15565b6001600160a01b03928316602091820292909201015260065482519116908290600490811061038f5761038f610e15565b6001600160a01b0392831660209182029290920101526007548251911690829060059081106103c0576103c0610e15565b6001600160a01b0392831660209182029290920101526008548251911690829060069081106103f1576103f1610e15565b6001600160a01b03928316602091820292909201015260095482519116908290600790811061042257610422610e15565b60200260200101906001600160a01b031690816001600160a01b03168152505060005b6065548110156104bd576065818154811061046257610462610e15565b6000918252602090912001546001600160a01b031682610483836008610de7565b8151811061049357610493610e15565b6001600160a01b0390921660209283029190910190910152806104b581610e2b565b915050610445565b50919050565b6104d08585858585610767565b5050505050565b60005460ff16156104fa5760405162461bcd60e51b815260040161022790610d9a565b600280546001600160a01b03199081166001600160a01b038b8116919091179092556003805482168a84161790556004805482168984161790556005805482168884161790556006805482168784161790556007805482168684161790556008805482168584161790556009805490911691831691909117905561057c610a38565b50506000805460ff19166001179055505050505050565b6006546001600160a01b031633146105fc5760405162461bcd60e51b815260206004820152602660248201527f496e6a6563746f72436f6e74657874486f6c6465723a206f6e6c7920676f7665604482015265726e616e636560d01b6064820152608401610227565b843b158015610611575061060f85610b2a565b155b61065d5760405162461bcd60e51b815260206004820181905260248201527f52756e74696d65557067726164653a206f6e6c79206e657720616464726573736044820152606401610227565b61066a8585858585610767565b5050606580546001810182556000919091527f8ff97419363ffd7000167f130ef7168fbea05faf9251824ca5043f113cc6a7c70180546001600160a01b0319166001600160a01b0394909416939093179092555050565b60005460ff16156106e45760405162461bcd60e51b815260040161022790610d9a565b600280546001600160a01b03199081166110001790915560038054821661100117905560048054821661100217905560058054821661700117905560068054821661700217905560078054821661700317905560088054821661700417905560098054909116617005179055610758610a38565b6000805460ff19166001179055565b6000636fbc15e960e01b86868660405160240161078693929190610e46565b60408051601f198184030181529181526020820180516001600160e01b03166001600160e01b03199094169390931790925260645491519092506000916001600160a01b0316906107d8908490610e86565b6000604051808303816000865af19150503d8060008114610815576040519150601f19603f3d011682016040523d82523d6000602084013e61081a565b606091505b505090508061087d5760405162461bcd60e51b815260206004820152602960248201527f52756e74696d65557067726164653a206661696c656420746f20696e766f6b656044820152682045564d20686f6f6b60b81b6064820152608401610227565b6000879050806001600160a01b031663392e53cd6040518163ffffffff1660e01b8152600401602060405180830381865afa1580156108c0573d6000803e3d6000fd5b505050506040513d601f19601f820116820180604052508101906108e49190610ec1565b61093c57806001600160a01b031663e1c7392a6040518163ffffffff1660e01b8152600401600060405180830381600087803b15801561092357600080fd5b505af1158015610937573d6000803e3d6000fd5b505050505b83156109f3576000886001600160a01b0316868660405161095e929190610ee3565b6000604051808303816000865af19150503d806000811461099b576040519150601f19603f3d011682016040523d82523d6000602084013e6109a0565b606091505b50509050806109f15760405162461bcd60e51b815260206004820181905260248201527f52756e74696d65557067726164653a206d6967726174696f6e206661696c65646044820152606401610227565b505b7f294c52758d41df5421795a058ea4837ce9d9714c75091eb30fe6925d1231db4a888888604051610a2693929190610e46565b60405180910390a15050505050505050565b60018054610a4590610ef3565b15159050610a4f57565b600080306001600160a01b03166001604051610a6b9190610f28565b6000604051808303816000865af19150503d8060008114610aa8576040519150601f19603f3d011682016040523d82523d6000602084013e610aad565b606091505b50915091508115610abc575050565b8051610b215760405162461bcd60e51b815260206004820152602e60248201527f496e6a6563746f723a20636f6e737472756374696f6e206661696c656420772f60448201526d103ab735b737bbb71032b93937b960911b6064820152608401610227565b80518082602001fd5b600080610b35610252565b905060005b8151811015610b9257836001600160a01b0316828281518110610b5f57610b5f610e15565b60200260200101516001600160a01b03161415610b80575060019392505050565b80610b8a81610e2b565b915050610b3a565b5060009392505050565b6001600160a01b0381168114610bb157600080fd5b50565b600060208284031215610bc657600080fd5b8135610bd181610b9c565b9392505050565b6020808252825182820181905260009190848201906040850190845b81811015610c195783516001600160a01b031683529284019291840191600101610bf4565b50909695505050505050565b60008083601f840112610c3757600080fd5b50813567ffffffffffffffff811115610c4f57600080fd5b602083019150836020828501011115610c6757600080fd5b9250929050565b600080600080600060608688031215610c8657600080fd5b8535610c9181610b9c565b9450602086013567ffffffffffffffff80821115610cae57600080fd5b610cba89838a01610c25565b90965094506040880135915080821115610cd357600080fd5b50610ce088828901610c25565b969995985093965092949392505050565b600080600080600080600080610100898b031215610d0e57600080fd5b8835610d1981610b9c565b97506020890135610d2981610b9c565b96506040890135610d3981610b9c565b95506060890135610d4981610b9c565b94506080890135610d5981610b9c565b935060a0890135610d6981610b9c565b925060c0890135610d7981610b9c565b915060e0890135610d8981610b9c565b809150509295985092959890939650565b6020808252601d908201527f496e6a6563746f723a20616c726561647920696e697469616c697a6564000000604082015260600190565b634e487b7160e01b600052601160045260246000fd5b60008219821115610dfa57610dfa610dd1565b500190565b634e487b7160e01b600052604160045260246000fd5b634e487b7160e01b600052603260045260246000fd5b6000600019821415610e3f57610e3f610dd1565b5060010190565b6001600160a01b03841681526040602082018190528101829052818360608301376000818301606090810191909152601f909201601f1916010192915050565b6000825160005b81811015610ea75760208186018101518583015201610e8d565b81811115610eb6576000828501525b509190910192915050565b600060208284031215610ed357600080fd5b81518015158114610bd157600080fd5b8183823760009101908152919050565b600181811c90821680610f0757607f821691505b602082108114156104bd57634e487b7160e01b600052602260045260246000fd5b600080835481600182811c915080831680610f4457607f831692505b6020808410821415610f6457634e487b7160e01b86526022600452602486fd5b818015610f785760018114610f8957610fb6565b60ff19861689528489019650610fb6565b60008a81526020902060005b86811015610fae5781548b820152908501908301610f95565b505084890196505b50949897505050505050505056fea2646970667358221220466fe5c5c4b91da3d7af9c0443d155320b21f94913683890815183fbd185dd2464736f6c634300080b0033",
  "immutableReferences": {},
  "source": "// SPDX-License-Identifier: GPL-3.0-only\r\npragma solidity ^0.8.0;\r\n\r\nimport \"../RuntimeUpgrade.sol\";\r\n\r\ncontract FakeRuntimeUpgrade is RuntimeUpgrade {\r\n\r\n    constructor(bytes memory constructorParams) RuntimeUpgrade(constructorParams) {\r\n    }\r\n\r\n    function upgradeSystemSmartContract(\r\n        address systemContractAddress,\r\n        bytes calldata newByteCode,\r\n        bytes calldata applyFunction\r\n    ) external override {\r\n        _upgradeSystemSmartContract(systemContractAddress, newByteCode, applyFunction);\r\n    }\r\n}",
  "sourcePath": "D:\\code\\rust\\bas-genesis-config\\contracts\\tests\\FakeRuntimeUpgrade.sol",
  "compiler": {
    "name": "solc",
    "version": "0.8.11+commit.d7f03943.Emscripten.clang"
  },
  "schemaVersion": "3.4.4",
  "updatedAt": "2022-04-21T10:08:23.853Z",
  "devdoc": {
    "kind": "dev",
    "methods": {},
    "version": 1
  },
  "userdoc": {
    "kind": "user",
    "methods": {},
    "version": 1
  }
}