{
  "contractName": "FakeStaking",
  "abi": [
    {
      "inputs": [
        {
          "internalType": "bytes",
          "name": "ctor",
          "type": "bytes"
        }
      ],
      "stateMutability": "nonpayable",
      "type": "constructor"
    },
    {
      "anonymous": false,
      "inputs": [
        {
          "indexed": true,
          "internalType": "address",
          "name": "validator",
          "type": "address"
        },
        {
          "indexed": true,
          "internalType": "address",
          "name": "staker",
          "type": "address"
        },
        {
          "indexed": false,
          "internalType": "uint256",
          "name": "amount",
          "type": "uint256"
        },
        {
          "indexed": false,
          "internalType": "uint64",
          "name": "epoch",
          "type": "uint64"
        }
      ],
      "name": "Claimed",
      "type": "event"
    },
    {
      "anonymous": false,
      "inputs": [
        {
          "indexed": true,
          "internalType": "address",
          "name": "validator",
          "type": "address"
        },
        {
          "indexed": true,
          "internalType": "address",
          "name": "staker",
          "type": "address"
        },
        {
          "indexed": false,
          "internalType": "uint256",
          "name": "amount",
          "type": "uint256"
        },
        {
          "indexed": false,
          "internalType": "uint64",
          "name": "epoch",
          "type": "uint64"
        }
      ],
      "name": "Delegated",
      "type": "event"
    },
    {
      "anonymous": false,
      "inputs": [
        {
          "indexed": true,
          "internalType": "address",
          "name": "validator",
          "type": "address"
        },
        {
          "indexed": true,
          "internalType": "address",
          "name": "staker",
          "type": "address"
        },
        {
          "indexed": false,
          "internalType": "uint256",
          "name": "amount",
          "type": "uint256"
        },
        {
          "indexed": false,
          "internalType": "uint64",
          "name": "epoch",
          "type": "uint64"
        }
      ],
      "name": "Undelegated",
      "type": "event"
    },
    {
      "anonymous": false,
      "inputs": [
        {
          "indexed": true,
          "internalType": "address",
          "name": "validator",
          "type": "address"
        },
        {
          "indexed": false,
          "internalType": "address",
          "name": "owner",
          "type": "address"
        },
        {
          "indexed": false,
          "internalType": "uint8",
          "name": "status",
          "type": "uint8"
        },
        {
          "indexed": false,
          "internalType": "uint16",
          "name": "commissionRate",
          "type": "uint16"
        }
      ],
      "name": "ValidatorAdded",
      "type": "event"
    },
    {
      "anonymous": false,
      "inputs": [
        {
          "indexed": true,
          "internalType": "address",
          "name": "validator",
          "type": "address"
        },
        {
          "indexed": false,
          "internalType": "uint64",
          "name": "epoch",
          "type": "uint64"
        }
      ],
      "name": "ValidatorJailed",
      "type": "event"
    },
    {
      "anonymous": false,
      "inputs": [
        {
          "indexed": true,
          "internalType": "address",
          "name": "validator",
          "type": "address"
        },
        {
          "indexed": false,
          "internalType": "address",
          "name": "owner",
          "type": "address"
        },
        {
          "indexed": false,
          "internalType": "uint8",
          "name": "status",
          "type": "uint8"
        },
        {
          "indexed": false,
          "internalType": "uint16",
          "name": "commissionRate",
          "type": "uint16"
        }
      ],
      "name": "ValidatorModified",
      "type": "event"
    },
    {
      "anonymous": false,
      "inputs": [
        {
          "indexed": true,
          "internalType": "address",
          "name": "validator",
          "type": "address"
        },
        {
          "indexed": false,
          "internalType": "uint256",
          "name": "amount",
          "type": "uint256"
        },
        {
          "indexed": false,
          "internalType": "uint64",
          "name": "epoch",
          "type": "uint64"
        }
      ],
      "name": "ValidatorOwnerClaimed",
      "type": "event"
    },
    {
      "anonymous": false,
      "inputs": [
        {
          "indexed": true,
          "internalType": "address",
          "name": "validator",
          "type": "address"
        }
      ],
      "name": "ValidatorRemoved",
      "type": "event"
    },
    {
      "anonymous": false,
      "inputs": [
        {
          "indexed": true,
          "internalType": "address",
          "name": "validator",
          "type": "address"
        },
        {
          "indexed": false,
          "internalType": "uint32",
          "name": "slashes",
          "type": "uint32"
        },
        {
          "indexed": false,
          "internalType": "uint64",
          "name": "epoch",
          "type": "uint64"
        }
      ],
      "name": "ValidatorSlashed",
      "type": "event"
    },
    {
      "inputs": [
        {
          "internalType": "address",
          "name": "validatorAddress",
          "type": "address"
        },
        {
          "internalType": "uint16",
          "name": "commissionRate",
          "type": "uint16"
        }
      ],
      "name": "changeValidatorCommissionRate",
      "outputs": [],
      "stateMutability": "nonpayable",
      "type": "function"
    },
    {
      "inputs": [
        {
          "internalType": "address",
          "name": "validatorAddress",
          "type": "address"
        },
        {
          "internalType": "address",
          "name": "newOwner",
          "type": "address"
        }
      ],
      "name": "changeValidatorOwner",
      "outputs": [],
      "stateMutability": "nonpayable",
      "type": "function"
    },
    {
      "inputs": [
        {
          "internalType": "address",
          "name": "validatorAddress",
          "type": "address"
        }
      ],
      "name": "claimDelegatorFee",
      "outputs": [],
      "stateMutability": "nonpayable",
      "type": "function"
    },
    {
      "inputs": [
        {
          "internalType": "address",
          "name": "validatorAddress",
          "type": "address"
        },
        {
          "internalType": "uint64",
          "name": "beforeEpoch",
          "type": "uint64"
        }
      ],
      "name": "claimDelegatorFeeAtEpoch",
      "outputs": [],
      "stateMutability": "nonpayable",
      "type": "function"
    },
    {
      "inputs": [
        {
          "internalType": "address",
          "name": "validatorAddress",
          "type": "address"
        }
      ],
      "name": "claimValidatorFee",
      "outputs": [],
      "stateMutability": "nonpayable",
      "type": "function"
    },
    {
      "inputs": [
        {
          "internalType": "address",
          "name": "validatorAddress",
          "type": "address"
        },
        {
          "internalType": "uint64",
          "name": "beforeEpoch",
          "type": "uint64"
        }
      ],
      "name": "claimValidatorFeeAtEpoch",
      "outputs": [],
      "stateMutability": "nonpayable",
      "type": "function"
    },
    {
      "inputs": [
        {
          "internalType": "address[]",
          "name": "validators",
          "type": "address[]"
        },
        {
          "internalType": "uint256[]",
          "name": "initialStakes",
          "type": "uint256[]"
        },
        {
          "internalType": "uint16",
          "name": "commissionRate",
          "type": "uint16"
        }
      ],
      "name": "ctor",
      "outputs": [],
      "stateMutability": "nonpayable",
      "type": "function"
    },
    {
      "inputs": [],
      "name": "currentEpoch",
      "outputs": [
        {
          "internalType": "uint64",
          "name": "",
          "type": "uint64"
        }
      ],
      "stateMutability": "view",
      "type": "function"
    },
    {
      "inputs": [
        {
          "internalType": "address",
          "name": "validatorAddress",
          "type": "address"
        }
      ],
      "name": "delegate",
      "outputs": [],
      "stateMutability": "payable",
      "type": "function"
    },
    {
      "inputs": [],
      "name": "getChainConfig",
      "outputs": [
        {
          "internalType": "contract IChainConfig",
          "name": "",
          "type": "address"
        }
      ],
      "stateMutability": "view",
      "type": "function"
    },
    {
      "inputs": [
        {
          "internalType": "address",
          "name": "validatorAddress",
          "type": "address"
        },
        {
          "internalType": "address",
          "name": "delegatorAddress",
          "type": "address"
        }
      ],
      "name": "getDelegatorFee",
      "outputs": [
        {
          "internalType": "uint256",
          "name": "",
          "type": "uint256"
        }
      ],
      "stateMutability": "view",
      "type": "function"
    },
    {
      "inputs": [],
      "name": "getGovernance",
      "outputs": [
        {
          "internalType": "contract IGovernance",
          "name": "",
          "type": "address"
        }
      ],
      "stateMutability": "view",
      "type": "function"
    },
    {
      "inputs": [
        {
          "internalType": "address",
          "name": "validatorAddress",
          "type": "address"
        },
        {
          "internalType": "address",
          "name": "delegatorAddress",
          "type": "address"
        }
      ],
      "name": "getPendingDelegatorFee",
      "outputs": [
        {
          "internalType": "uint256",
          "name": "",
          "type": "uint256"
        }
      ],
      "stateMutability": "view",
      "type": "function"
    },
    {
      "inputs": [
        {
          "internalType": "address",
          "name": "validatorAddress",
          "type": "address"
        }
      ],
      "name": "getPendingValidatorFee",
      "outputs": [
        {
          "internalType": "uint256",
          "name": "",
          "type": "uint256"
        }
      ],
      "stateMutability": "view",
      "type": "function"
    },
    {
      "inputs": [],
      "name": "getSlashingIndicator",
      "outputs": [
        {
          "internalType": "contract ISlashingIndicator",
          "name": "",
          "type": "address"
        }
      ],
      "stateMutability": "view",
      "type": "function"
    },
    {
      "inputs": [],
      "name": "getStaking",
      "outputs": [
        {
          "internalType": "contract IStaking",
          "name": "",
          "type": "address"
        }
      ],
      "stateMutability": "view",
      "type": "function"
    },
    {
      "inputs": [],
      "name": "getStakingPool",
      "outputs": [
        {
          "internalType": "contract IStakingPool",
          "name": "",
          "type": "address"
        }
      ],
      "stateMutability": "view",
      "type": "function"
    },
    {
      "inputs": [],
      "name": "getSystemReward",
      "outputs": [
        {
          "internalType": "contract ISystemReward",
          "name": "",
          "type": "address"
        }
      ],
      "stateMutability": "view",
      "type": "function"
    },
    {
      "inputs": [
        {
          "internalType": "address",
          "name": "owner",
          "type": "address"
        }
      ],
      "name": "getValidatorByOwner",
      "outputs": [
        {
          "internalType": "address",
          "name": "",
          "type": "address"
        }
      ],
      "stateMutability": "view",
      "type": "function"
    },
    {
      "inputs": [
        {
          "internalType": "address",
          "name": "validatorAddress",
          "type": "address"
        },
        {
          "internalType": "address",
          "name": "delegator",
          "type": "address"
        }
      ],
      "name": "getValidatorDelegation",
      "outputs": [
        {
          "internalType": "uint256",
          "name": "delegatedAmount",
          "type": "uint256"
        },
        {
          "internalType": "uint64",
          "name": "atEpoch",
          "type": "uint64"
        }
      ],
      "stateMutability": "view",
      "type": "function"
    },
    {
      "inputs": [
        {
          "internalType": "address",
          "name": "validatorAddress",
          "type": "address"
        }
      ],
      "name": "getValidatorFee",
      "outputs": [
        {
          "internalType": "uint256",
          "name": "",
          "type": "uint256"
        }
      ],
      "stateMutability": "view",
      "type": "function"
    },
    {
      "inputs": [
        {
          "internalType": "address",
          "name": "validatorAddress",
          "type": "address"
        }
      ],
      "name": "getValidatorStatus",
      "outputs": [
        {
          "internalType": "address",
          "name": "ownerAddress",
          "type": "address"
        },
        {
          "internalType": "uint8",
          "name": "status",
          "type": "uint8"
        },
        {
          "internalType": "uint256",
          "name": "totalDelegated",
          "type": "uint256"
        },
        {
          "internalType": "uint32",
          "name": "slashesCount",
          "type": "uint32"
        },
        {
          "internalType": "uint64",
          "name": "changedAt",
          "type": "uint64"
        },
        {
          "internalType": "uint64",
          "name": "jailedBefore",
          "type": "uint64"
        },
        {
          "internalType": "uint64",
          "name": "claimedAt",
          "type": "uint64"
        },
        {
          "internalType": "uint16",
          "name": "commissionRate",
          "type": "uint16"
        },
        {
          "internalType": "uint96",
          "name": "totalRewards",
          "type": "uint96"
        }
      ],
      "stateMutability": "view",
      "type": "function"
    },
    {
      "inputs": [
        {
          "internalType": "address",
          "name": "validatorAddress",
          "type": "address"
        },
        {
          "internalType": "uint64",
          "name": "epoch",
          "type": "uint64"
        }
      ],
      "name": "getValidatorStatusAtEpoch",
      "outputs": [
        {
          "internalType": "address",
          "name": "ownerAddress",
          "type": "address"
        },
        {
          "internalType": "uint8",
          "name": "status",
          "type": "uint8"
        },
        {
          "internalType": "uint256",
          "name": "totalDelegated",
          "type": "uint256"
        },
        {
          "internalType": "uint32",
          "name": "slashesCount",
          "type": "uint32"
        },
        {
          "internalType": "uint64",
          "name": "changedAt",
          "type": "uint64"
        },
        {
          "internalType": "uint64",
          "name": "jailedBefore",
          "type": "uint64"
        },
        {
          "internalType": "uint64",
          "name": "claimedAt",
          "type": "uint64"
        },
        {
          "internalType": "uint16",
          "name": "commissionRate",
          "type": "uint16"
        },
        {
          "internalType": "uint96",
          "name": "totalRewards",
          "type": "uint96"
        }
      ],
      "stateMutability": "view",
      "type": "function"
    },
    {
      "inputs": [],
      "name": "getValidators",
      "outputs": [
        {
          "internalType": "address[]",
          "name": "",
          "type": "address[]"
        }
      ],
      "stateMutability": "view",
      "type": "function"
    },
    {
      "inputs": [],
      "name": "init",
      "outputs": [],
      "stateMutability": "nonpayable",
      "type": "function"
    },
    {
      "inputs": [
        {
          "internalType": "contract IStaking",
          "name": "stakingContract",
          "type": "address"
        },
        {
          "internalType": "contract ISlashingIndicator",
          "name": "slashingIndicatorContract",
          "type": "address"
        },
        {
          "internalType": "contract ISystemReward",
          "name": "systemRewardContract",
          "type": "address"
        },
        {
          "internalType": "contract IStakingPool",
          "name": "stakingPoolContract",
          "type": "address"
        },
        {
          "internalType": "contract IGovernance",
          "name": "governanceContract",
          "type": "address"
        },
        {
          "internalType": "contract IChainConfig",
          "name": "chainConfigContract",
          "type": "address"
        },
        {
          "internalType": "contract IRuntimeUpgrade",
          "name": "runtimeUpgradeContract",
          "type": "address"
        },
        {
          "internalType": "contract IDeployerProxy",
          "name": "deployerProxyContract",
          "type": "address"
        }
      ],
      "name": "initManually",
      "outputs": [],
      "stateMutability": "nonpayable",
      "type": "function"
    },
    {
      "inputs": [],
      "name": "isInitialized",
      "outputs": [
        {
          "internalType": "bool",
          "name": "",
          "type": "bool"
        }
      ],
      "stateMutability": "view",
      "type": "function"
    },
    {
      "inputs": [
        {
          "internalType": "address",
          "name": "account",
          "type": "address"
        }
      ],
      "name": "isValidator",
      "outputs": [
        {
          "internalType": "bool",
          "name": "",
          "type": "bool"
        }
      ],
      "stateMutability": "view",
      "type": "function"
    },
    {
      "inputs": [
        {
          "internalType": "address",
          "name": "account",
          "type": "address"
        }
      ],
      "name": "isValidatorActive",
      "outputs": [
        {
          "internalType": "bool",
          "name": "",
          "type": "bool"
        }
      ],
      "stateMutability": "view",
      "type": "function"
    },
    {
      "inputs": [],
      "name": "nextEpoch",
      "outputs": [
        {
          "internalType": "uint64",
          "name": "",
          "type": "uint64"
        }
      ],
      "stateMutability": "view",
      "type": "function"
    },
    {
      "inputs": [
        {
          "internalType": "address",
          "name": "validatorAddress",
          "type": "address"
        },
        {
          "internalType": "uint16",
          "name": "commissionRate",
          "type": "uint16"
        }
      ],
      "name": "registerValidator",
      "outputs": [],
      "stateMutability": "payable",
      "type": "function"
    },
    {
      "inputs": [
        {
          "internalType": "address",
          "name": "validatorAddress",
          "type": "address"
        }
      ],
      "name": "releaseValidatorFromJail",
      "outputs": [],
      "stateMutability": "nonpayable",
      "type": "function"
    },
    {
      "inputs": [
        {
          "internalType": "address",
          "name": "validatorAddress",
          "type": "address"
        },
        {
          "internalType": "uint256",
          "name": "amount",
          "type": "uint256"
        }
      ],
      "name": "undelegate",
      "outputs": [],
      "stateMutability": "nonpayable",
      "type": "function"
    },
    {
      "inputs": [
        {
          "internalType": "address",
          "name": "account",
          "type": "address"
        }
      ],
      "name": "addValidator",
      "outputs": [],
      "stateMutability": "nonpayable",
      "type": "function"
    },
    {
      "inputs": [
        {
          "internalType": "address",
          "name": "account",
          "type": "address"
        }
      ],
      "name": "removeValidator",
      "outputs": [],
      "stateMutability": "nonpayable",
      "type": "function"
    },
    {
      "inputs": [
        {
          "internalType": "address",
          "name": "validator",
          "type": "address"
        }
      ],
      "name": "activateValidator",
      "outputs": [],
      "stateMutability": "nonpayable",
      "type": "function"
    },
    {
      "inputs": [
        {
          "internalType": "address",
          "name": "validator",
          "type": "address"
        }
      ],
      "name": "disableValidator",
      "outputs": [],
      "stateMutability": "nonpayable",
      "type": "function"
    },
    {
      "inputs": [
        {
          "internalType": "address",
          "name": "validatorAddress",
          "type": "address"
        }
      ],
      "name": "deposit",
      "outputs": [],
      "stateMutability": "payable",
      "type": "function"
    },
    {
      "inputs": [
        {
          "internalType": "address",
          "name": "validatorAddress",
          "type": "address"
        }
      ],
      "name": "slash",
      "outputs": [],
      "stateMutability": "nonpayable",
      "type": "function"
    }
  ],
  "bytecode": "0x60806040523480156200001157600080fd5b5060405162005d3938038062005d39833981016040819052620000349162000113565b8051819081906200004d90600190602084019062000057565b505050506200022c565b8280546200006590620001ef565b90600052602060002090601f016020900481019282620000895760008555620000d4565b82601f10620000a457805160ff1916838001178555620000d4565b82800160010185558215620000d4579182015b82811115620000d4578251825591602001919060010190620000b7565b50620000e2929150620000e6565b5090565b5b80821115620000e25760008155600101620000e7565b634e487b7160e01b600052604160045260246000fd5b600060208083850312156200012757600080fd5b82516001600160401b03808211156200013f57600080fd5b818501915085601f8301126200015457600080fd5b815181811115620001695762000169620000fd565b604051601f8201601f19908116603f01168101908382118183101715620001945762000194620000fd565b816040528281528886848701011115620001ad57600080fd5b600093505b82841015620001d15784840186015181850187015292850192620001b2565b82841115620001e35760008684830101525b98975050505050505050565b600181811c908216806200020457607f821691505b602082108114156200022657634e487b7160e01b600052602260045260246000fd5b50919050565b615afd806200023c6000396000f3fe60806040526004361061022f5760003560e01c806361cadbf41161012e578063c15f28c4116100ab578063e1c7392a1161006f578063e1c7392a14610722578063f340fa0114610737578063facd743b1461074a578063fe38ebef1461076a578063ff4794fc1461078a57600080fd5b8063c15f28c414610665578063c2fd58fc14610685578063c6fb9065146106a5578063c96be4cb146106c5578063d951e186146106e557600080fd5b8063a310624f116100f2578063a310624f146105ce578063adf2a79c146105ee578063aea0e78b1461060e578063b46e552014610623578063b7ab4db51461064357600080fd5b806361cadbf41461053257806373a3dda61461054557806376671808146105655780637a37cc59146105925780637b1391a6146105b057600080fd5b8063426594b1116101bc5780634d238c8e116101805780634d238c8e146104a15780634d99dd16146104c157806352b7bea2146104e15780635c19a95c14610501578063606c0c941461051457600080fd5b8063426594b11461038857806342ad55ac146103a8578063457179fd146103c857806345946334146103f657806348124d261461041457600080fd5b8063289b3c0d11610203578063289b3c0d146102cd57806330108c22146102eb578063392e53cd146103245780633e1bbdc91461034857806340a141ff1461036857600080fd5b806252c9e11461023457806314f8649f146102565780631fe9768414610276578063244d825714610296575b600080fd5b34801561024057600080fd5b5061025461024f3660046153fb565b6107aa565b005b34801561026257600080fd5b5061025461027136600461544b565b610a87565b34801561028257600080fd5b50610254610291366004615480565b610d52565b3480156102a257600080fd5b506003546001600160a01b03165b6040516001600160a01b0390911681526020015b60405180910390f35b3480156102d957600080fd5b506006546001600160a01b03166102b0565b3480156102f757600080fd5b506102b0610306366004615480565b6001600160a01b039081166000908152606560205260409020541690565b34801561033057600080fd5b5060005460ff165b60405190151581526020016102c4565b34801561035457600080fd5b5061025461036336600461549d565b610d5e565b34801561037457600080fd5b50610254610383366004615480565b610e1a565b34801561039457600080fd5b506102546103a3366004615480565b610e23565b3480156103b457600080fd5b506103386103c3366004615480565b610e90565b3480156103d457600080fd5b506103e86103e3366004615480565b610f49565b6040519081526020016102c4565b34801561040257600080fd5b506005546001600160a01b03166102b0565b34801561042057600080fd5b5061043461042f366004615546565b611033565b604080516001600160a01b03909a168a5260ff90981660208a01529688019590955263ffffffff90931660608701526001600160401b039182166080870152811660a08601521660c084015261ffff1660e08301526001600160601b0316610100820152610120016102c4565b3480156104ad57600080fd5b506102546104bc366004615480565b61118c565b3480156104cd57600080fd5b506102546104dc366004615580565b6111a3565b3480156104ed57600080fd5b506103e86104fc3660046153fb565b6111ae565b61025461050f366004615480565b6111cb565b34801561052057600080fd5b506007546001600160a01b03166102b0565b61025461054036600461544b565b6111d6565b34801561055157600080fd5b50610254610560366004615480565b6112de565b34801561057157600080fd5b5061057a6115c3565b6040516001600160401b0390911681526020016102c4565b34801561059e57600080fd5b506004546001600160a01b03166102b0565b3480156105bc57600080fd5b506002546001600160a01b03166102b0565b3480156105da57600080fd5b506104346105e9366004615480565b6115d2565b3480156105fa57600080fd5b50610254610609366004615546565b61179a565b34801561061a57600080fd5b5061057a61184d565b34801561062f57600080fd5b5061025461063e366004615480565b611857565b34801561064f57600080fd5b50610658611860565b6040516102c491906155ac565b34801561067157600080fd5b5061025461068036600461563d565b61186a565b34801561069157600080fd5b506103e86106a03660046153fb565b611932565b3480156106b157600080fd5b506103e86106c0366004615480565b611941565b3480156106d157600080fd5b506102546106e0366004615480565b611a1f565b3480156106f157600080fd5b506107056107003660046153fb565b611a28565b604080519283526001600160401b039091166020830152016102c4565b34801561072e57600080fd5b50610254611be8565b610254610745366004615480565b611c8e565b34801561075657600080fd5b50610338610765366004615480565b611c97565b34801561077657600080fd5b50610254610785366004615546565b611cd9565b34801561079657600080fd5b506102546107a5366004615480565b611d61565b6001600160a01b038281166000908152606460209081526040808320815160c081018352815486168152600182015495861693810193909352929391929190830190600160a01b900460ff166003811115610807576108076156bd565b6003811115610818576108186156bd565b815260018201546001600160401b03600160a81b90910481166020808401919091526002909301548082166040840152600160401b9004166060909101528101519091506001600160a01b0316331461088c5760405162461bcd60e51b8152600401610883906156d3565b60405180910390fd5b6001600160a01b0382811660009081526065602052604090205416156108f45760405162461bcd60e51b815260206004820152601d60248201527f5374616b696e673a206f776e657220616c726561647920696e207573650000006044820152606401610883565b602081810180516001600160a01b0390811660009081526065808552604080832080546001600160a01b03199081169091558885168087528452918652808320805483168a8616908117909155835260649095529084902085518154831690841617815592516001840180549283169190931690811783559385015185949092916001600160a81b03191617600160a01b836003811115610997576109976156bd565b0217905550606082015160018201805467ffffffffffffffff60a81b1916600160a81b6001600160401b039384160217905560808301516002909201805460a0909401519282166001600160801b031990941693909317600160401b92909116919091021790556000610a1182610a0c611df5565b611e0a565b905081600001516001600160a01b03167fc00107e0d011ac7c8e4dfa18e3dd3623ff151f8bfcc3821cd39bc114bd6504d9836020015184604001516003811115610a5d57610a5d6156bd565b8454604051610a79939291600160f01b900461ffff169061570a565b60405180910390a250505050565b610bb861ffff82161115610add5760405162461bcd60e51b815260206004820152601c60248201527f5374616b696e673a2062616420636f6d6d697373696f6e2072617465000000006044820152606401610883565b6001600160a01b038281166000908152606460209081526040808320815160c081018352815486168152600182015495861693810193909352929391929190830190600160a01b900460ff166003811115610b3a57610b3a6156bd565b6003811115610b4b57610b4b6156bd565b815260018201546001600160401b03600160a81b909104811660208301526002909201548083166040830152600160401b90049091166060909101529050600081604001516003811115610ba157610ba16156bd565b1415610bbf5760405162461bcd60e51b815260040161088390615732565b60208101516001600160a01b03163314610beb5760405162461bcd60e51b8152600401610883906156d3565b6000610bf982610a0c611df5565b805461ffff8516600160f01b026001600160f01b039091161781556001600160a01b03808616600090815260646020908152604091829020865181549085166001600160a01b03199182161782559187015160018201805491909516928116831785559287015194955086949093909290916001600160a81b031990911617600160a01b836003811115610c8f57610c8f6156bd565b0217905550606082015160018201805467ffffffffffffffff60a81b1916600160a81b6001600160401b039384160217905560808301516002909201805460a0909401519282166001600160801b031990941693909317600160401b92909116919091021790558151602083015160408401516001600160a01b03909216917fc00107e0d011ac7c8e4dfa18e3dd3623ff151f8bfcc3821cd39bc114bd6504d991906003811115610d4257610d426156bd565b86604051610a799392919061570a565b610d5b81611f43565b50565b60005460ff1615610d815760405162461bcd60e51b815260040161088390615769565b600280546001600160a01b03199081166001600160a01b038b8116919091179092556003805482168a841617905560048054821689841617905560058054821688841617905560068054821687841617905560078054821686841617905560088054821685841617905560098054909116918316919091179055610e036121f7565b50506000805460ff19166001179055505050505050565b610d5b816122e9565b6001600160a01b0381166000908152606460205260408120906001820154600160a01b900460ff166003811115610e5c57610e5c6156bd565b1415610e7a5760405162461bcd60e51b815260040161088390615732565b610e8c8233610e87612468565b6124f1565b5050565b600060016001600160a01b038316600090815260646020526040902060010154600160a01b900460ff166003811115610ecb57610ecb6156bd565b14610ed857506000919050565b6000610ee26129b6565b905060005b8151811015610f3f57836001600160a01b0316828281518110610f0c57610f0c6157a0565b60200260200101516001600160a01b03161415610f2d575060019392505050565b80610f37816157cc565b915050610ee7565b5060009392505050565b6001600160a01b038181166000908152606460209081526040808320815160c0810183528154861681526001820154958616938101939093529293849391830190600160a01b900460ff166003811115610fa557610fa56156bd565b6003811115610fb657610fb66156bd565b815260018201546001600160401b03600160a81b909104811660208301526002909201548083166040830152600160401b9004909116606090910152905060008160400151600381111561100c5761100c6156bd565b141561101b5750600092915050565b61102c81611027612468565b612db2565b9392505050565b6001600160a01b038281166000908152606460209081526040808320815160c081018352815486168152600182015495861693810193909352929384938493849384938493849384938493849391830190600160a01b900460ff16600381111561109f5761109f6156bd565b60038111156110b0576110b06156bd565b815260018201546001600160401b03600160a81b909104811660208301526002909201548083166040830152600160401b9004909116606090910152905060006110fa828d612e97565b905081602001519a508a8260400151600381111561111a5761111a6156bd565b9a508a6402540be40083602001516001600160701b031661113b91906157e7565b9a508a83604001519a508a85606001519a508a86608001519a508a8760a001519a508a87606001519a508a88600001519a509a509a509a509a509a509a509a509a5050509295985092959850929598565b610d5b8182600160008061119e611df5565b612fe2565b610e8c3383836135b3565b60006111c283836111bd612468565b613ca8565b90505b92915050565b610d5b3382346140de565b60075460408051636f85684760e01b8152905134926001600160a01b031691636f8568479160048083019260209291908290030181865afa15801561121f573d6000803e3d6000fd5b505050506040513d601f19601f820116820180604052508101906112439190615806565b81101561129c5760405162461bcd60e51b815260206004820152602160248201527f5374616b696e673a20696e697469616c207374616b6520697320746f6f206c6f6044820152607760f81b6064820152608401610883565b6112ab6402540be40082615835565b156112c85760405162461bcd60e51b815260040161088390615849565b6112d983336002858561119e611df5565b505050565b6001600160a01b038181166000908152606460209081526040808320815160c081018352815486168152600182015495861693810193909352929391929190830190600160a01b900460ff16600381111561133b5761133b6156bd565b600381111561134c5761134c6156bd565b815260018201546001600160401b03600160a81b909104811660208301526002909201548083166040830152600160401b900490911660609091015290506003816040015160038111156113a2576113a26156bd565b146113ef5760405162461bcd60e51b815260206004820152601e60248201527f5374616b696e673a2076616c696461746f72206e6f7420696e206a61696c00006044820152606401610883565b80602001516001600160a01b0316336001600160a01b0316146114245760405162461bcd60e51b8152600401610883906156d3565b80608001516001600160401b031661143a612468565b6001600160401b0316101561148a5760405162461bcd60e51b815260206004820152601660248201527514dd185ada5b99ce881cdd1a5b1b081a5b881a985a5b60521b6044820152606401610883565b600160408201819052506001600160a01b03808316600090815260646020908152604091829020845181549085166001600160a01b0319918216178255918501516001820180549190951692811683178555928501518594919390926001600160a81b031990911617600160a01b83600381111561150a5761150a6156bd565b021790555060608201516001828101805467ffffffffffffffff60a81b1916600160a81b6001600160401b039485160217905560808401516002909301805460a0909501519383166001600160801b031990951694909417600160401b9390921692909202179091556066805491820181556000527f46501879b8ca8525e8c2fd519e2fbfcfa2ebea26501294aa02cbfcfb12e943540180546001600160a01b0319166001600160a01b03939093169290921790915550565b60006115cd612468565b905090565b6001600160a01b038181166000908152606460209081526040808320815160c081018352815486168152600182015495861693810193909352929384938493849384938493849384938493849391830190600160a01b900460ff16600381111561163e5761163e6156bd565b600381111561164f5761164f6156bd565b81526001820154600160a81b90046001600160401b03908116602080840191909152600290930154808216604080850191909152600160401b909104821660609384015284516001600160a01b031660009081526068855281812086850151909316815291845290819020815160808101835290546001600160601b0381168252600160601b81046001600160701b031682860152600160d01b810463ffffffff1682840152600160f01b900461ffff16928101929092529183015191830151919c509192508b906003811115611728576117286156bd565b9a508a6402540be40083602001516001600160701b031661174991906157e7565b9a508a83604001519a508a85606001519a508a86608001519a508a8760a001519a508a87606001519a508a88600001519a509a509a509a509a509a509a509a509a5050509193959799909294969850565b6001600160a01b0382166000908152606460205260408120906001820154600160a01b900460ff1660038111156117d3576117d36156bd565b14156117f15760405162461bcd60e51b815260040161088390615732565b60018101546001600160a01b0316331461181d5760405162461bcd60e51b8152600401610883906156d3565b611825612468565b6001600160401b0316826001600160401b0316111561184357600080fd5b6112d98183614622565b60006115cd611df5565b610d5b816147cd565b60606115cd6129b6565b60005460ff161561188d5760405162461bcd60e51b815260040161088390615769565b81841461189957600080fd5b60005b8481101561192a576119188686838181106118b9576118b96157a0565b90506020020160208101906118ce9190615480565b8787848181106118e0576118e06157a0565b90506020020160208101906118f59190615480565b60018588888781811061190a5761190a6157a0565b905060200201356000612fe2565b80611922816157cc565b91505061189c565b505050505050565b60006111c283836111bd611df5565b6001600160a01b038181166000908152606460209081526040808320815160c0810183528154861681526001820154958616938101939093529293849391830190600160a01b900460ff16600381111561199d5761199d6156bd565b60038111156119ae576119ae6156bd565b815260018201546001600160401b03600160a81b909104811660208301526002909201548083166040830152600160401b90049091166060909101529050600081604001516003811115611a0457611a046156bd565b1415611a135750600092915050565b61102c81611027611df5565b610d5b81614952565b6001600160a01b03808316600090815260676020908152604080832093851683529281528282208351815460a0938102820184019095526080810185815293948594859492939284928491879085015b82821015611ac757600084815260209081902060408051808201909152908401546001600160701b0381168252600160701b90046001600160401b031681830152825260019092019101611a78565b5050509082525060018201546001600160401b0316602080830191909152600283018054604080518285028101850182528281529401939260009084015b82821015611b5457600084815260209081902060408051808201909152908401546001600160701b0381168252600160701b90046001600160401b031681830152825260019092019101611b05565b50505090825250600391909101546001600160401b0316602090910152805151909150611b88575060009150819050611be1565b8051805160009190611b9c9060019061587e565b81518110611bac57611bac6157a0565b602002602001015190506402540be40081600001516001600160701b0316611bd491906157e7565b6020909101519093509150505b9250929050565b60005460ff1615611c0b5760405162461bcd60e51b815260040161088390615769565b600280546001600160a01b03199081166110001790915560038054821661100117905560048054821661100217905560058054821661700117905560068054821661700217905560078054821661700317905560088054821661700417905560098054909116617005179055611c7f6121f7565b6000805460ff19166001179055565b610d5b81614e07565b6000806001600160a01b038316600090815260646020526040902060010154600160a01b900460ff166003811115611cd157611cd16156bd565b141592915050565b6001600160a01b0382166000908152606460205260408120906001820154600160a01b900460ff166003811115611d1257611d126156bd565b1415611d305760405162461bcd60e51b815260040161088390615732565b611d38612468565b6001600160401b0316826001600160401b03161115611d5657600080fd5b6112d98333846124f1565b6001600160a01b0381166000908152606460205260408120906001820154600160a01b900460ff166003811115611d9a57611d9a6156bd565b1415611db85760405162461bcd60e51b815260040161088390615732565b60018101546001600160a01b03163314611de45760405162461bcd60e51b8152600401610883906156d3565b610e8c81611df0612468565b614622565b6000611dff612468565b6115cd906001615895565b81516001600160a01b031660009081526068602090815260408083206001600160401b038516845290915281208054600160601b90046001600160701b031615611e555790506111c5565b83516001600160a01b03166000908152606860209081526040808320606080890180516001600160401b03908116875292855294839020835160808101855290546001600160601b0381168252600160601b8082046001600160701b0316968301879052600160d01b820463ffffffff1695830195909552600160f01b9081900461ffff1692820183905287547dffffffff0000000000000000000000000000ffffffffffffffffffffffff16959094026001600160f01b0316949094179202919091178455915190919081169085161115611f3b576001600160401b03841660608601525b509392505050565b6001600160a01b038181166000908152606460209081526040808320815160c081018352815486168152600182015495861693810193909352929391929190830190600160a01b900460ff166003811115611fa057611fa06156bd565b6003811115611fb157611fb16156bd565b81526001828101546001600160401b03600160a81b909104811660208401526002909301548084166040840152600160401b90049092166060909101529091506001600160a01b038316600090815260646020526040902060010154600160a01b900460ff166003811115612028576120286156bd565b146120755760405162461bcd60e51b815260206004820152601d60248201527f5374616b696e673a206e6f74206163746976652076616c696461746f720000006044820152606401610883565b61207e82614f90565b6040810160025b90816003811115612098576120986156bd565b9052506001600160a01b03808316600090815260646020908152604091829020845181549085166001600160a01b0319918216178255918501516001820180549190951692811683178555928501518594919390926001600160a81b031990911617600160a01b836003811115612111576121116156bd565b0217905550606082015160018201805467ffffffffffffffff60a81b1916600160a81b6001600160401b039384160217905560808301516002909201805460a0909401519282166001600160801b031990941693909317600160401b9290911691909102179055600061218682610a0c611df5565b9050826001600160a01b03167fc00107e0d011ac7c8e4dfa18e3dd3623ff151f8bfcc3821cd39bc114bd6504d98360200151846040015160038111156121ce576121ce6156bd565b84546040516121ea939291600160f01b900461ffff169061570a565b60405180910390a2505050565b60018054612204906158c0565b1515905061220e57565b600080306001600160a01b0316600160405161222a91906158fb565b6000604051808303816000865af19150503d8060008114612267576040519150601f19603f3d011682016040523d82523d6000602084013e61226c565b606091505b5091509150811561227b575050565b80516122e05760405162461bcd60e51b815260206004820152602e60248201527f496e6a6563746f723a20636f6e737472756374696f6e206661696c656420772f60448201526d103ab735b737bbb71032b93937b960911b6064820152608401610883565b80518082602001fd5b6001600160a01b038181166000908152606460209081526040808320815160c081018352815486168152600182015495861693810193909352929391929190830190600160a01b900460ff166003811115612346576123466156bd565b6003811115612357576123576156bd565b815260018201546001600160401b03600160a81b909104811660208301526002909201548083166040830152600160401b900490911660609091015290506000816040015160038111156123ad576123ad6156bd565b14156123cb5760405162461bcd60e51b815260040161088390615732565b6123d482614f90565b6020808201516001600160a01b03908116600090815260658352604080822080546001600160a01b03199081169091559286168083526064909452808220805490931683556001830180546001600160e81b0319169055600290920180546001600160801b031916905590517fe1434e25d6611e0db941968fdc97811c982ac1602e951637d206f5fdda9dd8f19190a25050565b6007546040805163068d921560e31b815290516000926001600160a01b03169163346c90a89160048083019260209291908290030181865afa1580156124b2573d6000803e3d6000fd5b505050506040513d601f19601f820116820180604052508101906124d69190615997565b6124e69063ffffffff16436159bd565b6115cd9060006159d1565b6001600160a01b0380841660009081526067602090815260408083209386168352929052908120600181015481549192916001600160401b03909116905b80826001600160401b0316101561281357600084600001836001600160401b031681548110612560576125606157a0565b6000918252602091829020604080518082019091529101546001600160701b03811682526001600160401b03600160701b90910481169282018390529092508716116125ac5750612813565b60006125b960018461587e565b846001600160401b0316101561260d57856125d5856001615895565b6001600160401b0316815481106125ee576125ee6157a0565b600091825260209091200154600160701b90046001600160401b031690505b866001600160401b031682602001516001600160401b0316108015612646575080158061264657508082602001516001600160401b0316105b15612746576001600160a01b0389166000908152606860209081526040808320858301516001600160401b03168452825291829020825160808101845290546001600160601b0381168252600160601b81046001600160701b0316928201839052600160d01b810463ffffffff1693820193909352600160f01b90920461ffff1660608301526126d65750612725565b60006126e1826150d6565b5050905081602001516001600160701b031684600001516001600160701b03168261270c91906157e7565b61271691906159bd565b61272090886159d1565b965050505b60208201805190612735826159e9565b6001600160401b031690525061260d565b61275160018461587e565b846001600160401b0316106127ca578186600001856001600160401b03168154811061277f5761277f6157a0565b600091825260209182902083519101805493909201516001600160401b0316600160701b026001600160b01b03199093166001600160701b0390911617919091179055506128139050565b85600001846001600160401b0316815481106127e8576127e86157a0565b600091825260209091200180546001600160b01b031916905561280a846159e9565b9350505061252f565b5060018301805467ffffffffffffffff19166001600160401b0383811691909117909155600384015460028501549116905b80826001600160401b0316101561293257600085600201836001600160401b031681548110612876576128766157a0565b6000918252602091829020604080518082019091529101546001600160701b03811682526001600160401b03600160701b9091048116928201839052909250881610156128c35750612932565b80516128de906402540be400906001600160701b03166157e7565b6128e890866159d1565b945085600201836001600160401b031681548110612908576129086157a0565b600091825260209091200180546001600160b01b031916905561292a836159e9565b925050612845565b5060038401805467ffffffffffffffff19166001600160401b03831617905561295b86846151fe565b604080518481526001600160401b03871660208201526001600160a01b0380891692908a16917fb22dec804803f8b1c5333f626cdbfdfb1bd629f1e1bb45dcfb22b5f74ed46b1c91015b60405180910390a350505050505050565b6066546060906000816001600160401b038111156129d6576129d6615a10565b6040519080825280602002602001820160405280156129ff578160200160208202803683370190505b50905060005b82811015612a7a5760668181548110612a2057612a206157a0565b9060005260206000200160009054906101000a90046001600160a01b0316828281518110612a5057612a506157a0565b6001600160a01b039092166020928302919091019091015280612a72816157cc565b915050612a05565b50600754604080516306598de160e31b815290516000926001600160a01b0316916332cc6f089160048083019260209291908290030181865afa158015612ac5573d6000803e3d6000fd5b505050506040513d601f19601f82011682018060405250810190612ae99190615997565b63ffffffff16905082811115612afc5750815b60005b81811015612da9576000819050600060646000868481518110612b2457612b246157a0565b6020908102919091018101516001600160a01b039081168352828201939093526040918201600020825160c08101845281548516815260018201549485169281019290925290929091830190600160a01b900460ff166003811115612b8b57612b8b6156bd565b6003811115612b9c57612b9c6156bd565b81526001828101546001600160401b03600160a81b909104811660208401526002909301548084166040840152600160401b9004909216606090910152909150600090612bea9085906159d1565b90505b86811015612cf557600060646000888481518110612c0d57612c0d6157a0565b6020908102919091018101516001600160a01b039081168352828201939093526040918201600020825160c08101845281548516815260018201549485169281019290925290929091830190600160a01b900460ff166003811115612c7457612c746156bd565b6003811115612c8557612c856156bd565b815260018201546001600160401b03600160a81b909104811660208301526002909201548083166040830152600160401b90049091166060909101529050612ccc816152a4565b612cd5846152a4565b1015612ce2578193508092505b5080612ced816157cc565b915050612bed565b506000858481518110612d0a57612d0a6157a0565b60200260200101519050858381518110612d2657612d266157a0565b6020026020010151868581518110612d4057612d406157a0565b60200260200101906001600160a01b031690816001600160a01b03168152505080868481518110612d7357612d736157a0565b60200260200101906001600160a01b031690816001600160a01b0316815250505050508080612da1906157cc565b915050612aff565b50815292915050565b6000805b826001600160401b03168460a001516001600160401b031610156111c25783516001600160a01b0316600090815260686020908152604080832060a08801516001600160401b031684528252808320815160808101835290546001600160601b0381168252600160601b81046001600160701b031693820193909352600160d01b830463ffffffff1691810191909152600160f01b90910461ffff16606082015290612e61826150d6565b509150612e70905081846159d1565b925050508360a0018051809190612e86906159e9565b6001600160401b0316905250612db6565b60408051608081018252600080825260208201819052918101829052606081019190915282516001600160a01b031660009081526068602090815260408083206001600160401b0386168452825291829020825160808101845290546001600160601b0381168252600160601b81046001600160701b0316928201839052600160d01b810463ffffffff1693820193909352600160f01b90920461ffff16606083015215612f465790506111c5565b83516001600160a01b031660009081526068602090815260408083206060808901516001600160401b0316855290835292819020815160808101835290546001600160601b03811682526001600160701b03600160601b82041682850181905263ffffffff600160d01b8304169383019390935261ffff600160f01b909104811691850191825292850191909152511690820152905092915050565b610bb861ffff841611156130385760405162461bcd60e51b815260206004820152601c60248201527f5374616b696e673a2062616420636f6d6d697373696f6e2072617465000000006044820152606401610883565b6001600160a01b038681166000908152606460209081526040808320815160c081018352815486168152600182015495861693810193909352929391929190830190600160a01b900460ff166003811115613095576130956156bd565b60038111156130a6576130a66156bd565b815260018201546001600160401b03600160a81b909104811660208301526002909201548083166040830152600160401b9004909116606090910152905060006001600160a01b038816600090815260646020526040902060010154600160a01b900460ff16600381111561311d5761311d6156bd565b1461316a5760405162461bcd60e51b815260206004820181905260248201527f5374616b696e673a2076616c696461746f7220616c72656164792065786973746044820152606401610883565b6001600160a01b0380881682528616602082015260408101856003811115613194576131946156bd565b908160038111156131a7576131a76156bd565b9052506001600160401b03821660608201526001600160a01b03808816600090815260646020908152604091829020845181549085166001600160a01b0319918216178255918501516001820180549190951692811683178555928501518594919390926001600160a81b031990911617600160a01b83600381111561322f5761322f6156bd565b0217905550606082015160018201805467ffffffffffffffff60a81b1916600160a81b6001600160401b039384160217905560808301516002909201805460a0909401519282166001600160801b031990941693909317600160401b92909116919091021790556001600160a01b0386811660009081526065602052604090205416156132fe5760405162461bcd60e51b815260206004820152601d60248201527f5374616b696e673a206f776e657220616c726561647920696e207573650000006044820152606401610883565b6001600160a01b03868116600090815260656020526040902080546001600160a01b0319169189169190911790556001856003811115613340576133406156bd565b141561339257606680546001810182556000919091527f46501879b8ca8525e8c2fd519e2fbfcfa2ebea26501294aa02cbfcfb12e943540180546001600160a01b0319166001600160a01b0389161790555b604080516080810190915260008152602081016133b46402540be400866159bd565b6001600160701b0390811682526000602080840182905261ffff808a166040958601526001600160a01b03808e16808552606884528685206001600160401b038b1686528452868520885181548a8701518b8b01516060909c0151909616600160f01b026001600160f01b0363ffffffff9c909c16600160d01b029b909b166001600160d01b0396909916600160601b026001600160d01b03199091166001600160601b039092169190911717939093169590951796909617905591815260678252828120938a16815292905290208054156134e15760405162461bcd60e51b815260206004820152602660248201527f5374616b696e673a2064656c65676174696f6e207175657565206973206e6f7460448201526520656d70747960d01b6064820152608401610883565b604080518082019091528190806134fd6402540be400886159bd565b6001600160701b0390811682526001600160401b038088166020938401528454600181018655600095865294839020845195018054949093015116600160701b026001600160b01b03199093169316929092171790556001600160a01b0388167f42449fd19d367b0177da9082fe6da7d4da41af7573e3a3c1750ecffeffe26f9d88886003811115613591576135916156bd565b886040516135a19392919061570a565b60405180910390a25050505050505050565b600760009054906101000a90046001600160a01b03166001600160a01b031663eea9a01b6040518163ffffffff1660e01b8152600401602060405180830381865afa158015613606573d6000803e3d6000fd5b505050506040513d601f19601f8201168201806040525081019061362a9190615806565b811015801561363857508015155b6136845760405162461bcd60e51b815260206004820152601a60248201527f5374616b696e673a20616d6f756e7420697320746f6f206c6f770000000000006044820152606401610883565b6136936402540be40082615835565b156136b05760405162461bcd60e51b815260040161088390615849565b6001600160a01b038281166000908152606460209081526040808320815160c081018352815486168152600182015495861693810193909352929391929190830190600160a01b900460ff16600381111561370d5761370d6156bd565b600381111561371e5761371e6156bd565b815260018201546001600160401b03600160a81b909104811660208301526002909201548083166040830152600160401b90049091166060909101529050600081604001516003811115613774576137746156bd565b14156137925760405162461bcd60e51b815260040161088390615732565b600061379c611df5565b905060006137aa8383611e0a565b90506137bb6402540be400856159bd565b81546001600160701b03918216600160601b90910490911610156138215760405162461bcd60e51b815260206004820152601d60248201527f5374616b696e673a20696e73756666696369656e742062616c616e63650000006044820152606401610883565b6138306402540be400856159bd565b81548290600c90613852908490600160601b90046001600160701b0316615a26565b82546001600160701b039182166101009390930a9283029190920219909116179055506001600160a01b03808616600090815260646020908152604091829020865181549085166001600160a01b0319918216178255918701516001820180549190951692811683178555928701518794919390926001600160a81b031990911617600160a01b8360038111156138eb576138eb6156bd565b0217905550606082015160018201805467ffffffffffffffff60a81b1916600160a81b6001600160401b039384160217905560808301516002909201805460a0909401519282166001600160801b031990941693909317600160401b92909116919091021790556001600160a01b038581166000908152606760209081526040808320938a1683529290522080546139d05760405162461bcd60e51b815260206004820152602260248201527f5374616b696e673a2064656c65676174696f6e20717565756520697320656d70604482015261747960f01b6064820152608401610883565b805460009082906139e39060019061587e565b815481106139f3576139f36157a0565b9060005260206000200190506402540be40086613a1091906159bd565b81546001600160401b03919091166001600160701b039091161015613a775760405162461bcd60e51b815260206004820152601d60248201527f5374616b696e673a20696e73756666696369656e742062616c616e63650000006044820152606401610883565b6000613a886402540be400886159bd565b8254613a9d91906001600160701b0316615a26565b82549091506001600160401b03808716600160701b9092041610613ae05781546dffffffffffffffffffffffffffff19166001600160701b038216178255613b44565b604080518082019091526001600160701b0380831682526001600160401b03808816602080850191825287546001810189556000898152919091209451940180549151909216600160701b026001600160b01b031990911693909216929092171790555b8260020160405180604001604052806402540be4008a613b6491906159bd565b6001600160701b0316815260075460408051635e7b72ad60e01b815290516020938401936001600160a01b0390931692635e7b72ad92600480820193918290030181865afa158015613bba573d6000803e3d6000fd5b505050506040513d601f19601f82011682018060405250810190613bde9190615997565b613bee9063ffffffff1689615895565b6001600160401b03908116909152825460018101845560009384526020938490208351910180549490930151909116600160701b026001600160b01b03199093166001600160701b03909116179190911790556040516001600160a01b03808b1691908a16907fa410e32157a44414a502bb47d775234de1aa7da123f5adfe426898f1601883fd90613c95908b908a909182526001600160401b0316602082015260400190565b60405180910390a3505050505050505050565b6001600160a01b03808416600090815260676020908152604080832093861683529281528282208351815460a093810282018401909552608081018581529394859491938492918491879085015b82821015613d4557600084815260209081902060408051808201909152908401546001600160701b0381168252600160701b90046001600160401b031681830152825260019092019101613cf6565b5050509082525060018201546001600160401b0316602080830191909152600283018054604080518285028101850182528281529401939260009084015b82821015613dd257600084815260209081902060408051808201909152908401546001600160701b0381168252600160701b90046001600160401b031681830152825260019092019101613d83565b50505090825250600391909101546001600160401b0316602090910152905060005b81515160208301516001600160401b03161015614021576000826000015183602001516001600160401b031681518110613e3057613e306157a0565b60200260200101519050846001600160401b031681602001516001600160401b031610613e5d5750614021565b825151600090613e6f9060019061587e565b84602001516001600160401b03161015613ec65783516020850151613e95906001615895565b6001600160401b031681518110613eae57613eae6157a0565b6020026020010151602001516001600160401b031690505b856001600160401b031682602001516001600160401b0316108015613eff5750801580613eff57508082602001516001600160401b0316105b15613fff576001600160a01b0388166000908152606860209081526040808320858301516001600160401b03168452825291829020825160808101845290546001600160601b0381168252600160601b81046001600160701b0316928201839052600160d01b810463ffffffff1693820193909352600160f01b90920461ffff166060830152613f8f5750613fde565b6000613f9a826150d6565b5050905081602001516001600160701b031684600001516001600160701b031682613fc591906157e7565b613fcf91906159bd565b613fd990866159d1565b945050505b60208201805190613fee826159e9565b6001600160401b0316905250613ec6565b83602001805161400e906159e9565b6001600160401b0316905250613df49050565b81604001515182606001516001600160401b031610156140d5576000826040015183606001516001600160401b031681518110614060576140606157a0565b60200260200101519050846001600160401b031681602001516001600160401b0316111561408e57506140d5565b80516140a9906402540be400906001600160701b03166157e7565b6140b390836159d1565b91508260600180516140c4906159e9565b6001600160401b0316905250614021565b95945050505050565b600760009054906101000a90046001600160a01b03166001600160a01b031663eea9a01b6040518163ffffffff1660e01b8152600401602060405180830381865afa158015614131573d6000803e3d6000fd5b505050506040513d601f19601f820116820180604052508101906141559190615806565b811015801561416357508015155b6141af5760405162461bcd60e51b815260206004820152601a60248201527f5374616b696e673a20616d6f756e7420697320746f6f206c6f770000000000006044820152606401610883565b6141be6402540be40082615835565b156141db5760405162461bcd60e51b815260040161088390615849565b6001600160a01b038281166000908152606460209081526040808320815160c081018352815486168152600182015495861693810193909352929391929190830190600160a01b900460ff166003811115614238576142386156bd565b6003811115614249576142496156bd565b815260018201546001600160401b03600160a81b909104811660208301526002909201548083166040830152600160401b9004909116606090910152905060008160400151600381111561429f5761429f6156bd565b14156142bd5760405162461bcd60e51b815260040161088390615732565b60006142c7611df5565b905060006142d58383611e0a565b90506142e66402540be400856159bd565b81548290600c90614308908490600160601b90046001600160701b0316615a4e565b82546001600160701b039182166101009390930a9283029190920219909116179055506001600160a01b03808616600090815260646020908152604091829020865181549085166001600160a01b0319918216178255918701516001820180549190951692811683178555928701518794919390926001600160a81b031990911617600160a01b8360038111156143a1576143a16156bd565b0217905550606082015160018201805467ffffffffffffffff60a81b1916600160a81b6001600160401b039384160217905560808301516002909201805460a0909401519282166001600160801b031990941693909317600160401b92909116919091021790556001600160a01b038581166000908152606760209081526040808320938a1683529290522080541561456157805460009082906144479060019061587e565b81548110614457576144576157a0565b600091825260209091200180549091506001600160401b03808616600160701b90920416106144d35761448f6402540be400876159bd565b815482906000906144aa9084906001600160701b0316615a4e565b92506101000a8154816001600160701b0302191690836001600160701b0316021790555061455b565b604080518082019091528290806144ef6402540be4008a6159bd565b845461450491906001600160701b0316615a4e565b6001600160701b0390811682526001600160401b038089166020938401528454600181018655600095865294839020845195018054949093015116600160701b026001600160b01b03199093169316929092171790555b506145d4565b6040805180820190915281908061457d6402540be400896159bd565b6001600160701b0390811682526001600160401b038088166020938401528454600181018655600095865294839020845195018054949093015116600160701b026001600160b01b03199093169316929092171790555b604080518681526001600160401b03851660208201526001600160a01b03808a1692908916917f30bcda2f188b532c7644e632473e83a6fb3c5c79717650d0ac790d141bb1b17791016129a5565b60028201546000908190600160401b90046001600160401b03165b836001600160401b0316816001600160401b031610156147165784546001600160a01b031660009081526068602090815260408083206001600160401b03851684528252808320815160808101835290546001600160601b0381168252600160601b81046001600160701b031693820193909352600160d01b830463ffffffff1691810191909152600160f01b90910461ffff16606082015290806146e1836150d6565b925092505081866146f291906159d1565b95506146fe81866159d1565b9450505050808061470e906159e9565b91505061463d565b6002850180546fffffffffffffffff00000000000000001916600160401b6001600160401b03841602179055600185015461475a906001600160a01b0316846151fe565b811561477657600454614776906001600160a01b031683615338565b8454604080518581526001600160401b03871660208201526001600160a01b03909216917fb947d7b49cedaf132fd7a9592099c21170864455405d51b4825032441532410091015b60405180910390a25050505050565b6001600160a01b038181166000908152606460209081526040808320815160c081018352815486168152600182015495861693810193909352929391929190830190600160a01b900460ff16600381111561482a5761482a6156bd565b600381111561483b5761483b6156bd565b815260018201546001600160401b03600160a81b909104811660208301526002928301548082166040840152600160401b9004166060909101529091506001600160a01b038316600090815260646020526040902060010154600160a01b900460ff1660038111156148af576148af6156bd565b146148fc5760405162461bcd60e51b815260206004820152601e60248201527f5374616b696e673a206e6f742070656e64696e672076616c696461746f7200006044820152606401610883565b60668054600180820183556000929092527f46501879b8ca8525e8c2fd519e2fbfcfa2ebea26501294aa02cbfcfb12e943540180546001600160a01b0319166001600160a01b0385161790556040820190612085565b6001600160a01b038181166000908152606460209081526040808320815160c081018352815486168152600182015495861693810193909352929391929190830190600160a01b900460ff1660038111156149af576149af6156bd565b60038111156149c0576149c06156bd565b815260018201546001600160401b03600160a81b909104811660208301526002909201548083166040830152600160401b90049091166060909101529050600081604001516003811115614a1657614a166156bd565b1415614a345760405162461bcd60e51b815260040161088390615732565b6000614a3e612468565b90506000614a4c8383611e0a565b8054909150600090614a6c90600160d01b900463ffffffff166001615a70565b825463ffffffff8216600160d01b0263ffffffff60d01b199091161783556001600160a01b03808716600090815260646020908152604091829020885181549085166001600160a01b03199182161782559189015160018201805491909516928116831785559289015194955088949093909290916001600160a81b031990911617600160a01b836003811115614b0557614b056156bd565b0217905550606082015160018201805467ffffffffffffffff60a81b1916600160a81b6001600160401b039384160217905560808301516002909201805460a0909401519282166001600160801b031990941693909317600160401b9290911691909102179055600754604080516317c332e760e31b815290516001600160a01b039092169163be199738916004808201926020929091908290030181865afa158015614bb6573d6000803e3d6000fd5b505050506040513d601f19601f82011682018060405250810190614bda9190615997565b63ffffffff168163ffffffff161415614db857600760009054906101000a90046001600160a01b03166001600160a01b0316636cbe6cd86040518163ffffffff1660e01b8152600401602060405180830381865afa158015614c40573d6000803e3d6000fd5b505050506040513d601f19601f82011682018060405250810190614c649190615997565b63ffffffff16614c72612468565b614c7c9190615895565b6001600160401b0316608085015260036040850152614c9a85614f90565b6001600160a01b03808616600090815260646020908152604091829020875181549085166001600160a01b0319918216178255918801516001820180549190951692811683178555928801518894919390926001600160a81b031990911617600160a01b836003811115614d1057614d106156bd565b021790555060608201516001820180546001600160401b03928316600160a81b0267ffffffffffffffff60a81b1990911617905560808301516002909201805460a0909401518216600160401b026001600160801b03199094169282169290921792909217905560405190841681526001600160a01b038616907f6acc1079130362b805ce4a8874346d4ee8893d55f223e378ddc73031ce427eab9060200160405180910390a25b6040805163ffffffff831681526001600160401b03851660208201526001600160a01b038716917ff30f0392d5346908bf200bc0924d0c9860e22d46fc606e979a2e14fff24c62b991016147be565b60003411614e575760405162461bcd60e51b815260206004820152601860248201527f5374616b696e673a206465706f736974206973207a65726f00000000000000006044820152606401610883565b6001600160a01b038181166000908152606460209081526040808320815160c081018352815486168152600182015495861693810193909352929391929190830190600160a01b900460ff166003811115614eb457614eb46156bd565b6003811115614ec557614ec56156bd565b815260018201546001600160401b03600160a81b909104811660208301526002909201548083166040830152600160401b90049091166060909101529050600081604001516003811115614f1b57614f1b6156bd565b1415614f395760405162461bcd60e51b815260040161088390615732565b6000614f4782610a0c612468565b805490915034908290600090614f679084906001600160601b0316615a8f565b92506101000a8154816001600160601b0302191690836001600160601b03160217905550505050565b60001960005b606654811015614ff657826001600160a01b031660668281548110614fbd57614fbd6157a0565b6000918252602090912001546001600160a01b031614614fdc57614fe4565b809150614ff6565b80614fee816157cc565b915050614f96565b5060008112610e8c57606654600110801561501f575060665461501b9060019061587e565b8114155b1561509f57606680546150349060019061587e565b81548110615044576150446157a0565b600091825260209091200154606680546001600160a01b039092169183908110615070576150706157a0565b9060005260206000200160006101000a8154816001600160a01b0302191690836001600160a01b031602179055505b60668054806150b0576150b0615ab1565b600082815260209020810160001990810180546001600160a01b03191690550190555050565b6000806000600760009054906101000a90046001600160a01b03166001600160a01b0316639dbf97db6040518163ffffffff1660e01b8152600401602060405180830381865afa15801561512e573d6000803e3d6000fd5b505050506040513d601f19601f820116820180604052508101906151529190615997565b63ffffffff16846040015163ffffffff161061518057505081516000915081906001600160601b03166151f7565b60208401516001600160701b03166151a95750508151600091506001600160601b0316816151f7565b612710846060015161ffff1685600001516001600160601b03166151cd91906157e7565b6151d791906159bd565b84519092506151f09083906001600160601b031661587e565b9250600090505b9193909250565b6040516000906001600160a01b0384169061753090849084818181858888f193505050503d806000811461524e576040519150601f19603f3d011682016040523d82523d6000602084013e615253565b606091505b50509050806112d95760405162461bcd60e51b815260206004820181905260248201527f5374616b696e673a206661696c656420746f2073616665207472616e736665726044820152606401610883565b80516001600160a01b031660009081526068602090815260408083206060808601516001600160401b03168552908352818420825160808101845290546001600160601b0381168252600160601b81046001600160701b0316948201859052600160d01b810463ffffffff1693820193909352600160f01b90920461ffff16908201529061102c906402540be400906157e7565b6000826001600160a01b03168260405160006040518083038185875af1925050503d8060008114615385576040519150601f19603f3d011682016040523d82523d6000602084013e61538a565b606091505b50509050806112d95760405162461bcd60e51b815260206004820152602260248201527f5374616b696e673a206661696c656420746f20756e73616665207472616e736660448201526132b960f11b6064820152608401610883565b6001600160a01b0381168114610d5b57600080fd5b6000806040838503121561540e57600080fd5b8235615419816153e6565b91506020830135615429816153e6565b809150509250929050565b803561ffff8116811461544657600080fd5b919050565b6000806040838503121561545e57600080fd5b8235615469816153e6565b915061547760208401615434565b90509250929050565b60006020828403121561549257600080fd5b81356111c2816153e6565b600080600080600080600080610100898b0312156154ba57600080fd5b88356154c5816153e6565b975060208901356154d5816153e6565b965060408901356154e5816153e6565b955060608901356154f5816153e6565b94506080890135615505816153e6565b935060a0890135615515816153e6565b925060c0890135615525816153e6565b915060e0890135615535816153e6565b809150509295985092959890939650565b6000806040838503121561555957600080fd5b8235615564816153e6565b915060208301356001600160401b038116811461542957600080fd5b6000806040838503121561559357600080fd5b823561559e816153e6565b946020939093013593505050565b6020808252825182820181905260009190848201906040850190845b818110156155ed5783516001600160a01b0316835292840192918401916001016155c8565b50909695505050505050565b60008083601f84011261560b57600080fd5b5081356001600160401b0381111561562257600080fd5b6020830191508360208260051b8501011115611be157600080fd5b60008060008060006060868803121561565557600080fd5b85356001600160401b038082111561566c57600080fd5b61567889838a016155f9565b9097509550602088013591508082111561569157600080fd5b5061569e888289016155f9565b90945092506156b1905060408701615434565b90509295509295909350565b634e487b7160e01b600052602160045260246000fd5b6020808252601d908201527f5374616b696e673a206f6e6c792076616c696461746f72206f776e6572000000604082015260600190565b6001600160a01b0393909316835260ff91909116602083015261ffff16604082015260600190565b6020808252601c908201527f5374616b696e673a2076616c696461746f72206e6f7420666f756e6400000000604082015260600190565b6020808252601d908201527f496e6a6563746f723a20616c726561647920696e697469616c697a6564000000604082015260600190565b634e487b7160e01b600052603260045260246000fd5b634e487b7160e01b600052601160045260246000fd5b60006000198214156157e0576157e06157b6565b5060010190565b6000816000190483118215151615615801576158016157b6565b500290565b60006020828403121561581857600080fd5b5051919050565b634e487b7160e01b600052601260045260246000fd5b6000826158445761584461581f565b500690565b6020808252818101527f5374616b696e673a20616d6f756e74206861766520612072656d61696e646572604082015260600190565b600082821015615890576158906157b6565b500390565b60006001600160401b038083168185168083038211156158b7576158b76157b6565b01949350505050565b600181811c908216806158d457607f821691505b602082108114156158f557634e487b7160e01b600052602260045260246000fd5b50919050565b600080835481600182811c91508083168061591757607f831692505b602080841082141561593757634e487b7160e01b86526022600452602486fd5b81801561594b576001811461595c57615989565b60ff19861689528489019650615989565b60008a81526020902060005b868110156159815781548b820152908501908301615968565b505084890196505b509498975050505050505050565b6000602082840312156159a957600080fd5b815163ffffffff811681146111c257600080fd5b6000826159cc576159cc61581f565b500490565b600082198211156159e4576159e46157b6565b500190565b60006001600160401b0380831681811415615a0657615a066157b6565b6001019392505050565b634e487b7160e01b600052604160045260246000fd5b60006001600160701b0383811690831681811015615a4657615a466157b6565b039392505050565b60006001600160701b038083168185168083038211156158b7576158b76157b6565b600063ffffffff8083168185168083038211156158b7576158b76157b6565b60006001600160601b038083168185168083038211156158b7576158b76157b6565b634e487b7160e01b600052603160045260246000fdfea264697066735822122030c1c95d89e5befd82cf46e89a90319b7737230a758095bc2e1c6d2276dddf7a64736f6c634300080b0033",
  "immutableReferences": {},
  "source": "// SPDX-License-Identifier: GPL-3.0-only\r\npragma solidity ^0.8.0;\r\n\r\nimport \"../Staking.sol\";\r\n\r\ncontract FakeStaking is Staking {\r\n\r\n    constructor(bytes memory ctor) Staking(ctor) {\r\n    }\r\n\r\n    function addValidator(address account) external override {\r\n        _addValidator(account, account, ValidatorStatus.Active, 0, 0, _nextEpoch());\r\n    }\r\n\r\n    function removeValidator(address account) external override {\r\n        _removeValidator(account);\r\n    }\r\n\r\n    function activateValidator(address validator) external override {\r\n        _activateValidator(validator);\r\n    }\r\n\r\n    function disableValidator(address validator) external override {\r\n        _disableValidator(validator);\r\n    }\r\n\r\n    function deposit(address validatorAddress) external payable override {\r\n        _depositFee(validatorAddress);\r\n    }\r\n\r\n    function slash(address validatorAddress) external override {\r\n        _slashValidator(validatorAddress);\r\n    }\r\n}",
  "sourcePath": "D:\\code\\rust\\bas-genesis-config\\contracts\\tests\\FakeStaking.sol",
  "compiler": {
    "name": "solc",
    "version": "0.8.11+commit.d7f03943.Emscripten.clang"
  },
  "schemaVersion": "3.4.4",
  "updatedAt": "2022-04-21T10:08:23.861Z",
  "devdoc": {
    "kind": "dev",
    "methods": {},
    "version": 1
  },
  "userdoc": {
    "kind": "user",
    "methods": {},
    "version": 1
  }
}