{
  "contractName": "Governance",
  "abi": [
    {
      "inputs": [
        {
          "internalType": "bytes",
          "name": "constructorParams",
          "type": "bytes"
        }
      ],
      "stateMutability": "nonpayable",
      "type": "constructor"
    },
    {
      "anonymous": false,
      "inputs": [
        {
          "indexed": false,
          "internalType": "uint256",
          "name": "proposalId",
          "type": "uint256"
        }
      ],
      "name": "ProposalCanceled",
      "type": "event"
    },
    {
      "anonymous": false,
      "inputs": [
        {
          "indexed": false,
          "internalType": "uint256",
          "name": "proposalId",
          "type": "uint256"
        },
        {
          "indexed": false,
          "internalType": "address",
          "name": "proposer",
          "type": "address"
        },
        {
          "indexed": false,
          "internalType": "address[]",
          "name": "targets",
          "type": "address[]"
        },
        {
          "indexed": false,
          "internalType": "uint256[]",
          "name": "values",
          "type": "uint256[]"
        },
        {
          "indexed": false,
          "internalType": "string[]",
          "name": "signatures",
          "type": "string[]"
        },
        {
          "indexed": false,
          "internalType": "bytes[]",
          "name": "calldatas",
          "type": "bytes[]"
        },
        {
          "indexed": false,
          "internalType": "uint256",
          "name": "startBlock",
          "type": "uint256"
        },
        {
          "indexed": false,
          "internalType": "uint256",
          "name": "endBlock",
          "type": "uint256"
        },
        {
          "indexed": false,
          "internalType": "string",
          "name": "description",
          "type": "string"
        }
      ],
      "name": "ProposalCreated",
      "type": "event"
    },
    {
      "anonymous": false,
      "inputs": [
        {
          "indexed": false,
          "internalType": "uint256",
          "name": "proposalId",
          "type": "uint256"
        }
      ],
      "name": "ProposalExecuted",
      "type": "event"
    },
    {
      "anonymous": false,
      "inputs": [
        {
          "indexed": false,
          "internalType": "uint256",
          "name": "oldProposalThreshold",
          "type": "uint256"
        },
        {
          "indexed": false,
          "internalType": "uint256",
          "name": "newProposalThreshold",
          "type": "uint256"
        }
      ],
      "name": "ProposalThresholdSet",
      "type": "event"
    },
    {
      "anonymous": false,
      "inputs": [
        {
          "indexed": true,
          "internalType": "address",
          "name": "voter",
          "type": "address"
        },
        {
          "indexed": false,
          "internalType": "uint256",
          "name": "proposalId",
          "type": "uint256"
        },
        {
          "indexed": false,
          "internalType": "uint8",
          "name": "support",
          "type": "uint8"
        },
        {
          "indexed": false,
          "internalType": "uint256",
          "name": "weight",
          "type": "uint256"
        },
        {
          "indexed": false,
          "internalType": "string",
          "name": "reason",
          "type": "string"
        }
      ],
      "name": "VoteCast",
      "type": "event"
    },
    {
      "anonymous": false,
      "inputs": [
        {
          "indexed": false,
          "internalType": "uint256",
          "name": "oldVotingDelay",
          "type": "uint256"
        },
        {
          "indexed": false,
          "internalType": "uint256",
          "name": "newVotingDelay",
          "type": "uint256"
        }
      ],
      "name": "VotingDelaySet",
      "type": "event"
    },
    {
      "anonymous": false,
      "inputs": [
        {
          "indexed": false,
          "internalType": "uint256",
          "name": "oldVotingPeriod",
          "type": "uint256"
        },
        {
          "indexed": false,
          "internalType": "uint256",
          "name": "newVotingPeriod",
          "type": "uint256"
        }
      ],
      "name": "VotingPeriodSet",
      "type": "event"
    },
    {
      "inputs": [],
      "name": "BALLOT_TYPEHASH",
      "outputs": [
        {
          "internalType": "bytes32",
          "name": "",
          "type": "bytes32"
        }
      ],
      "stateMutability": "view",
      "type": "function"
    },
    {
      "inputs": [],
      "name": "COUNTING_MODE",
      "outputs": [
        {
          "internalType": "string",
          "name": "",
          "type": "string"
        }
      ],
      "stateMutability": "pure",
      "type": "function"
    },
    {
      "inputs": [
        {
          "internalType": "uint256",
          "name": "proposalId",
          "type": "uint256"
        },
        {
          "internalType": "uint8",
          "name": "support",
          "type": "uint8"
        }
      ],
      "name": "castVote",
      "outputs": [
        {
          "internalType": "uint256",
          "name": "",
          "type": "uint256"
        }
      ],
      "stateMutability": "nonpayable",
      "type": "function"
    },
    {
      "inputs": [
        {
          "internalType": "uint256",
          "name": "proposalId",
          "type": "uint256"
        },
        {
          "internalType": "uint8",
          "name": "support",
          "type": "uint8"
        },
        {
          "internalType": "uint8",
          "name": "v",
          "type": "uint8"
        },
        {
          "internalType": "bytes32",
          "name": "r",
          "type": "bytes32"
        },
        {
          "internalType": "bytes32",
          "name": "s",
          "type": "bytes32"
        }
      ],
      "name": "castVoteBySig",
      "outputs": [
        {
          "internalType": "uint256",
          "name": "",
          "type": "uint256"
        }
      ],
      "stateMutability": "nonpayable",
      "type": "function"
    },
    {
      "inputs": [
        {
          "internalType": "uint256",
          "name": "proposalId",
          "type": "uint256"
        },
        {
          "internalType": "uint8",
          "name": "support",
          "type": "uint8"
        },
        {
          "internalType": "string",
          "name": "reason",
          "type": "string"
        }
      ],
      "name": "castVoteWithReason",
      "outputs": [
        {
          "internalType": "uint256",
          "name": "",
          "type": "uint256"
        }
      ],
      "stateMutability": "nonpayable",
      "type": "function"
    },
    {
      "inputs": [
        {
          "internalType": "address[]",
          "name": "targets",
          "type": "address[]"
        },
        {
          "internalType": "uint256[]",
          "name": "values",
          "type": "uint256[]"
        },
        {
          "internalType": "bytes[]",
          "name": "calldatas",
          "type": "bytes[]"
        },
        {
          "internalType": "bytes32",
          "name": "descriptionHash",
          "type": "bytes32"
        }
      ],
      "name": "execute",
      "outputs": [
        {
          "internalType": "uint256",
          "name": "",
          "type": "uint256"
        }
      ],
      "stateMutability": "payable",
      "type": "function"
    },
    {
      "inputs": [],
      "name": "getChainConfig",
      "outputs": [
        {
          "internalType": "contract IChainConfig",
          "name": "",
          "type": "address"
        }
      ],
      "stateMutability": "view",
      "type": "function"
    },
    {
      "inputs": [],
      "name": "getGovernance",
      "outputs": [
        {
          "internalType": "contract IGovernance",
          "name": "",
          "type": "address"
        }
      ],
      "stateMutability": "view",
      "type": "function"
    },
    {
      "inputs": [],
      "name": "getSlashingIndicator",
      "outputs": [
        {
          "internalType": "contract ISlashingIndicator",
          "name": "",
          "type": "address"
        }
      ],
      "stateMutability": "view",
      "type": "function"
    },
    {
      "inputs": [],
      "name": "getStaking",
      "outputs": [
        {
          "internalType": "contract IStaking",
          "name": "",
          "type": "address"
        }
      ],
      "stateMutability": "view",
      "type": "function"
    },
    {
      "inputs": [],
      "name": "getStakingPool",
      "outputs": [
        {
          "internalType": "contract IStakingPool",
          "name": "",
          "type": "address"
        }
      ],
      "stateMutability": "view",
      "type": "function"
    },
    {
      "inputs": [],
      "name": "getSystemReward",
      "outputs": [
        {
          "internalType": "contract ISystemReward",
          "name": "",
          "type": "address"
        }
      ],
      "stateMutability": "view",
      "type": "function"
    },
    {
      "inputs": [
        {
          "internalType": "uint256",
          "name": "proposalId",
          "type": "uint256"
        },
        {
          "internalType": "address",
          "name": "account",
          "type": "address"
        }
      ],
      "name": "hasVoted",
      "outputs": [
        {
          "internalType": "bool",
          "name": "",
          "type": "bool"
        }
      ],
      "stateMutability": "view",
      "type": "function"
    },
    {
      "inputs": [
        {
          "internalType": "address[]",
          "name": "targets",
          "type": "address[]"
        },
        {
          "internalType": "uint256[]",
          "name": "values",
          "type": "uint256[]"
        },
        {
          "internalType": "bytes[]",
          "name": "calldatas",
          "type": "bytes[]"
        },
        {
          "internalType": "bytes32",
          "name": "descriptionHash",
          "type": "bytes32"
        }
      ],
      "name": "hashProposal",
      "outputs": [
        {
          "internalType": "uint256",
          "name": "",
          "type": "uint256"
        }
      ],
      "stateMutability": "pure",
      "type": "function"
    },
    {
      "inputs": [],
      "name": "init",
      "outputs": [],
      "stateMutability": "nonpayable",
      "type": "function"
    },
    {
      "inputs": [
        {
          "internalType": "contract IStaking",
          "name": "stakingContract",
          "type": "address"
        },
        {
          "internalType": "contract ISlashingIndicator",
          "name": "slashingIndicatorContract",
          "type": "address"
        },
        {
          "internalType": "contract ISystemReward",
          "name": "systemRewardContract",
          "type": "address"
        },
        {
          "internalType": "contract IStakingPool",
          "name": "stakingPoolContract",
          "type": "address"
        },
        {
          "internalType": "contract IGovernance",
          "name": "governanceContract",
          "type": "address"
        },
        {
          "internalType": "contract IChainConfig",
          "name": "chainConfigContract",
          "type": "address"
        },
        {
          "internalType": "contract IRuntimeUpgrade",
          "name": "runtimeUpgradeContract",
          "type": "address"
        },
        {
          "internalType": "contract IDeployerProxy",
          "name": "deployerProxyContract",
          "type": "address"
        }
      ],
      "name": "initManually",
      "outputs": [],
      "stateMutability": "nonpayable",
      "type": "function"
    },
    {
      "inputs": [],
      "name": "isInitialized",
      "outputs": [
        {
          "internalType": "bool",
          "name": "",
          "type": "bool"
        }
      ],
      "stateMutability": "view",
      "type": "function"
    },
    {
      "inputs": [],
      "name": "name",
      "outputs": [
        {
          "internalType": "string",
          "name": "",
          "type": "string"
        }
      ],
      "stateMutability": "view",
      "type": "function"
    },
    {
      "inputs": [
        {
          "internalType": "uint256",
          "name": "proposalId",
          "type": "uint256"
        }
      ],
      "name": "proposalDeadline",
      "outputs": [
        {
          "internalType": "uint256",
          "name": "",
          "type": "uint256"
        }
      ],
      "stateMutability": "view",
      "type": "function"
    },
    {
      "inputs": [
        {
          "internalType": "uint256",
          "name": "proposalId",
          "type": "uint256"
        }
      ],
      "name": "proposalSnapshot",
      "outputs": [
        {
          "internalType": "uint256",
          "name": "",
          "type": "uint256"
        }
      ],
      "stateMutability": "view",
      "type": "function"
    },
    {
      "inputs": [
        {
          "internalType": "uint256",
          "name": "proposalId",
          "type": "uint256"
        }
      ],
      "name": "proposalVotes",
      "outputs": [
        {
          "internalType": "uint256",
          "name": "againstVotes",
          "type": "uint256"
        },
        {
          "internalType": "uint256",
          "name": "forVotes",
          "type": "uint256"
        },
        {
          "internalType": "uint256",
          "name": "abstainVotes",
          "type": "uint256"
        }
      ],
      "stateMutability": "view",
      "type": "function"
    },
    {
      "inputs": [
        {
          "internalType": "uint256",
          "name": "newProposalThreshold",
          "type": "uint256"
        }
      ],
      "name": "setProposalThreshold",
      "outputs": [],
      "stateMutability": "nonpayable",
      "type": "function"
    },
    {
      "inputs": [
        {
          "internalType": "uint256",
          "name": "newVotingDelay",
          "type": "uint256"
        }
      ],
      "name": "setVotingDelay",
      "outputs": [],
      "stateMutability": "nonpayable",
      "type": "function"
    },
    {
      "inputs": [
        {
          "internalType": "uint256",
          "name": "newVotingPeriod",
          "type": "uint256"
        }
      ],
      "name": "setVotingPeriod",
      "outputs": [],
      "stateMutability": "nonpayable",
      "type": "function"
    },
    {
      "inputs": [
        {
          "internalType": "uint256",
          "name": "proposalId",
          "type": "uint256"
        }
      ],
      "name": "state",
      "outputs": [
        {
          "internalType": "enum IGovernor.ProposalState",
          "name": "",
          "type": "uint8"
        }
      ],
      "stateMutability": "view",
      "type": "function"
    },
    {
      "inputs": [
        {
          "internalType": "bytes4",
          "name": "interfaceId",
          "type": "bytes4"
        }
      ],
      "name": "supportsInterface",
      "outputs": [
        {
          "internalType": "bool",
          "name": "",
          "type": "bool"
        }
      ],
      "stateMutability": "view",
      "type": "function"
    },
    {
      "inputs": [],
      "name": "version",
      "outputs": [
        {
          "internalType": "string",
          "name": "",
          "type": "string"
        }
      ],
      "stateMutability": "view",
      "type": "function"
    },
    {
      "stateMutability": "payable",
      "type": "receive"
    },
    {
      "inputs": [
        {
          "internalType": "uint256",
          "name": "newVotingPeriod",
          "type": "uint256"
        }
      ],
      "name": "ctor",
      "outputs": [],
      "stateMutability": "nonpayable",
      "type": "function"
    },
    {
      "inputs": [],
      "name": "getVotingSupply",
      "outputs": [
        {
          "internalType": "uint256",
          "name": "",
          "type": "uint256"
        }
      ],
      "stateMutability": "view",
      "type": "function"
    },
    {
      "inputs": [
        {
          "internalType": "address",
          "name": "validator",
          "type": "address"
        }
      ],
      "name": "getVotingPower",
      "outputs": [
        {
          "internalType": "uint256",
          "name": "",
          "type": "uint256"
        }
      ],
      "stateMutability": "view",
      "type": "function"
    },
    {
      "inputs": [
        {
          "internalType": "address[]",
          "name": "targets",
          "type": "address[]"
        },
        {
          "internalType": "uint256[]",
          "name": "values",
          "type": "uint256[]"
        },
        {
          "internalType": "bytes[]",
          "name": "calldatas",
          "type": "bytes[]"
        },
        {
          "internalType": "string",
          "name": "description",
          "type": "string"
        },
        {
          "internalType": "uint256",
          "name": "customVotingPeriod",
          "type": "uint256"
        }
      ],
      "name": "proposeWithCustomVotingPeriod",
      "outputs": [
        {
          "internalType": "uint256",
          "name": "",
          "type": "uint256"
        }
      ],
      "stateMutability": "nonpayable",
      "type": "function"
    },
    {
      "inputs": [
        {
          "internalType": "address[]",
          "name": "targets",
          "type": "address[]"
        },
        {
          "internalType": "uint256[]",
          "name": "values",
          "type": "uint256[]"
        },
        {
          "internalType": "bytes[]",
          "name": "calldatas",
          "type": "bytes[]"
        },
        {
          "internalType": "string",
          "name": "description",
          "type": "string"
        }
      ],
      "name": "propose",
      "outputs": [
        {
          "internalType": "uint256",
          "name": "",
          "type": "uint256"
        }
      ],
      "stateMutability": "nonpayable",
      "type": "function"
    },
    {
      "inputs": [],
      "name": "votingPeriod",
      "outputs": [
        {
          "internalType": "uint256",
          "name": "",
          "type": "uint256"
        }
      ],
      "stateMutability": "view",
      "type": "function"
    },
    {
      "inputs": [
        {
          "internalType": "address",
          "name": "account",
          "type": "address"
        },
        {
          "internalType": "uint256",
          "name": "blockNumber",
          "type": "uint256"
        }
      ],
      "name": "getVotes",
      "outputs": [
        {
          "internalType": "uint256",
          "name": "",
          "type": "uint256"
        }
      ],
      "stateMutability": "view",
      "type": "function"
    },
    {
      "inputs": [
        {
          "internalType": "uint256",
          "name": "blockNumber",
          "type": "uint256"
        }
      ],
      "name": "quorum",
      "outputs": [
        {
          "internalType": "uint256",
          "name": "",
          "type": "uint256"
        }
      ],
      "stateMutability": "view",
      "type": "function"
    },
    {
      "inputs": [],
      "name": "votingDelay",
      "outputs": [
        {
          "internalType": "uint256",
          "name": "",
          "type": "uint256"
        }
      ],
      "stateMutability": "view",
      "type": "function"
    },
    {
      "inputs": [],
      "name": "proposalThreshold",
      "outputs": [
        {
          "internalType": "uint256",
          "name": "",
          "type": "uint256"
        }
      ],
      "stateMutability": "view",
      "type": "function"
    }
  ],
  "bytecode": "0x6101406040523480156200001257600080fd5b50604051620035083803806200350883398101604081905262000035916200035b565b6000600160006040518060400160405280600a815260200169476f7665726e616e636560b01b815250806200006f6200015c60201b60201c565b86518790620000869060019060208401906200029f565b5050815160208084019190912082518383012060e08290526101008190524660a0818152604080517f8b73c3c69bb8fe3d512ecc4cf759cc79239f7b179b0ffacaa9a75d522b39400f81880181905281830187905260608201869052608082019490945230818401528151808203909301835260c00190528051940193909320919290916080523060c05261012052505082516200012e92506064915060208401906200029f565b506200013c90508362000177565b6200014782620001b8565b62000152816200025e565b5050505062000474565b6040805180820190915260018152603160f81b602082015290565b60675460408051918252602082018390527fc565b045403dc03c2eea82b81a0465edad9e2e7fc4d97e11421c209da93d7a93910160405180910390a1606755565b600081116200021d5760405162461bcd60e51b815260206004820152602760248201527f476f7665726e6f7253657474696e67733a20766f74696e6720706572696f6420604482015266746f6f206c6f7760c81b606482015260840160405180910390fd5b60685460408051918252602082018390527f7e3f7f0708a84de9203036abaa450dccc85ad5ff52f78c170f3edb55cf5e8828910160405180910390a1606855565b60695460408051918252602082018390527fccb45da8d5717e6c4544694297c4ba5cf151d455c9bb0ed4fc7a38411bc05461910160405180910390a1606955565b828054620002ad9062000437565b90600052602060002090601f016020900481019282620002d157600085556200031c565b82601f10620002ec57805160ff19168380011785556200031c565b828001600101855582156200031c579182015b828111156200031c578251825591602001919060010190620002ff565b506200032a9291506200032e565b5090565b5b808211156200032a57600081556001016200032f565b634e487b7160e01b600052604160045260246000fd5b600060208083850312156200036f57600080fd5b82516001600160401b03808211156200038757600080fd5b818501915085601f8301126200039c57600080fd5b815181811115620003b157620003b162000345565b604051601f8201601f19908116603f01168101908382118183101715620003dc57620003dc62000345565b816040528281528886848701011115620003f557600080fd5b600093505b82841015620004195784840186015181850187015292850192620003fa565b828411156200042b5760008684830101525b98975050505050505050565b600181811c908216806200044c57607f821691505b602082108114156200046e57634e487b7160e01b600052602260045260246000fd5b50919050565b60805160a05160c05160e0516101005161012051613044620004c46000396000611cc201526000611d1101526000611cec01526000611c4501526000611c6f01526000611c9901526130446000f3fe60806040526004361061021d5760003560e01c80635678138811610123578063bb4d4436116100ab578063e1c7392a1161006f578063e1c7392a146106c7578063ea0217cf146106dc578063eb9019d4146106fc578063ece40cc11461071c578063f8ce560a1461073c57600080fd5b8063bb4d4436146105ed578063c01f9e371461060d578063c59057e41461062d578063dd4e2ba51461064d578063deaaa7cc1461069357600080fd5b80637a37cc59116100f25780637a37cc591461055c5780637b1391a61461057a5780637b3c71d3146105985780637d5e81e2146105b8578063b58131b0146105d857600080fd5b806356781388146104e957806359fe2ccf14610509578063606c0c941461051e57806370b0f6601461053c57600080fd5b8063392e53cd116101a65780633e4f49e6116101755780633e4f49e6146103d55780634385963214610402578063459463341461044c578063544ffc9c1461046a57806354fd4d50146104bf57600080fd5b8063392e53cd146103685780633932abb1146103805780633bccf4fd146103955780633e1bbdc9146103b557600080fd5b80630eb448fa116101ed5780630eb448fa146102c5578063244d8257146102e55780632656227d14610317578063289b3c0d1461032a5780632d63f6931461034857600080fd5b8062f8df171461022b57806301ffc9a71461024b57806302a251a31461028057806306fdde03146102a357600080fd5b3661022657005b005b600080fd5b34801561023757600080fd5b506102246102463660046121f9565b61075c565b34801561025757600080fd5b5061026b610266366004612212565b610794565b60405190151581526020015b60405180910390f35b34801561028c57600080fd5b506102956107cb565b604051908152602001610277565b3480156102af57600080fd5b506102b86107ea565b6040516102779190612298565b3480156102d157600080fd5b506102956102e0366004612503565b61087c565b3480156102f157600080fd5b506003546001600160a01b03165b6040516001600160a01b039091168152602001610277565b6102956103253660046125b7565b6109cd565b34801561033657600080fd5b506006546001600160a01b03166102ff565b34801561035457600080fd5b506102956103633660046121f9565b610adf565b34801561037457600080fd5b5060005460ff1661026b565b34801561038c57600080fd5b50610295610b16565b3480156103a157600080fd5b506102956103b0366004612655565b610b21565b3480156103c157600080fd5b506102246103d03660046126a7565b610bb5565b3480156103e157600080fd5b506103f56103f03660046121f9565b610c71565b6040516102779190612766565b34801561040e57600080fd5b5061026b61041d36600461278e565b60008281526066602090815260408083206001600160a01b038516845260030190915290205460ff1692915050565b34801561045857600080fd5b506005546001600160a01b03166102ff565b34801561047657600080fd5b506104a46104853660046121f9565b6000908152606660205260409020805460018201546002909201549092565b60408051938452602084019290925290820152606001610277565b3480156104cb57600080fd5b506040805180820190915260018152603160f81b60208201526102b8565b3480156104f557600080fd5b506102956105043660046127be565b610dd6565b34801561051557600080fd5b50610295610dff565b34801561052a57600080fd5b506007546001600160a01b03166102ff565b34801561054857600080fd5b506102246105573660046121f9565b610e0a565b34801561056857600080fd5b506004546001600160a01b03166102ff565b34801561058657600080fd5b506002546001600160a01b03166102ff565b3480156105a457600080fd5b506102956105b33660046127e3565b610e32565b3480156105c457600080fd5b506102956105d336600461286b565b610e84565b3480156105e457600080fd5b50610295610fbd565b3480156105f957600080fd5b50610295610608366004612917565b610fc8565b34801561061957600080fd5b506102956106283660046121f9565b610fd4565b34801561063957600080fd5b506102956106483660046125b7565b611003565b34801561065957600080fd5b506040805180820190915260208082527f737570706f72743d627261766f2671756f72756d3d666f722c6162737461696e908201526102b8565b34801561069f57600080fd5b506102957f150214d74d59b7d1e90c73fc22ef3d991dd0a76b046543d4d80ab92d2a50328f81565b3480156106d357600080fd5b5061022461103d565b3480156106e857600080fd5b506102246106f73660046121f9565b6110e3565b34801561070857600080fd5b50610295610717366004612934565b611102565b34801561072857600080fd5b506102246107373660046121f9565b61110e565b34801561074857600080fd5b506102956107573660046121f9565b611136565b60005460ff16156107885760405162461bcd60e51b815260040161077f90612960565b60405180910390fd5b6107918161115b565b50565b60006001600160e01b0319821663bf26d89760e01b14806107c557506301ffc9a760e01b6001600160e01b03198316145b92915050565b6000606a546000146107de5750606a5490565b5060685490565b905090565b6060606480546107f990612997565b80601f016020809104026020016040519081016040528092919081815260200182805461082590612997565b80156108725780601f1061084757610100808354040283529160200191610872565b820191906000526020600020905b81548152906001019060200180831161085557829003601f168201915b5050505050905090565b600254604051631808461160e11b815233600482015260009182916001600160a01b03909116906330108c2290602401602060405180830381865afa1580156108c9573d6000803e3d6000fd5b505050506040513d601f19601f820116820180604052508101906108ed91906129cc565b6002546040516310ab556b60e21b81526001600160a01b0380841660048301529293509116906342ad55ac90602401602060405180830381865afa158015610939573d6000803e3d6000fd5b505050506040513d601f19601f8201168201806040525081019061095d91906129e9565b6109a95760405162461bcd60e51b815260206004820181905260248201527f476f7665726e616e63653a206f6e6c792076616c696461746f72206f776e6572604482015260640161077f565b606a83905560006109bc88888888610e84565b6000606a5598975050505050505050565b6000806109dc86868686611003565b905060006109e982610c71565b905060048160078111156109ff576109ff612750565b1480610a1c57506005816007811115610a1a57610a1a612750565b145b610a725760405162461bcd60e51b815260206004820152602160248201527f476f7665726e6f723a2070726f706f73616c206e6f74207375636365737366756044820152601b60fa1b606482015260840161077f565b60008281526065602052604090819020600201805460ff19166001179055517f712ae1383f79ac853f8d882153778e0260ef8f03b504e2866e0593e04d2b291f90610ac09084815260200190565b60405180910390a1610ad582888888886111fc565b5095945050505050565b60008181526065602090815260408083208151928301909152546001600160401b0316908190525b6001600160401b031692915050565b60006107e560675490565b604080517f150214d74d59b7d1e90c73fc22ef3d991dd0a76b046543d4d80ab92d2a50328f602082015290810186905260ff851660608201526000908190610b8d90610b8590608001604051602081830303815290604052805190602001206112fb565b868686611349565b9050610baa87828860405180602001604052806000815250611367565b979650505050505050565b60005460ff1615610bd85760405162461bcd60e51b815260040161077f90612960565b600280546001600160a01b03199081166001600160a01b038b8116919091179092556003805482168a841617905560048054821689841617905560058054821688841617905560068054821687841617905560078054821686841617905560088054821685841617905560098054909116918316919091179055610c5a611471565b50506000805460ff19166001179055505050505050565b6000818152606560209081526040808320815160a08101835281546001600160401b039081166080830190815282528351808601855260018401549091168152938101939093526002015460ff808216158015938501939093526101009091041615156060830152610ce65750600792915050565b806060015115610cf95750600292915050565b80515143906001600160401b031610610d155750600092915050565b43610d2282602001515190565b6001600160401b031610610d395750600192915050565b610d468160200151611563565b15610d8857610d5483611592565b8015610d73575060008381526066602052604090208054600190910154115b610d7e576003610d81565b60045b9392505050565b60405162461bcd60e51b815260206004820152601d60248201527f476f7665726e6f723a20756e6b6e6f776e2070726f706f73616c206964000000604482015260640161077f565b50919050565b600080339050610df784828560405180602001604052806000815250611367565b949350505050565b60006107e5436115c9565b333014610e295760405162461bcd60e51b815260040161077f90612a0b565b6107918161169d565b600080339050610e7a86828787878080601f01602080910402602001604051908101604052809392919081815260200183838082843760009201919091525061136792505050565b9695505050505050565b600254604051631808461160e11b815233600482015260009182916001600160a01b03909116906330108c2290602401602060405180830381865afa158015610ed1573d6000803e3d6000fd5b505050506040513d601f19601f82011682018060405250810190610ef591906129cc565b6002546040516310ab556b60e21b81526001600160a01b0380841660048301529293509116906342ad55ac90602401602060405180830381865afa158015610f41573d6000803e3d6000fd5b505050506040513d601f19601f82011682018060405250810190610f6591906129e9565b610fb15760405162461bcd60e51b815260206004820181905260248201527f476f7665726e616e63653a206f6e6c792076616c696461746f72206f776e6572604482015260640161077f565b610e7a868686866116de565b60006107e560695490565b60006107c582436119b9565b60008181526065602090815260408083208151928301909152600101546001600160401b031690819052610b07565b60008484848460405160200161101c9493929190612b0b565b60408051601f19818403018152919052805160209091012095945050505050565b60005460ff16156110605760405162461bcd60e51b815260040161077f90612960565b600280546001600160a01b031990811661100017909155600380548216611001179055600480548216611002179055600580548216617001179055600680548216617002179055600780548216617003179055600880548216617004179055600980549091166170051790556110d4611471565b6000805460ff19166001179055565b3330146107885760405162461bcd60e51b815260040161077f90612a0b565b6000610d8183836119b9565b33301461112d5760405162461bcd60e51b815260040161077f90612a0b565b61079181611bbe565b600080611142836115c9565b90506003611151826002612b6c565b610d819190612b8b565b600081116111bb5760405162461bcd60e51b815260206004820152602760248201527f476f7665726e6f7253657474696e67733a20766f74696e6720706572696f6420604482015266746f6f206c6f7760c81b606482015260840161077f565b60685460408051918252602082018390527f7e3f7f0708a84de9203036abaa450dccc85ad5ff52f78c170f3edb55cf5e8828910160405180910390a1606855565b6000604051806060016040528060278152602001612fe860279139905060005b85518110156112f25760008087838151811061123a5761123a612bad565b60200260200101516001600160a01b031687848151811061125d5761125d612bad565b602002602001015187858151811061127757611277612bad565b602002602001015160405161128c9190612bc3565b60006040518083038185875af1925050503d80600081146112c9576040519150601f19603f3d011682016040523d82523d6000602084013e6112ce565b606091505b50915091506112de828286611bff565b505050806112eb90612bdf565b905061121c565b50505050505050565b60006107c5611308611c38565b8360405161190160f01b6020820152602281018390526042810182905260009060620160405160208183030381529060405280519060200120905092915050565b600080600061135a87878787611d5f565b91509150610ad581611e4c565b6000848152606560205260408120600161138087610c71565b600781111561139157611391612750565b146113ea5760405162461bcd60e51b815260206004820152602360248201527f476f7665726e6f723a20766f7465206e6f742063757272656e746c792061637460448201526269766560e81b606482015260840161077f565b604080516020810190915281546001600160401b031690819052600090611412908790611102565b905061142087878784612007565b856001600160a01b03167fb8e138887d0aa13bab447e82de9d5c1777041ecd21ca36ba824ff1e6c07ddda48887848860405161145f9493929190612bfa565b60405180910390a29695505050505050565b6001805461147e90612997565b1515905061148857565b600080306001600160a01b031660016040516114a49190612c22565b6000604051808303816000865af19150503d80600081146114e1576040519150601f19603f3d011682016040523d82523d6000602084013e6114e6565b606091505b509150915081156114f5575050565b805161155a5760405162461bcd60e51b815260206004820152602e60248201527f496e6a6563746f723a20636f6e737472756374696f6e206661696c656420772f60448201526d103ab735b737bbb71032b93937b960911b606482015260840161077f565b80518082602001fd5b600061157882516001600160401b0316151590565b80156107c557505051436001600160401b03909116111590565b6000818152606660205260408120600281015460018201546115b49190612cbe565b6115c061075785610adf565b11159392505050565b600080600260009054906101000a90046001600160a01b03166001600160a01b031663b7ab4db56040518163ffffffff1660e01b8152600401600060405180830381865afa15801561161f573d6000803e3d6000fd5b505050506040513d6000823e601f3d908101601f191682016040526116479190810190612cd6565b905060005b81518110156116965761167882828151811061166a5761166a612bad565b6020026020010151856119b9565b6116829084612cbe565b92508061168e81612bdf565b91505061164c565b5050919050565b60675460408051918252602082018390527fc565b045403dc03c2eea82b81a0465edad9e2e7fc4d97e11421c209da93d7a93910160405180910390a1606755565b60006116e8610fbd565b6116f733610717600143612d64565b10156117775760405162461bcd60e51b815260206004820152604360248201527f476f7665726e6f72436f6d7061746962696c697479427261766f3a2070726f7060448201527f6f73657220766f7465732062656c6f772070726f706f73616c207468726573686064820152621bdb1960ea1b608482015260a40161077f565b600061178c8686868680519060200120611003565b905084518651146117af5760405162461bcd60e51b815260040161077f90612d7b565b83518651146117d05760405162461bcd60e51b815260040161077f90612d7b565b60008651116118215760405162461bcd60e51b815260206004820152601860248201527f476f7665726e6f723a20656d7074792070726f706f73616c0000000000000000604482015260640161077f565b600081815260656020908152604091829020825191820190925281546001600160401b031690819052156118a15760405162461bcd60e51b815260206004820152602160248201527f476f7665726e6f723a2070726f706f73616c20616c72656164792065786973746044820152607360f81b606482015260840161077f565b60006118b36118ae610b16565b61218d565b6118bc4361218d565b6118c69190612dbc565b905060006118d56118ae6107cb565b6118df9083612dbc565b835467ffffffffffffffff19166001600160401b038416178455905060018301805467ffffffffffffffff19166001600160401b0383161790557f7d84a6263ae0d98d3329bd7b46bb4e8d6f98cd35a7adb45c274c8b7fd5ebd5e084338b8b8d516001600160401b03811115611957576119576122ab565b60405190808252806020026020018201604052801561198a57816020015b60608152602001906001900390816119755790505b508c88888e6040516119a499989796959493929190612de7565b60405180910390a15091979650505050505050565b600254604051631808461160e11b81526001600160a01b03848116600483015260009283929116906330108c2290602401602060405180830381865afa158015611a07573d6000803e3d6000fd5b505050506040513d601f19601f82011682018060405250810190611a2b91906129cc565b6002546040516310ab556b60e21b81526001600160a01b0380841660048301529293509116906342ad55ac90602401602060405180830381865afa158015611a77573d6000803e3d6000fd5b505050506040513d601f19601f82011682018060405250810190611a9b91906129e9565b611aa95760009150506107c5565b6007546040805163068d921560e31b815290516000926001600160a01b03169163346c90a89160048083019260209291908290030181865afa158015611af3573d6000803e3d6000fd5b505050506040513d601f19601f82011682018060405250810190611b179190612eef565b611b279063ffffffff1685612b8b565b600254604051632409269360e11b81526001600160a01b0385811660048301526001600160401b0384166024830152929350600092909116906348124d269060440161012060405180830381865afa158015611b87573d6000803e3d6000fd5b505050506040513d601f19601f82011682018060405250810190611bab9190612f21565b50949d9c50505050505050505050505050565b60695460408051918252602082018390527fccb45da8d5717e6c4544694297c4ba5cf151d455c9bb0ed4fc7a38411bc05461910160405180910390a1606955565b60608315611c0e575081610d81565b825115611c1e5782518084602001fd5b8160405162461bcd60e51b815260040161077f9190612298565b6000306001600160a01b037f000000000000000000000000000000000000000000000000000000000000000016148015611c9157507f000000000000000000000000000000000000000000000000000000000000000046145b15611cbb57507f000000000000000000000000000000000000000000000000000000000000000090565b50604080517f00000000000000000000000000000000000000000000000000000000000000006020808301919091527f0000000000000000000000000000000000000000000000000000000000000000828401527f000000000000000000000000000000000000000000000000000000000000000060608301524660808301523060a0808401919091528351808403909101815260c0909201909252805191012090565b6000807f7fffffffffffffffffffffffffffffff5d576e7357a4501ddfe92f46681b20a0831115611d965750600090506003611e43565b8460ff16601b14158015611dae57508460ff16601c14155b15611dbf5750600090506004611e43565b6040805160008082526020820180845289905260ff881692820192909252606081018690526080810185905260019060a0016020604051602081039080840390855afa158015611e13573d6000803e3d6000fd5b5050604051601f1901519150506001600160a01b038116611e3c57600060019250925050611e43565b9150600090505b94509492505050565b6000816004811115611e6057611e60612750565b1415611e695750565b6001816004811115611e7d57611e7d612750565b1415611ecb5760405162461bcd60e51b815260206004820152601860248201527f45434453413a20696e76616c6964207369676e61747572650000000000000000604482015260640161077f565b6002816004811115611edf57611edf612750565b1415611f2d5760405162461bcd60e51b815260206004820152601f60248201527f45434453413a20696e76616c6964207369676e6174757265206c656e67746800604482015260640161077f565b6003816004811115611f4157611f41612750565b1415611f9a5760405162461bcd60e51b815260206004820152602260248201527f45434453413a20696e76616c6964207369676e6174757265202773272076616c604482015261756560f01b606482015260840161077f565b6004816004811115611fae57611fae612750565b14156107915760405162461bcd60e51b815260206004820152602260248201527f45434453413a20696e76616c6964207369676e6174757265202776272076616c604482015261756560f01b606482015260840161077f565b60008481526066602090815260408083206001600160a01b0387168452600381019092529091205460ff161561208f5760405162461bcd60e51b815260206004820152602760248201527f476f7665726e6f72566f74696e6753696d706c653a20766f746520616c726561604482015266191e4818d85cdd60ca1b606482015260840161077f565b6001600160a01b03841660009081526003820160205260408120805460ff1916600117905560ff168360ff1614156120e057818160000160008282546120d59190612cbe565b909155506121869050565b60ff83166001141561210057818160010160008282546120d59190612cbe565b60ff83166002141561212057818160020160008282546120d59190612cbe565b60405162461bcd60e51b815260206004820152603560248201527f476f7665726e6f72566f74696e6753696d706c653a20696e76616c69642076616044820152746c756520666f7220656e756d20566f74655479706560581b606482015260840161077f565b5050505050565b60006001600160401b038211156121f55760405162461bcd60e51b815260206004820152602660248201527f53616665436173743a2076616c756520646f65736e27742066697420696e203660448201526534206269747360d01b606482015260840161077f565b5090565b60006020828403121561220b57600080fd5b5035919050565b60006020828403121561222457600080fd5b81356001600160e01b031981168114610d8157600080fd5b60005b8381101561225757818101518382015260200161223f565b83811115612266576000848401525b50505050565b6000815180845261228481602086016020860161223c565b601f01601f19169290920160200192915050565b602081526000610d81602083018461226c565b634e487b7160e01b600052604160045260246000fd5b604051601f8201601f191681016001600160401b03811182821017156122e9576122e96122ab565b604052919050565b60006001600160401b0382111561230a5761230a6122ab565b5060051b60200190565b6001600160a01b038116811461079157600080fd5b600082601f83011261233a57600080fd5b8135602061234f61234a836122f1565b6122c1565b82815260059290921b8401810191818101908684111561236e57600080fd5b8286015b8481101561239257803561238581612314565b8352918301918301612372565b509695505050505050565b600082601f8301126123ae57600080fd5b813560206123be61234a836122f1565b82815260059290921b840181019181810190868411156123dd57600080fd5b8286015b8481101561239257803583529183019183016123e1565b60006001600160401b03831115612411576124116122ab565b612424601f8401601f19166020016122c1565b905082815283838301111561243857600080fd5b828260208301376000602084830101529392505050565b600082601f83011261246057600080fd5b8135602061247061234a836122f1565b82815260059290921b8401810191818101908684111561248f57600080fd5b8286015b848110156123925780356001600160401b038111156124b25760008081fd5b8701603f810189136124c45760008081fd5b6124d58986830135604084016123f8565b845250918301918301612493565b600082601f8301126124f457600080fd5b610d81838335602085016123f8565b600080600080600060a0868803121561251b57600080fd5b85356001600160401b038082111561253257600080fd5b61253e89838a01612329565b9650602088013591508082111561255457600080fd5b61256089838a0161239d565b9550604088013591508082111561257657600080fd5b61258289838a0161244f565b9450606088013591508082111561259857600080fd5b506125a5888289016124e3565b95989497509295608001359392505050565b600080600080608085870312156125cd57600080fd5b84356001600160401b03808211156125e457600080fd5b6125f088838901612329565b9550602087013591508082111561260657600080fd5b6126128883890161239d565b9450604087013591508082111561262857600080fd5b506126358782880161244f565b949793965093946060013593505050565b60ff8116811461079157600080fd5b600080600080600060a0868803121561266d57600080fd5b85359450602086013561267f81612646565b9350604086013561268f81612646565b94979396509394606081013594506080013592915050565b600080600080600080600080610100898b0312156126c457600080fd5b88356126cf81612314565b975060208901356126df81612314565b965060408901356126ef81612314565b955060608901356126ff81612314565b9450608089013561270f81612314565b935060a089013561271f81612314565b925060c089013561272f81612314565b915060e089013561273f81612314565b809150509295985092959890939650565b634e487b7160e01b600052602160045260246000fd5b602081016008831061278857634e487b7160e01b600052602160045260246000fd5b91905290565b600080604083850312156127a157600080fd5b8235915060208301356127b381612314565b809150509250929050565b600080604083850312156127d157600080fd5b8235915060208301356127b381612646565b600080600080606085870312156127f957600080fd5b84359350602085013561280b81612646565b925060408501356001600160401b038082111561282757600080fd5b818701915087601f83011261283b57600080fd5b81358181111561284a57600080fd5b88602082850101111561285c57600080fd5b95989497505060200194505050565b6000806000806080858703121561288157600080fd5b84356001600160401b038082111561289857600080fd5b6128a488838901612329565b955060208701359150808211156128ba57600080fd5b6128c68883890161239d565b945060408701359150808211156128dc57600080fd5b6128e88883890161244f565b935060608701359150808211156128fe57600080fd5b5061290b878288016124e3565b91505092959194509250565b60006020828403121561292957600080fd5b8135610d8181612314565b6000806040838503121561294757600080fd5b823561295281612314565b946020939093013593505050565b6020808252601d908201527f496e6a6563746f723a20616c726561647920696e697469616c697a6564000000604082015260600190565b600181811c908216806129ab57607f821691505b60208210811415610dd057634e487b7160e01b600052602260045260246000fd5b6000602082840312156129de57600080fd5b8151610d8181612314565b6000602082840312156129fb57600080fd5b81518015158114610d8157600080fd5b60208082526018908201527f476f7665726e6f723a206f6e6c79476f7665726e616e63650000000000000000604082015260600190565b600081518084526020808501945080840160005b83811015612a7b5781516001600160a01b031687529582019590820190600101612a56565b509495945050505050565b600081518084526020808501945080840160005b83811015612a7b57815187529582019590820190600101612a9a565b600081518084526020808501808196508360051b8101915082860160005b85811015612afe578284038952612aec84835161226c565b98850198935090840190600101612ad4565b5091979650505050505050565b608081526000612b1e6080830187612a42565b8281036020840152612b308187612a86565b90508281036040840152612b448186612ab6565b91505082606083015295945050505050565b634e487b7160e01b600052601160045260246000fd5b6000816000190483118215151615612b8657612b86612b56565b500290565b600082612ba857634e487b7160e01b600052601260045260246000fd5b500490565b634e487b7160e01b600052603260045260246000fd5b60008251612bd581846020870161223c565b9190910192915050565b6000600019821415612bf357612bf3612b56565b5060010190565b84815260ff84166020820152826040820152608060608201526000610e7a608083018461226c565b600080835481600182811c915080831680612c3e57607f831692505b6020808410821415612c5e57634e487b7160e01b86526022600452602486fd5b818015612c725760018114612c8357612cb0565b60ff19861689528489019650612cb0565b60008a81526020902060005b86811015612ca85781548b820152908501908301612c8f565b505084890196505b509498975050505050505050565b60008219821115612cd157612cd1612b56565b500190565b60006020808385031215612ce957600080fd5b82516001600160401b03811115612cff57600080fd5b8301601f81018513612d1057600080fd5b8051612d1e61234a826122f1565b81815260059190911b82018301908381019087831115612d3d57600080fd5b928401925b82841015610baa578351612d5581612314565b82529284019290840190612d42565b600082821015612d7657612d76612b56565b500390565b60208082526021908201527f476f7665726e6f723a20696e76616c69642070726f706f73616c206c656e67746040820152600d60fb1b606082015260800190565b60006001600160401b03808316818516808303821115612dde57612dde612b56565b01949350505050565b60006101208b8352602060018060a01b038c1681850152816040850152612e108285018c612a42565b91508382036060850152612e24828b612a86565b915083820360808501528189518084528284019150828160051b850101838c0160005b83811015612e7557601f19878403018552612e6383835161226c565b94860194925090850190600101612e47565b505086810360a0880152612e89818c612ab6565b945050505050612ea460c08401876001600160401b03169052565b6001600160401b03851660e0840152828103610100840152612ec6818561226c565b9c9b505050505050505050505050565b805163ffffffff81168114612eea57600080fd5b919050565b600060208284031215612f0157600080fd5b610d8182612ed6565b80516001600160401b0381168114612eea57600080fd5b60008060008060008060008060006101208a8c031215612f4057600080fd5b8951612f4b81612314565b60208b0151909950612f5c81612646565b60408b01519098509650612f7260608b01612ed6565b9550612f8060808b01612f0a565b9450612f8e60a08b01612f0a565b9350612f9c60c08b01612f0a565b925060e08a015161ffff81168114612fb357600080fd5b6101008b01519092506bffffffffffffffffffffffff81168114612fd657600080fd5b80915050929598509295985092959856fe476f7665726e6f723a2063616c6c20726576657274656420776974686f7574206d657373616765a26469706673582212200320f15feee160f2e987754a30333740380dda7826b7c092fdf6448e29230df864736f6c634300080b0033",
  "immutableReferences": {
    "4211": [
      {
        "length": 32,
        "start": 7321
      }
    ],
    "4213": [
      {
        "length": 32,
        "start": 7279
      }
    ],
    "4215": [
      {
        "length": 32,
        "start": 7237
      }
    ],
    "4217": [
      {
        "length": 32,
        "start": 7404
      }
    ],
    "4219": [
      {
        "length": 32,
        "start": 7441
      }
    ],
    "4221": [
      {
        "length": 32,
        "start": 7362
      }
    ]
  },
  "source": "// SPDX-License-Identifier: GPL-3.0-only\r\npragma solidity ^0.8.0;\r\n\r\nimport \"@openzeppelin/contracts/governance/extensions/GovernorSettings.sol\";\r\nimport \"@openzeppelin/contracts/governance/extensions/GovernorCountingSimple.sol\";\r\nimport \"@openzeppelin/contracts/governance/extensions/GovernorVotes.sol\";\r\n\r\nimport \"./Injector.sol\";\r\n\r\ncontract Governance is InjectorContextHolder, GovernorCountingSimple, GovernorSettings, IGovernance {\r\n\r\n    uint256 internal _instantVotingPeriod;\r\n\r\n    constructor(bytes memory constructorParams) InjectorContextHolder(constructorParams) Governor(\"Governance\") GovernorSettings(0, 1, 0) {\r\n    }\r\n\r\n    function ctor(uint256 newVotingPeriod) external whenNotInitialized {\r\n        _setVotingPeriod(newVotingPeriod);\r\n    }\r\n\r\n    function getVotingSupply() external view returns (uint256) {\r\n        return _votingSupply(block.number);\r\n    }\r\n\r\n    function getVotingPower(address validator) external view returns (uint256) {\r\n        return _validatorVotingPowerAt(validator, block.number);\r\n    }\r\n\r\n    function proposeWithCustomVotingPeriod(\r\n        address[] memory targets,\r\n        uint256[] memory values,\r\n        bytes[] memory calldatas,\r\n        string memory description,\r\n        uint256 customVotingPeriod\r\n    ) public virtual onlyValidatorOwner returns (uint256) {\r\n        _instantVotingPeriod = customVotingPeriod;\r\n        uint256 proposalId = propose(targets, values, calldatas, description);\r\n        _instantVotingPeriod = 0;\r\n        return proposalId;\r\n    }\r\n\r\n    function propose(\r\n        address[] memory targets,\r\n        uint256[] memory values,\r\n        bytes[] memory calldatas,\r\n        string memory description\r\n    ) public virtual override onlyValidatorOwner returns (uint256) {\r\n        return Governor.propose(targets, values, calldatas, description);\r\n    }\r\n\r\n    modifier onlyValidatorOwner() {\r\n        address validatorAddress = _stakingContract.getValidatorByOwner(msg.sender);\r\n        require(_stakingContract.isValidatorActive(validatorAddress), \"Governance: only validator owner\");\r\n        _;\r\n    }\r\n\r\n    function votingPeriod() public view override(IGovernor, GovernorSettings) returns (uint256) {\r\n        // let us re-defined voting period for proposers\r\n        if (_instantVotingPeriod != 0) {\r\n            return _instantVotingPeriod;\r\n        }\r\n        return GovernorSettings.votingPeriod();\r\n    }\r\n\r\n    function getVotes(address account, uint256 blockNumber) public view override returns (uint256) {\r\n        return _validatorVotingPowerAt(account, blockNumber);\r\n    }\r\n\r\n    function _validatorVotingPowerAt(address validatorOwner, uint256 blockNumber) internal view returns (uint256) {\r\n        address validator = _stakingContract.getValidatorByOwner(validatorOwner);\r\n        // only active validators can vote\r\n        if (!_stakingContract.isValidatorActive(validator)) {\r\n            return 0;\r\n        }\r\n        // find validator votes at block number\r\n        uint64 epoch = uint64(blockNumber / _chainConfigContract.getEpochBlockInterval());\r\n        (,,uint256 totalDelegated,,,,,,) = _stakingContract.getValidatorStatusAtEpoch(validator, epoch);\r\n        // use total delegated amount is a voting power\r\n        return totalDelegated;\r\n    }\r\n\r\n    function _votingSupply(uint256 blockNumber) internal view returns (uint256 votingSupply) {\r\n        address[] memory validators = _stakingContract.getValidators();\r\n        for (uint256 i = 0; i < validators.length; i++) {\r\n            votingSupply += _validatorVotingPowerAt(validators[i], blockNumber);\r\n        }\r\n        return votingSupply;\r\n    }\r\n\r\n    function quorum(uint256 blockNumber) public view override returns (uint256) {\r\n        uint256 votingSupply = _votingSupply(blockNumber);\r\n        return votingSupply * 2 / 3;\r\n    }\r\n\r\n    function votingDelay() public view override(IGovernor, GovernorSettings) returns (uint256) {\r\n        return GovernorSettings.votingDelay();\r\n    }\r\n\r\n    function proposalThreshold() public view virtual override(Governor, GovernorSettings) returns (uint256) {\r\n        return GovernorSettings.proposalThreshold();\r\n    }\r\n}",
  "sourcePath": "D:\\code\\rust\\bas-genesis-config\\contracts\\Governance.sol",
  "compiler": {
    "name": "solc",
    "version": "0.8.11+commit.d7f03943.Emscripten.clang"
  },
  "schemaVersion": "3.4.4",
  "updatedAt": "2022-04-21T10:08:23.711Z",
  "devdoc": {
    "kind": "dev",
    "methods": {
      "COUNTING_MODE()": {
        "details": "See {IGovernor-COUNTING_MODE}."
      },
      "castVote(uint256,uint8)": {
        "details": "See {IGovernor-castVote}."
      },
      "castVoteBySig(uint256,uint8,uint8,bytes32,bytes32)": {
        "details": "See {IGovernor-castVoteBySig}."
      },
      "castVoteWithReason(uint256,uint8,string)": {
        "details": "See {IGovernor-castVoteWithReason}."
      },
      "execute(address[],uint256[],bytes[],bytes32)": {
        "details": "See {IGovernor-execute}."
      },
      "getVotes(address,uint256)": {
        "details": "Voting power of an `account` at a specific `blockNumber`. Note: this can be implemented in a number of ways, for example by reading the delegated balance from one (or multiple), {ERC20Votes} tokens."
      },
      "hasVoted(uint256,address)": {
        "details": "See {IGovernor-hasVoted}."
      },
      "hashProposal(address[],uint256[],bytes[],bytes32)": {
        "details": "See {IGovernor-hashProposal}. The proposal id is produced by hashing the RLC encoded `targets` array, the `values` array, the `calldatas` array and the descriptionHash (bytes32 which itself is the keccak256 hash of the description string). This proposal id can be produced from the proposal data which is part of the {ProposalCreated} event. It can even be computed in advance, before the proposal is submitted. Note that the chainId and the governor address are not part of the proposal id computation. Consequently, the same proposal (with same operation and same description) will have the same id if submitted on multiple governors accross multiple networks. This also means that in order to execute the same operation twice (on the same governor) the proposer will have to change the description in order to avoid proposal id conflicts."
      },
      "name()": {
        "details": "See {IGovernor-name}."
      },
      "proposalDeadline(uint256)": {
        "details": "See {IGovernor-proposalDeadline}."
      },
      "proposalSnapshot(uint256)": {
        "details": "See {IGovernor-proposalSnapshot}."
      },
      "proposalVotes(uint256)": {
        "details": "Accessor to the internal vote counts."
      },
      "propose(address[],uint256[],bytes[],string)": {
        "details": "See {IGovernor-propose}."
      },
      "quorum(uint256)": {
        "details": "Minimum number of cast voted required for a proposal to be successful. Note: The `blockNumber` parameter corresponds to the snaphot used for counting vote. This allows to scale the quroum depending on values such as the totalSupply of a token at this block (see {ERC20Votes})."
      },
      "setProposalThreshold(uint256)": {
        "details": "Update the proposal threshold. This operation can only be performed through a governance proposal. Emits a {ProposalThresholdSet} event."
      },
      "setVotingDelay(uint256)": {
        "details": "Update the voting delay. This operation can only be performed through a governance proposal. Emits a {VotingDelaySet} event."
      },
      "setVotingPeriod(uint256)": {
        "details": "Update the voting period. This operation can only be performed through a governance proposal. Emits a {VotingPeriodSet} event."
      },
      "state(uint256)": {
        "details": "See {IGovernor-state}."
      },
      "supportsInterface(bytes4)": {
        "details": "See {IERC165-supportsInterface}."
      },
      "version()": {
        "details": "See {IGovernor-version}."
      }
    },
    "version": 1
  },
  "userdoc": {
    "kind": "user",
    "methods": {
      "getVotes(address,uint256)": {
        "notice": "module:reputation"
      },
      "quorum(uint256)": {
        "notice": "module:user-config"
      }
    },
    "version": 1
  }
}