{
  "contractName": "RuntimeUpgrade",
  "abi": [
    {
      "inputs": [
        {
          "internalType": "bytes",
          "name": "constructorParams",
          "type": "bytes"
        }
      ],
      "stateMutability": "nonpayable",
      "type": "constructor"
    },
    {
      "anonymous": false,
      "inputs": [
        {
          "indexed": false,
          "internalType": "address",
          "name": "contractAddress",
          "type": "address"
        },
        {
          "indexed": false,
          "internalType": "bytes",
          "name": "newByteCode",
          "type": "bytes"
        }
      ],
      "name": "SmartContractUpgrade",
      "type": "event"
    },
    {
      "inputs": [],
      "name": "getChainConfig",
      "outputs": [
        {
          "internalType": "contract IChainConfig",
          "name": "",
          "type": "address"
        }
      ],
      "stateMutability": "view",
      "type": "function"
    },
    {
      "inputs": [],
      "name": "getGovernance",
      "outputs": [
        {
          "internalType": "contract IGovernance",
          "name": "",
          "type": "address"
        }
      ],
      "stateMutability": "view",
      "type": "function"
    },
    {
      "inputs": [],
      "name": "getSlashingIndicator",
      "outputs": [
        {
          "internalType": "contract ISlashingIndicator",
          "name": "",
          "type": "address"
        }
      ],
      "stateMutability": "view",
      "type": "function"
    },
    {
      "inputs": [],
      "name": "getStaking",
      "outputs": [
        {
          "internalType": "contract IStaking",
          "name": "",
          "type": "address"
        }
      ],
      "stateMutability": "view",
      "type": "function"
    },
    {
      "inputs": [],
      "name": "getStakingPool",
      "outputs": [
        {
          "internalType": "contract IStakingPool",
          "name": "",
          "type": "address"
        }
      ],
      "stateMutability": "view",
      "type": "function"
    },
    {
      "inputs": [],
      "name": "getSystemReward",
      "outputs": [
        {
          "internalType": "contract ISystemReward",
          "name": "",
          "type": "address"
        }
      ],
      "stateMutability": "view",
      "type": "function"
    },
    {
      "inputs": [],
      "name": "init",
      "outputs": [],
      "stateMutability": "nonpayable",
      "type": "function"
    },
    {
      "inputs": [
        {
          "internalType": "contract IStaking",
          "name": "stakingContract",
          "type": "address"
        },
        {
          "internalType": "contract ISlashingIndicator",
          "name": "slashingIndicatorContract",
          "type": "address"
        },
        {
          "internalType": "contract ISystemReward",
          "name": "systemRewardContract",
          "type": "address"
        },
        {
          "internalType": "contract IStakingPool",
          "name": "stakingPoolContract",
          "type": "address"
        },
        {
          "internalType": "contract IGovernance",
          "name": "governanceContract",
          "type": "address"
        },
        {
          "internalType": "contract IChainConfig",
          "name": "chainConfigContract",
          "type": "address"
        },
        {
          "internalType": "contract IRuntimeUpgrade",
          "name": "runtimeUpgradeContract",
          "type": "address"
        },
        {
          "internalType": "contract IDeployerProxy",
          "name": "deployerProxyContract",
          "type": "address"
        }
      ],
      "name": "initManually",
      "outputs": [],
      "stateMutability": "nonpayable",
      "type": "function"
    },
    {
      "inputs": [],
      "name": "isInitialized",
      "outputs": [
        {
          "internalType": "bool",
          "name": "",
          "type": "bool"
        }
      ],
      "stateMutability": "view",
      "type": "function"
    },
    {
      "inputs": [
        {
          "internalType": "address",
          "name": "evmHookAddress",
          "type": "address"
        }
      ],
      "name": "ctor",
      "outputs": [],
      "stateMutability": "nonpayable",
      "type": "function"
    },
    {
      "inputs": [],
      "name": "getEvmHookAddress",
      "outputs": [
        {
          "internalType": "address",
          "name": "",
          "type": "address"
        }
      ],
      "stateMutability": "view",
      "type": "function"
    },
    {
      "inputs": [
        {
          "internalType": "address",
          "name": "systemContractAddress",
          "type": "address"
        },
        {
          "internalType": "bytes",
          "name": "newByteCode",
          "type": "bytes"
        },
        {
          "internalType": "bytes",
          "name": "applyFunction",
          "type": "bytes"
        }
      ],
      "name": "upgradeSystemSmartContract",
      "outputs": [],
      "stateMutability": "nonpayable",
      "type": "function"
    },
    {
      "inputs": [
        {
          "internalType": "address",
          "name": "systemContractAddress",
          "type": "address"
        },
        {
          "internalType": "bytes",
          "name": "newByteCode",
          "type": "bytes"
        },
        {
          "internalType": "bytes",
          "name": "applyFunction",
          "type": "bytes"
        }
      ],
      "name": "deploySystemSmartContract",
      "outputs": [],
      "stateMutability": "nonpayable",
      "type": "function"
    },
    {
      "inputs": [],
      "name": "getSystemContracts",
      "outputs": [
        {
          "internalType": "address[]",
          "name": "",
          "type": "address[]"
        }
      ],
      "stateMutability": "view",
      "type": "function"
    }
  ],
  "bytecode": "0x60806040523480156200001157600080fd5b50604051620012cc380380620012cc833981016040819052620000349162000110565b805181906200004b90600190602084019062000054565b50505062000229565b8280546200006290620001ec565b90600052602060002090601f016020900481019282620000865760008555620000d1565b82601f10620000a157805160ff1916838001178555620000d1565b82800160010185558215620000d1579182015b82811115620000d1578251825591602001919060010190620000b4565b50620000df929150620000e3565b5090565b5b80821115620000df5760008155600101620000e4565b634e487b7160e01b600052604160045260246000fd5b600060208083850312156200012457600080fd5b82516001600160401b03808211156200013c57600080fd5b818501915085601f8301126200015157600080fd5b815181811115620001665762000166620000fa565b604051601f8201601f19908116603f01168101908382118183101715620001915762000191620000fa565b816040528281528886848701011115620001aa57600080fd5b600093505b82841015620001ce5784840186015181850187015292850192620001af565b82841115620001e05760008684830101525b98975050505050505050565b600181811c908216806200020157607f821691505b602082108114156200022357634e487b7160e01b600052602260045260246000fd5b50919050565b61109380620002396000396000f3fe608060405234801561001057600080fd5b50600436106100ea5760003560e01c8063459463341161008c5780637b1391a6116100665780637b1391a6146101c7578063a8648464146101d8578063afaf1dbc146101e9578063e1c7392a146101fc57600080fd5b80634594633414610194578063606c0c94146101a55780637a37cc59146101b657600080fd5b8063289b3c0d116100c8578063289b3c0d1461014757806338dc8ff314610158578063392e53cd1461016b5780633e1bbdc91461018157600080fd5b806316cbea51146100ef57806318f062cd14610104578063244d825714610122575b600080fd5b6101026100fd366004610c07565b610204565b005b61010c610252565b6040516101199190610c2b565b60405180910390f35b6003546001600160a01b03165b6040516001600160a01b039091168152602001610119565b6006546001600160a01b031661012f565b610102610166366004610cc1565b6104c3565b60005460ff166040519015158152602001610119565b61010261018f366004610d44565b610569565b6005546001600160a01b031661012f565b6007546001600160a01b031661012f565b6004546001600160a01b031661012f565b6002546001600160a01b031661012f565b6064546001600160a01b031661012f565b6101026101f7366004610cc1565b610625565b610102610714565b60005460ff16156102305760405162461bcd60e51b815260040161022790610ded565b60405180910390fd5b606480546001600160a01b0319166001600160a01b0392909216919091179055565b606554606090600090610266906008610e3a565b67ffffffffffffffff81111561027e5761027e610e52565b6040519080825280602002602001820160405280156102a7578160200160208202803683370190505b5060025481519192506001600160a01b03169082906000906102cb576102cb610e68565b6001600160a01b0392831660209182029290920101526003548251911690829060019081106102fc576102fc610e68565b6001600160a01b03928316602091820292909201015260045482519116908290600290811061032d5761032d610e68565b6001600160a01b03928316602091820292909201015260055482519116908290600390811061035e5761035e610e68565b6001600160a01b03928316602091820292909201015260065482519116908290600490811061038f5761038f610e68565b6001600160a01b0392831660209182029290920101526007548251911690829060059081106103c0576103c0610e68565b6001600160a01b0392831660209182029290920101526008548251911690829060069081106103f1576103f1610e68565b6001600160a01b03928316602091820292909201015260095482519116908290600790811061042257610422610e68565b60200260200101906001600160a01b031690816001600160a01b03168152505060005b6065548110156104bd576065818154811061046257610462610e68565b6000918252602090912001546001600160a01b031682610483836008610e3a565b8151811061049357610493610e68565b6001600160a01b0390921660209283029190910190910152806104b581610e7e565b915050610445565b50919050565b6006546001600160a01b031633146104ed5760405162461bcd60e51b815260040161022790610e99565b6104f6856107ba565b6105555760405162461bcd60e51b815260206004820152602a60248201527f52756e74696d65557067726164653a206f6e6c792073797374656d20736d61726044820152691d0818dbdb9d1c9858dd60b21b6064820152608401610227565b610562858585858561082c565b5050505050565b60005460ff161561058c5760405162461bcd60e51b815260040161022790610ded565b600280546001600160a01b03199081166001600160a01b038b8116919091179092556003805482168a84161790556004805482168984161790556005805482168884161790556006805482168784161790556007805482168684161790556008805482168584161790556009805490911691831691909117905561060e610afd565b50506000805460ff19166001179055505050505050565b6006546001600160a01b0316331461064f5760405162461bcd60e51b815260040161022790610e99565b843b1580156106645750610662856107ba565b155b6106b05760405162461bcd60e51b815260206004820181905260248201527f52756e74696d65557067726164653a206f6e6c79206e657720616464726573736044820152606401610227565b6106bd858585858561082c565b5050606580546001810182556000919091527f8ff97419363ffd7000167f130ef7168fbea05faf9251824ca5043f113cc6a7c70180546001600160a01b0319166001600160a01b0394909416939093179092555050565b60005460ff16156107375760405162461bcd60e51b815260040161022790610ded565b600280546001600160a01b031990811661100017909155600380548216611001179055600480548216611002179055600580548216617001179055600680548216617002179055600780548216617003179055600880548216617004179055600980549091166170051790556107ab610afd565b6000805460ff19166001179055565b6000806107c5610252565b905060005b815181101561082257836001600160a01b03168282815181106107ef576107ef610e68565b60200260200101516001600160a01b03161415610810575060019392505050565b8061081a81610e7e565b9150506107ca565b5060009392505050565b6000636fbc15e960e01b86868660405160240161084b93929190610edf565b60408051601f198184030181529181526020820180516001600160e01b03166001600160e01b03199094169390931790925260645491519092506000916001600160a01b03169061089d908490610f1f565b6000604051808303816000865af19150503d80600081146108da576040519150601f19603f3d011682016040523d82523d6000602084013e6108df565b606091505b50509050806109425760405162461bcd60e51b815260206004820152602960248201527f52756e74696d65557067726164653a206661696c656420746f20696e766f6b656044820152682045564d20686f6f6b60b81b6064820152608401610227565b6000879050806001600160a01b031663392e53cd6040518163ffffffff1660e01b8152600401602060405180830381865afa158015610985573d6000803e3d6000fd5b505050506040513d601f19601f820116820180604052508101906109a99190610f5a565b610a0157806001600160a01b031663e1c7392a6040518163ffffffff1660e01b8152600401600060405180830381600087803b1580156109e857600080fd5b505af11580156109fc573d6000803e3d6000fd5b505050505b8315610ab8576000886001600160a01b03168686604051610a23929190610f7c565b6000604051808303816000865af19150503d8060008114610a60576040519150601f19603f3d011682016040523d82523d6000602084013e610a65565b606091505b5050905080610ab65760405162461bcd60e51b815260206004820181905260248201527f52756e74696d65557067726164653a206d6967726174696f6e206661696c65646044820152606401610227565b505b7f294c52758d41df5421795a058ea4837ce9d9714c75091eb30fe6925d1231db4a888888604051610aeb93929190610edf565b60405180910390a15050505050505050565b60018054610b0a90610f8c565b15159050610b1457565b600080306001600160a01b03166001604051610b309190610fc1565b6000604051808303816000865af19150503d8060008114610b6d576040519150601f19603f3d011682016040523d82523d6000602084013e610b72565b606091505b50915091508115610b81575050565b8051610be65760405162461bcd60e51b815260206004820152602e60248201527f496e6a6563746f723a20636f6e737472756374696f6e206661696c656420772f60448201526d103ab735b737bbb71032b93937b960911b6064820152608401610227565b80518082602001fd5b6001600160a01b0381168114610c0457600080fd5b50565b600060208284031215610c1957600080fd5b8135610c2481610bef565b9392505050565b6020808252825182820181905260009190848201906040850190845b81811015610c6c5783516001600160a01b031683529284019291840191600101610c47565b50909695505050505050565b60008083601f840112610c8a57600080fd5b50813567ffffffffffffffff811115610ca257600080fd5b602083019150836020828501011115610cba57600080fd5b9250929050565b600080600080600060608688031215610cd957600080fd5b8535610ce481610bef565b9450602086013567ffffffffffffffff80821115610d0157600080fd5b610d0d89838a01610c78565b90965094506040880135915080821115610d2657600080fd5b50610d3388828901610c78565b969995985093965092949392505050565b600080600080600080600080610100898b031215610d6157600080fd5b8835610d6c81610bef565b97506020890135610d7c81610bef565b96506040890135610d8c81610bef565b95506060890135610d9c81610bef565b94506080890135610dac81610bef565b935060a0890135610dbc81610bef565b925060c0890135610dcc81610bef565b915060e0890135610ddc81610bef565b809150509295985092959890939650565b6020808252601d908201527f496e6a6563746f723a20616c726561647920696e697469616c697a6564000000604082015260600190565b634e487b7160e01b600052601160045260246000fd5b60008219821115610e4d57610e4d610e24565b500190565b634e487b7160e01b600052604160045260246000fd5b634e487b7160e01b600052603260045260246000fd5b6000600019821415610e9257610e92610e24565b5060010190565b60208082526026908201527f496e6a6563746f72436f6e74657874486f6c6465723a206f6e6c7920676f7665604082015265726e616e636560d01b606082015260800190565b6001600160a01b03841681526040602082018190528101829052818360608301376000818301606090810191909152601f909201601f1916010192915050565b6000825160005b81811015610f405760208186018101518583015201610f26565b81811115610f4f576000828501525b509190910192915050565b600060208284031215610f6c57600080fd5b81518015158114610c2457600080fd5b8183823760009101908152919050565b600181811c90821680610fa057607f821691505b602082108114156104bd57634e487b7160e01b600052602260045260246000fd5b600080835481600182811c915080831680610fdd57607f831692505b6020808410821415610ffd57634e487b7160e01b86526022600452602486fd5b81801561101157600181146110225761104f565b60ff1986168952848901965061104f565b60008a81526020902060005b868110156110475781548b82015290850190830161102e565b505084890196505b50949897505050505050505056fea26469706673582212206dd964e474e5b2159ce8d235049adfe7538d62dc0f0fa8dfd566b380eeba8e4b64736f6c634300080b0033",
  "immutableReferences": {},
  "source": "// SPDX-License-Identifier: GPL-3.0-only\r\npragma solidity ^0.8.0;\r\n\r\nimport \"./Injector.sol\";\r\n\r\ncontract RuntimeUpgrade is InjectorContextHolder, IRuntimeUpgrade {\r\n\r\n    event SmartContractUpgrade(address contractAddress, bytes newByteCode);\r\n\r\n    // address of the EVM hook\r\n    address internal _evmHookAddress;\r\n    // list of new deployed system smart contracts\r\n    address[] internal _deployedSystemContracts;\r\n\r\n    constructor(bytes memory constructorParams) InjectorContextHolder(constructorParams) {\r\n    }\r\n\r\n    function ctor(address evmHookAddress) external whenNotInitialized {\r\n        _evmHookAddress = evmHookAddress;\r\n    }\r\n\r\n    function getEvmHookAddress() external view override returns (address) {\r\n        return _evmHookAddress;\r\n    }\r\n\r\n    function upgradeSystemSmartContract(\r\n        address systemContractAddress,\r\n        bytes calldata newByteCode,\r\n        bytes calldata applyFunction\r\n    ) external onlyFromGovernance virtual override {\r\n        // we allow to upgrade only system smart contracts\r\n        require(_isSystemSmartContract(systemContractAddress), \"RuntimeUpgrade: only system smart contract\");\r\n        // upgrade system contract\r\n        _upgradeSystemSmartContract(systemContractAddress, newByteCode, applyFunction);\r\n    }\r\n\r\n    function deploySystemSmartContract(\r\n        address systemContractAddress,\r\n        bytes calldata newByteCode,\r\n        bytes calldata applyFunction\r\n    ) external onlyFromGovernance virtual override {\r\n        // disallow to upgrade plain contracts or system contracts (only new)\r\n        require(!_isContract(systemContractAddress) && !_isSystemSmartContract(systemContractAddress), \"RuntimeUpgrade: only new address\");\r\n        // upgrade system contract with provided bytecode\r\n        _upgradeSystemSmartContract(systemContractAddress, newByteCode, applyFunction);\r\n        // extend list of new system contracts to let it be a system smart contract\r\n        _deployedSystemContracts.push(systemContractAddress);\r\n    }\r\n\r\n    function getSystemContracts() public view override returns (address[] memory) {\r\n        address[] memory result = new address[](8 + _deployedSystemContracts.length);\r\n        // BSC-compatible\r\n        result[0] = address(_stakingContract);\r\n        result[1] = address(_slashingIndicatorContract);\r\n        result[2] = address(_systemRewardContract);\r\n        // BAS-defined\r\n        result[3] = address(_stakingPoolContract);\r\n        result[4] = address(_governanceContract);\r\n        result[5] = address(_chainConfigContract);\r\n        result[6] = address(_runtimeUpgradeContract);\r\n        result[7] = address(_deployerProxyContract);\r\n        // copy deployed system smart contracts\r\n        for (uint256 i = 0; i < _deployedSystemContracts.length; i++) {\r\n            result[8 + i] = _deployedSystemContracts[i];\r\n        }\r\n        return result;\r\n    }\r\n\r\n    function _isContract(address account) internal view returns (bool) {\r\n        uint256 size;\r\n        assembly {\r\n            size := extcodesize(account)\r\n        }\r\n        return size > 0;\r\n    }\r\n\r\n    function _isSystemSmartContract(address contractAddress) internal returns (bool) {\r\n        address[] memory systemContracts = getSystemContracts();\r\n        for (uint256 i = 0; i < systemContracts.length; i++) {\r\n            if (systemContracts[i] == contractAddress) return true;\r\n        }\r\n        return false;\r\n    }\r\n\r\n    function _upgradeSystemSmartContract(\r\n        address systemContractAddress,\r\n        bytes calldata newByteCode,\r\n        bytes calldata applyFunction\r\n    ) internal {\r\n        // modify bytecode using EVM hook\r\n        bytes memory inputData = abi.encodeWithSelector(IRuntimeUpgradeEvmHook.upgradeTo.selector, systemContractAddress, newByteCode);\r\n        (bool result,) = address(_evmHookAddress).call(inputData);\r\n        require(result, \"RuntimeUpgrade: failed to invoke EVM hook\");\r\n        // if this is new smart contract then run \"init\" function\r\n        IInjector injector = IInjector(systemContractAddress);\r\n        if (!injector.isInitialized()) {\r\n            injector.init();\r\n        }\r\n        // call migration function if specified\r\n        if (applyFunction.length > 0) {\r\n            (bool result,) = systemContractAddress.call(applyFunction);\r\n            require(result, \"RuntimeUpgrade: migration failed\");\r\n        }\r\n        // emit event\r\n        emit SmartContractUpgrade(systemContractAddress, newByteCode);\r\n    }\r\n}",
  "sourcePath": "D:\\code\\rust\\bas-genesis-config\\contracts\\RuntimeUpgrade.sol",
  "compiler": {
    "name": "solc",
    "version": "0.8.11+commit.d7f03943.Emscripten.clang"
  },
  "schemaVersion": "3.4.4",
  "updatedAt": "2022-04-21T10:08:23.742Z",
  "devdoc": {
    "kind": "dev",
    "methods": {},
    "version": 1
  },
  "userdoc": {
    "kind": "user",
    "methods": {},
    "version": 1
  }
}