{
  "contractName": "SlashingIndicator",
  "abi": [
    {
      "inputs": [
        {
          "internalType": "bytes",
          "name": "ctor",
          "type": "bytes"
        }
      ],
      "stateMutability": "nonpayable",
      "type": "constructor"
    },
    {
      "inputs": [],
      "name": "getChainConfig",
      "outputs": [
        {
          "internalType": "contract IChainConfig",
          "name": "",
          "type": "address"
        }
      ],
      "stateMutability": "view",
      "type": "function"
    },
    {
      "inputs": [],
      "name": "getGovernance",
      "outputs": [
        {
          "internalType": "contract IGovernance",
          "name": "",
          "type": "address"
        }
      ],
      "stateMutability": "view",
      "type": "function"
    },
    {
      "inputs": [],
      "name": "getSlashingIndicator",
      "outputs": [
        {
          "internalType": "contract ISlashingIndicator",
          "name": "",
          "type": "address"
        }
      ],
      "stateMutability": "view",
      "type": "function"
    },
    {
      "inputs": [],
      "name": "getStaking",
      "outputs": [
        {
          "internalType": "contract IStaking",
          "name": "",
          "type": "address"
        }
      ],
      "stateMutability": "view",
      "type": "function"
    },
    {
      "inputs": [],
      "name": "getStakingPool",
      "outputs": [
        {
          "internalType": "contract IStakingPool",
          "name": "",
          "type": "address"
        }
      ],
      "stateMutability": "view",
      "type": "function"
    },
    {
      "inputs": [],
      "name": "getSystemReward",
      "outputs": [
        {
          "internalType": "contract ISystemReward",
          "name": "",
          "type": "address"
        }
      ],
      "stateMutability": "view",
      "type": "function"
    },
    {
      "inputs": [],
      "name": "init",
      "outputs": [],
      "stateMutability": "nonpayable",
      "type": "function"
    },
    {
      "inputs": [
        {
          "internalType": "contract IStaking",
          "name": "stakingContract",
          "type": "address"
        },
        {
          "internalType": "contract ISlashingIndicator",
          "name": "slashingIndicatorContract",
          "type": "address"
        },
        {
          "internalType": "contract ISystemReward",
          "name": "systemRewardContract",
          "type": "address"
        },
        {
          "internalType": "contract IStakingPool",
          "name": "stakingPoolContract",
          "type": "address"
        },
        {
          "internalType": "contract IGovernance",
          "name": "governanceContract",
          "type": "address"
        },
        {
          "internalType": "contract IChainConfig",
          "name": "chainConfigContract",
          "type": "address"
        },
        {
          "internalType": "contract IRuntimeUpgrade",
          "name": "runtimeUpgradeContract",
          "type": "address"
        },
        {
          "internalType": "contract IDeployerProxy",
          "name": "deployerProxyContract",
          "type": "address"
        }
      ],
      "name": "initManually",
      "outputs": [],
      "stateMutability": "nonpayable",
      "type": "function"
    },
    {
      "inputs": [],
      "name": "isInitialized",
      "outputs": [
        {
          "internalType": "bool",
          "name": "",
          "type": "bool"
        }
      ],
      "stateMutability": "view",
      "type": "function"
    },
    {
      "inputs": [],
      "name": "ctor",
      "outputs": [],
      "stateMutability": "nonpayable",
      "type": "function"
    },
    {
      "inputs": [
        {
          "internalType": "address",
          "name": "validator",
          "type": "address"
        }
      ],
      "name": "slash",
      "outputs": [],
      "stateMutability": "nonpayable",
      "type": "function"
    }
  ],
  "bytecode": "0x608060405234801561001057600080fd5b506040516108f73803806108f783398101604081905261002f916100fb565b8051819061004490600190602084019061004c565b505050610205565b828054610058906101ca565b90600052602060002090601f01602090048101928261007a57600085556100c0565b82601f1061009357805160ff19168380011785556100c0565b828001600101855582156100c0579182015b828111156100c05782518255916020019190600101906100a5565b506100cc9291506100d0565b5090565b5b808211156100cc57600081556001016100d1565b634e487b7160e01b600052604160045260246000fd5b6000602080838503121561010e57600080fd5b82516001600160401b038082111561012557600080fd5b818501915085601f83011261013957600080fd5b81518181111561014b5761014b6100e5565b604051601f8201601f19908116603f01168101908382118183101715610173576101736100e5565b81604052828152888684870101111561018b57600080fd5b600093505b828410156101ad5784840186015181850187015292850192610190565b828411156101be5760008684830101525b98975050505050505050565b600181811c908216806101de57607f821691505b602082108114156101ff57634e487b7160e01b600052602260045260246000fd5b50919050565b6106e3806102146000396000f3fe608060405234801561001057600080fd5b50600436106100a95760003560e01c806346344031116100715780634634403114610125578063606c0c941461012d5780637a37cc591461013e5780637b1391a61461014f578063c96be4cb14610160578063e1c7392a1461017357600080fd5b8063244d8257146100ae578063289b3c0d146100d8578063392e53cd146100e95780633e1bbdc9146100ff5780634594633414610114575b600080fd5b6003546001600160a01b03165b6040516001600160a01b0390911681526020015b60405180910390f35b6006546001600160a01b03166100bb565b60005460ff1660405190151581526020016100cf565b61011261010d3660046104d2565b61017b565b005b6005546001600160a01b03166100bb565b610112610240565b6007546001600160a01b03166100bb565b6004546001600160a01b03166100bb565b6002546001600160a01b03166100bb565b61011261016e36600461057b565b610265565b610112610322565b60005460ff16156101a75760405162461bcd60e51b815260040161019e9061059f565b60405180910390fd5b600280546001600160a01b03199081166001600160a01b038b8116919091179092556003805482168a8416179055600480548216898416179055600580548216888416179055600680548216878416179055600780548216868416179055600880548216858416179055600980549091169183169190911790556102296103c8565b50506000805460ff19166001179055505050505050565b60005460ff16156102635760405162461bcd60e51b815260040161019e9061059f565b565b3341146102c05760405162461bcd60e51b8152602060048201526024808201527f496e6a6563746f72436f6e74657874486f6c6465723a206f6e6c7920636f696e6044820152636261736560e01b606482015260840161019e565b60025460405163c96be4cb60e01b81526001600160a01b0383811660048301529091169063c96be4cb90602401600060405180830381600087803b15801561030757600080fd5b505af115801561031b573d6000803e3d6000fd5b5050505050565b60005460ff16156103455760405162461bcd60e51b815260040161019e9061059f565b600280546001600160a01b031990811661100017909155600380548216611001179055600480548216611002179055600580548216617001179055600680548216617002179055600780548216617003179055600880548216617004179055600980549091166170051790556103b96103c8565b6000805460ff19166001179055565b600180546103d5906105d6565b151590506103df57565b600080306001600160a01b031660016040516103fb9190610611565b6000604051808303816000865af19150503d8060008114610438576040519150601f19603f3d011682016040523d82523d6000602084013e61043d565b606091505b5091509150811561044c575050565b80516104b15760405162461bcd60e51b815260206004820152602e60248201527f496e6a6563746f723a20636f6e737472756374696f6e206661696c656420772f60448201526d103ab735b737bbb71032b93937b960911b606482015260840161019e565b80518082602001fd5b6001600160a01b03811681146104cf57600080fd5b50565b600080600080600080600080610100898b0312156104ef57600080fd5b88356104fa816104ba565b9750602089013561050a816104ba565b9650604089013561051a816104ba565b9550606089013561052a816104ba565b9450608089013561053a816104ba565b935060a089013561054a816104ba565b925060c089013561055a816104ba565b915060e089013561056a816104ba565b809150509295985092959890939650565b60006020828403121561058d57600080fd5b8135610598816104ba565b9392505050565b6020808252601d908201527f496e6a6563746f723a20616c726561647920696e697469616c697a6564000000604082015260600190565b600181811c908216806105ea57607f821691505b6020821081141561060b57634e487b7160e01b600052602260045260246000fd5b50919050565b600080835481600182811c91508083168061062d57607f831692505b602080841082141561064d57634e487b7160e01b86526022600452602486fd5b81801561066157600181146106725761069f565b60ff1986168952848901965061069f565b60008a81526020902060005b868110156106975781548b82015290850190830161067e565b505084890196505b50949897505050505050505056fea264697066735822122096bee7b781262d06942bebed97daa76b52c69b7e68f2978d15b165e692f9068f64736f6c634300080b0033",
  "immutableReferences": {},
  "source": "// SPDX-License-Identifier: GPL-3.0-only\r\npragma solidity ^0.8.0;\r\n\r\nimport \"./Injector.sol\";\r\n\r\ncontract SlashingIndicator is ISlashingIndicator, InjectorContextHolder {\r\n\r\n    constructor(bytes memory ctor) InjectorContextHolder(ctor) {\r\n    }\r\n\r\n    function ctor() external whenNotInitialized {\r\n    }\r\n\r\n    function slash(address validator) external onlyFromCoinbase virtual override {\r\n        // we need this proxy to be compatible with BSC\r\n        _stakingContract.slash(validator);\r\n    }\r\n}",
  "sourcePath": "D:\\code\\rust\\bas-genesis-config\\contracts\\SlashingIndicator.sol",
  "compiler": {
    "name": "solc",
    "version": "0.8.11+commit.d7f03943.Emscripten.clang"
  },
  "schemaVersion": "3.4.4",
  "updatedAt": "2022-04-21T10:08:23.756Z",
  "devdoc": {
    "kind": "dev",
    "methods": {},
    "version": 1
  },
  "userdoc": {
    "kind": "user",
    "methods": {},
    "version": 1
  }
}