{
  "contractName": "StakingPool",
  "abi": [
    {
      "inputs": [
        {
          "internalType": "bytes",
          "name": "constructorParams",
          "type": "bytes"
        }
      ],
      "stateMutability": "nonpayable",
      "type": "constructor"
    },
    {
      "anonymous": false,
      "inputs": [
        {
          "indexed": true,
          "internalType": "address",
          "name": "validator",
          "type": "address"
        },
        {
          "indexed": true,
          "internalType": "address",
          "name": "staker",
          "type": "address"
        },
        {
          "indexed": false,
          "internalType": "uint256",
          "name": "amount",
          "type": "uint256"
        }
      ],
      "name": "Claim",
      "type": "event"
    },
    {
      "anonymous": false,
      "inputs": [
        {
          "indexed": true,
          "internalType": "address",
          "name": "validator",
          "type": "address"
        },
        {
          "indexed": true,
          "internalType": "address",
          "name": "staker",
          "type": "address"
        },
        {
          "indexed": false,
          "internalType": "uint256",
          "name": "amount",
          "type": "uint256"
        }
      ],
      "name": "Stake",
      "type": "event"
    },
    {
      "anonymous": false,
      "inputs": [
        {
          "indexed": true,
          "internalType": "address",
          "name": "validator",
          "type": "address"
        },
        {
          "indexed": true,
          "internalType": "address",
          "name": "staker",
          "type": "address"
        },
        {
          "indexed": false,
          "internalType": "uint256",
          "name": "amount",
          "type": "uint256"
        }
      ],
      "name": "Unstake",
      "type": "event"
    },
    {
      "inputs": [],
      "name": "getChainConfig",
      "outputs": [
        {
          "internalType": "contract IChainConfig",
          "name": "",
          "type": "address"
        }
      ],
      "stateMutability": "view",
      "type": "function"
    },
    {
      "inputs": [],
      "name": "getGovernance",
      "outputs": [
        {
          "internalType": "contract IGovernance",
          "name": "",
          "type": "address"
        }
      ],
      "stateMutability": "view",
      "type": "function"
    },
    {
      "inputs": [],
      "name": "getSlashingIndicator",
      "outputs": [
        {
          "internalType": "contract ISlashingIndicator",
          "name": "",
          "type": "address"
        }
      ],
      "stateMutability": "view",
      "type": "function"
    },
    {
      "inputs": [],
      "name": "getStaking",
      "outputs": [
        {
          "internalType": "contract IStaking",
          "name": "",
          "type": "address"
        }
      ],
      "stateMutability": "view",
      "type": "function"
    },
    {
      "inputs": [],
      "name": "getStakingPool",
      "outputs": [
        {
          "internalType": "contract IStakingPool",
          "name": "",
          "type": "address"
        }
      ],
      "stateMutability": "view",
      "type": "function"
    },
    {
      "inputs": [],
      "name": "getSystemReward",
      "outputs": [
        {
          "internalType": "contract ISystemReward",
          "name": "",
          "type": "address"
        }
      ],
      "stateMutability": "view",
      "type": "function"
    },
    {
      "inputs": [],
      "name": "init",
      "outputs": [],
      "stateMutability": "nonpayable",
      "type": "function"
    },
    {
      "inputs": [
        {
          "internalType": "contract IStaking",
          "name": "stakingContract",
          "type": "address"
        },
        {
          "internalType": "contract ISlashingIndicator",
          "name": "slashingIndicatorContract",
          "type": "address"
        },
        {
          "internalType": "contract ISystemReward",
          "name": "systemRewardContract",
          "type": "address"
        },
        {
          "internalType": "contract IStakingPool",
          "name": "stakingPoolContract",
          "type": "address"
        },
        {
          "internalType": "contract IGovernance",
          "name": "governanceContract",
          "type": "address"
        },
        {
          "internalType": "contract IChainConfig",
          "name": "chainConfigContract",
          "type": "address"
        },
        {
          "internalType": "contract IRuntimeUpgrade",
          "name": "runtimeUpgradeContract",
          "type": "address"
        },
        {
          "internalType": "contract IDeployerProxy",
          "name": "deployerProxyContract",
          "type": "address"
        }
      ],
      "name": "initManually",
      "outputs": [],
      "stateMutability": "nonpayable",
      "type": "function"
    },
    {
      "inputs": [],
      "name": "isInitialized",
      "outputs": [
        {
          "internalType": "bool",
          "name": "",
          "type": "bool"
        }
      ],
      "stateMutability": "view",
      "type": "function"
    },
    {
      "stateMutability": "payable",
      "type": "receive"
    },
    {
      "inputs": [],
      "name": "ctor",
      "outputs": [],
      "stateMutability": "nonpayable",
      "type": "function"
    },
    {
      "inputs": [
        {
          "internalType": "address",
          "name": "validator",
          "type": "address"
        },
        {
          "internalType": "address",
          "name": "staker",
          "type": "address"
        }
      ],
      "name": "getStakedAmount",
      "outputs": [
        {
          "internalType": "uint256",
          "name": "",
          "type": "uint256"
        }
      ],
      "stateMutability": "view",
      "type": "function"
    },
    {
      "inputs": [
        {
          "internalType": "address",
          "name": "validator",
          "type": "address"
        },
        {
          "internalType": "address",
          "name": "staker",
          "type": "address"
        }
      ],
      "name": "getShares",
      "outputs": [
        {
          "internalType": "uint256",
          "name": "",
          "type": "uint256"
        }
      ],
      "stateMutability": "view",
      "type": "function"
    },
    {
      "inputs": [
        {
          "internalType": "address",
          "name": "validator",
          "type": "address"
        }
      ],
      "name": "getValidatorPool",
      "outputs": [
        {
          "components": [
            {
              "internalType": "address",
              "name": "validatorAddress",
              "type": "address"
            },
            {
              "internalType": "uint256",
              "name": "sharesSupply",
              "type": "uint256"
            },
            {
              "internalType": "uint256",
              "name": "totalStakedAmount",
              "type": "uint256"
            },
            {
              "internalType": "uint256",
              "name": "dustRewards",
              "type": "uint256"
            },
            {
              "internalType": "uint256",
              "name": "pendingUnstake",
              "type": "uint256"
            }
          ],
          "internalType": "struct StakingPool.ValidatorPool",
          "name": "",
          "type": "tuple"
        }
      ],
      "stateMutability": "view",
      "type": "function"
    },
    {
      "inputs": [
        {
          "internalType": "address",
          "name": "validator",
          "type": "address"
        }
      ],
      "name": "getRatio",
      "outputs": [
        {
          "internalType": "uint256",
          "name": "",
          "type": "uint256"
        }
      ],
      "stateMutability": "view",
      "type": "function"
    },
    {
      "inputs": [
        {
          "internalType": "address",
          "name": "validator",
          "type": "address"
        }
      ],
      "name": "stake",
      "outputs": [],
      "stateMutability": "payable",
      "type": "function"
    },
    {
      "inputs": [
        {
          "internalType": "address",
          "name": "validator",
          "type": "address"
        },
        {
          "internalType": "uint256",
          "name": "amount",
          "type": "uint256"
        }
      ],
      "name": "unstake",
      "outputs": [],
      "stateMutability": "nonpayable",
      "type": "function"
    },
    {
      "inputs": [
        {
          "internalType": "address",
          "name": "validator",
          "type": "address"
        },
        {
          "internalType": "address",
          "name": "staker",
          "type": "address"
        }
      ],
      "name": "claimableRewards",
      "outputs": [
        {
          "internalType": "uint256",
          "name": "",
          "type": "uint256"
        }
      ],
      "stateMutability": "view",
      "type": "function"
    },
    {
      "inputs": [
        {
          "internalType": "address",
          "name": "validator",
          "type": "address"
        }
      ],
      "name": "claim",
      "outputs": [],
      "stateMutability": "nonpayable",
      "type": "function"
    }
  ],
  "bytecode": "0x60806040523480156200001157600080fd5b5060405162001ca938038062001ca9833981016040819052620000349162000110565b805181906200004b90600190602084019062000054565b50505062000229565b8280546200006290620001ec565b90600052602060002090601f016020900481019282620000865760008555620000d1565b82601f10620000a157805160ff1916838001178555620000d1565b82800160010185558215620000d1579182015b82811115620000d1578251825591602001919060010190620000b4565b50620000df929150620000e3565b5090565b5b80821115620000df5760008155600101620000e4565b634e487b7160e01b600052604160045260246000fd5b600060208083850312156200012457600080fd5b82516001600160401b03808211156200013c57600080fd5b818501915085601f8301126200015157600080fd5b815181811115620001665762000166620000fa565b604051601f8201601f19908116603f01168101908382118183101715620001915762000191620000fa565b816040528281528886848701011115620001aa57600080fd5b600093505b82841015620001ce5784840186015181850187015292850192620001af565b82841115620001e05760008684830101525b98975050505050505050565b600181811c908216806200020157607f821691505b602082108114156200022357634e487b7160e01b600052602260045260246000fd5b50919050565b611a7080620002396000396000f3fe60806040526004361061010c5760003560e01c80634594633411610095578063754b270711610064578063754b27071461036b5780637a37cc591461038b5780637b1391a6146103a9578063c2a672e0146103c7578063e1c7392a146103e757600080fd5b806345946334146102d457806346344031146102f2578063606c0c94146103075780636be9dcce1461032557600080fd5b8063244d8257116100dc578063244d82571461022e5780632647620414610260578063289b3c0d14610273578063392e53cd146102915780633e1bbdc9146102b457600080fd5b80623920401461012f5780630db14e95146101885780631712b0d8146101a85780631e83409a1461020e57600080fd5b3661012a576002546001600160a01b0316331461012857600080fd5b005b600080fd5b34801561013b57600080fd5b5061017561014a3660046116c9565b6001600160a01b03918216600090815260666020908152604080832093909416825291909152205490565b6040519081526020015b60405180910390f35b34801561019457600080fd5b506101756101a33660046116c9565b6103fc565b3480156101b457600080fd5b506101c86101c3366004611702565b61045d565b60405161017f919081516001600160a01b031681526020808301519082015260408083015190820152606080830151908201526080918201519181019190915260a00190565b34801561021a57600080fd5b50610128610229366004611702565b6104a3565b34801561023a57600080fd5b506003546001600160a01b03165b6040516001600160a01b03909116815260200161017f565b61012861026e366004611702565b61090a565b34801561027f57600080fd5b506006546001600160a01b0316610248565b34801561029d57600080fd5b5060005460ff16604051901515815260200161017f565b3480156102c057600080fd5b506101286102cf36600461171f565b610c00565b3480156102e057600080fd5b506005546001600160a01b0316610248565b3480156102fe57600080fd5b50610128610cbc565b34801561031357600080fd5b506007546001600160a01b0316610248565b34801561033157600080fd5b506101756103403660046116c9565b6001600160a01b03918216600090815260656020908152604080832093909416825291909152205490565b34801561037757600080fd5b50610175610386366004611702565b610ce1565b34801561039757600080fd5b506004546001600160a01b0316610248565b3480156103b557600080fd5b506002546001600160a01b0316610248565b3480156103d357600080fd5b506101286103e23660046117c8565b610cff565b3480156103f357600080fd5b506101286112bd565b60008061040884611363565b9050610413816113c2565b6001600160a01b0380861660009081526066602090815260408083209388168352929052205461044b90670de0b6b3a764000061180a565b6104559190611829565b949350505050565b610465611679565b600061047083611363565b905060008061047e8361142b565b915091508183604001818151610494919061184b565b90525060608301525092915050565b8060006104af82611363565b90506000806104bd8361142b565b60025460405163426594b160e01b81526001600160a01b038881166004830152939550919350919091169063426594b190602401600060405180830381600087803b15801561050b57600080fd5b505af115801561051f573d6000803e3d6000fd5b50505050600082111561058e576002546040516317066a5760e21b81526001600160a01b03868116600483015290911690635c19a95c9084906024016000604051808303818588803b15801561057457600080fd5b505af1158015610588573d6000803e3d6000fd5b50505050505b81836040018181516105a0919061184b565b90525060608381019182526001600160a01b038581166000908152606460209081526040808320885181546001600160a01b03191690861617815582890151600180830191909155828a015160028084019190915597516003830155608090990151600490910155928916825260658152828220338352815290829020825193840183528054808552968101549184018290529093015467ffffffffffffffff1690820152929150610656565b60405180910390fd5b600260009054906101000a90046001600160a01b03166001600160a01b031663766718086040518163ffffffff1660e01b8152600401602060405180830381865afa1580156106a9573d6000803e3d6000fd5b505050506040513d601f19601f820116820180604052508101906106cd9190611863565b67ffffffffffffffff16836040015167ffffffffffffffff16111561072d5760405162461bcd60e51b81526020600482015260166024820152755374616b696e67506f6f6c3a206e6f7420726561647960501b604482015260640161064d565b6001600160a01b03851660009081526066602090815260408083203384529091528120805483929061076090849061188d565b909155506000905061077186611363565b90508181602001818151610785919061188d565b90525060408101805184919061079c90839061188d565b9052506080810180518491906107b390839061188d565b9052506001600160a01b038681166000908152606460209081526040808320855181546001600160a01b031916951694909417845584820151600180860191909155858201516002808701919091556060870151600387015560808701516004909601959095556065835281842033855290925282208281559081019190915501805467ffffffffffffffff19169055478311156108935760405162461bcd60e51b815260206004820152601f60248201527f5374616b696e67506f6f6c3a206e6f7420656e6f7567682062616c616e636500604482015260640161064d565b604051339084156108fc029085906000818181858888f193505050501580156108c0573d6000803e3d6000fd5b5060405183815233906001600160a01b038816907f70eb43c4a8ae8c40502dcf22436c509c28d6ff421cf07c491be56984bd987068906020015b60405180910390a3505050505050565b80600061091682611363565b90506000806109248361142b565b60025460405163426594b160e01b81526001600160a01b038881166004830152939550919350919091169063426594b190602401600060405180830381600087803b15801561097257600080fd5b505af1158015610986573d6000803e3d6000fd5b5050505060008211156109f5576002546040516317066a5760e21b81526001600160a01b03868116600483015290911690635c19a95c9084906024016000604051808303818588803b1580156109db57600080fd5b505af11580156109ef573d6000803e3d6000fd5b50505050505b8183604001818151610a07919061184b565b905250606083019081526001600160a01b038481166000908152606460209081526040808320875181546001600160a01b031916951694909417845590860151600184015585015160028301559151600382015560809093015160049093019290925550610a7483611363565b90506000670de0b6b3a7640000610a8a836113c2565b610a94903461180a565b610a9e9190611829565b6001600160a01b0385166000908152606660209081526040808320338452909152812080549293508392909190610ad690849061184b565b925050819055503482604001818151610aef919061184b565b905250602082018051829190610b0690839061184b565b9052506001600160a01b03848116600081815260646020908152604091829020865181546001600160a01b031916908616178155908601516001820155858201516002808301919091556060870151600383015560808701516004928301555491516317066a5760e21b81529081019290925290911690635c19a95c9034906024016000604051808303818588803b158015610ba157600080fd5b505af1158015610bb5573d6000803e3d6000fd5b50506040513481523393506001600160a01b03881692507f99039fcf0a98f484616c5196ee8b2ecfa971babf0b519848289ea4db381f85f7915060200160405180910390a350505050565b60005460ff1615610c235760405162461bcd60e51b815260040161064d906118a4565b600280546001600160a01b03199081166001600160a01b038b8116919091179092556003805482168a841617905560048054821689841617905560058054821688841617905560068054821687841617905560078054821686841617905560088054821685841617905560098054909116918316919091179055610ca5611587565b50506000805460ff19166001179055505050505050565b60005460ff1615610cdf5760405162461bcd60e51b815260040161064d906118a4565b565b600080610ced83611363565b9050610cf8816113c2565b9392505050565b816000610d0b82611363565b9050600080610d198361142b565b60025460405163426594b160e01b81526001600160a01b038881166004830152939550919350919091169063426594b190602401600060405180830381600087803b158015610d6757600080fd5b505af1158015610d7b573d6000803e3d6000fd5b505050506000821115610dea576002546040516317066a5760e21b81526001600160a01b03868116600483015290911690635c19a95c9084906024016000604051808303818588803b158015610dd057600080fd5b505af1158015610de4573d6000803e3d6000fd5b50505050505b8183604001818151610dfc919061184b565b905250606083019081526001600160a01b038481166000908152606460209081526040808320875181546001600160a01b031916951694909417845590860151600184015585015160028301559151600382015560809093015160049093019290925550610e6984611363565b90506000816040015111610ebf5760405162461bcd60e51b815260206004820152601f60248201527f5374616b696e67506f6f6c3a206e6f7468696e6720746f20756e7374616b6500604482015260640161064d565b6001600160a01b038416600090815260656020908152604080832033845290915290206002015467ffffffffffffffff1615610f3d5760405162461bcd60e51b815260206004820152601f60248201527f5374616b696e67506f6f6c3a20756e64656c65676174652070656e64696e6700604482015260640161064d565b6000670de0b6b3a7640000610f51836113c2565b610f5b908661180a565b610f659190611829565b6001600160a01b0386166000908152606660209081526040808320338452909152902054909150811115610fdb5760405162461bcd60e51b815260206004820152601e60248201527f5374616b696e67506f6f6c3a206e6f7420656e6f756768207368617265730000604482015260640161064d565b6002546040516326ccee8b60e11b81526001600160a01b0387811660048301526024820187905290911690634d99dd1690604401600060405180830381600087803b15801561102957600080fd5b505af115801561103d573d6000803e3d6000fd5b505050506000600260009054906101000a90046001600160a01b03166001600160a01b031663606c0c946040518163ffffffff1660e01b8152600401602060405180830381865afa158015611096573d6000803e3d6000fd5b505050506040513d601f19601f820116820180604052508101906110ba91906118db565b90506040518060600160405280868152602001838152602001826001600160a01b0316635e7b72ad6040518163ffffffff1660e01b8152600401602060405180830381865afa158015611111573d6000803e3d6000fd5b505050506040513d601f19601f8201168201806040525081019061113591906118f8565b63ffffffff16600260009054906101000a90046001600160a01b03166001600160a01b031663aea0e78b6040518163ffffffff1660e01b8152600401602060405180830381865afa15801561118e573d6000803e3d6000fd5b505050506040513d601f19601f820116820180604052508101906111b29190611863565b6111bc919061191e565b67ffffffffffffffff9081169091526001600160a01b0388166000908152606560209081526040808320338452825291829020845181559084015160018201559201516002909201805467ffffffffffffffff19169290911691909117905560808301805186919061122f90839061184b565b9052506001600160a01b03868116600081815260646020908152604091829020875181546001600160a01b03191695169490941784558681015160018501558682015160028501556060870151600385015560808701516004909401939093555187815233927f390b1276974b9463e5d66ab10df69b6f3d7b930eb066a0e66df327edd2cc811c91016108fa565b60005460ff16156112e05760405162461bcd60e51b815260040161064d906118a4565b600280546001600160a01b03199081166110001790915560038054821661100117905560048054821661100217905560058054821661700117905560068054821661700217905560078054821661700317905560088054821661700417905560098054909116617005179055611354611587565b6000805460ff19166001179055565b61136b611679565b506001600160a01b0316600081815260646020908152604091829020825160a08101845260018201549281019290925260028101549282019290925260038201546060820152600490910154608082015290815290565b6000806113ce8361142b565b50905060008184604001516113e3919061184b565b9050806113fb5750670de0b6b3a76400009392505050565b806001828660200151670de0b6b3a7640000611417919061180a565b611421919061184b565b61044b919061188d565b600254815160405163295bdf5160e11b81526001600160a01b039182166004820152306024820152600092839283929116906352b7bea290604401602060405180830381865afa158015611483573d6000803e3d6000fd5b505050506040513d601f19601f820116820180604052508101906114a7919061194a565b90508360600151816114b9919061184b565b90508360800151816114cb919061188d565b90506402540be4006114dd8183611829565b6114e7919061180a565b9250600760009054906101000a90046001600160a01b03166001600160a01b031663eea9a01b6040518163ffffffff1660e01b8152600401602060405180830381865afa15801561153c573d6000803e3d6000fd5b505050506040513d601f19601f82011682018060405250810190611560919061194a565b83101561157257600094909350915050565b8261157d818361188d565b9250925050915091565b6001805461159490611963565b1515905061159e57565b600080306001600160a01b031660016040516115ba919061199e565b6000604051808303816000865af19150503d80600081146115f7576040519150601f19603f3d011682016040523d82523d6000602084013e6115fc565b606091505b5091509150811561160b575050565b80516116705760405162461bcd60e51b815260206004820152602e60248201527f496e6a6563746f723a20636f6e737472756374696f6e206661696c656420772f60448201526d103ab735b737bbb71032b93937b960911b606482015260840161064d565b80518082602001fd5b6040518060a0016040528060006001600160a01b03168152602001600081526020016000815260200160008152602001600081525090565b6001600160a01b03811681146116c657600080fd5b50565b600080604083850312156116dc57600080fd5b82356116e7816116b1565b915060208301356116f7816116b1565b809150509250929050565b60006020828403121561171457600080fd5b8135610cf8816116b1565b600080600080600080600080610100898b03121561173c57600080fd5b8835611747816116b1565b97506020890135611757816116b1565b96506040890135611767816116b1565b95506060890135611777816116b1565b94506080890135611787816116b1565b935060a0890135611797816116b1565b925060c08901356117a7816116b1565b915060e08901356117b7816116b1565b809150509295985092959890939650565b600080604083850312156117db57600080fd5b82356117e6816116b1565b946020939093013593505050565b634e487b7160e01b600052601160045260246000fd5b6000816000190483118215151615611824576118246117f4565b500290565b60008261184657634e487b7160e01b600052601260045260246000fd5b500490565b6000821982111561185e5761185e6117f4565b500190565b60006020828403121561187557600080fd5b815167ffffffffffffffff81168114610cf857600080fd5b60008282101561189f5761189f6117f4565b500390565b6020808252601d908201527f496e6a6563746f723a20616c726561647920696e697469616c697a6564000000604082015260600190565b6000602082840312156118ed57600080fd5b8151610cf8816116b1565b60006020828403121561190a57600080fd5b815163ffffffff81168114610cf857600080fd5b600067ffffffffffffffff808316818516808303821115611941576119416117f4565b01949350505050565b60006020828403121561195c57600080fd5b5051919050565b600181811c9082168061197757607f821691505b6020821081141561199857634e487b7160e01b600052602260045260246000fd5b50919050565b600080835481600182811c9150808316806119ba57607f831692505b60208084108214156119da57634e487b7160e01b86526022600452602486fd5b8180156119ee57600181146119ff57611a2c565b60ff19861689528489019650611a2c565b60008a81526020902060005b86811015611a245781548b820152908501908301611a0b565b505084890196505b50949897505050505050505056fea2646970667358221220c81329f771ddbe479d73aac6214d3c04fdc4640d2da23c593cc7488029c9e8b864736f6c634300080b0033",
  "immutableReferences": {},
  "source": "// SPDX-License-Identifier: GPL-3.0-only\r\npragma solidity ^0.8.0;\r\n\r\nimport \"./interfaces/IStaking.sol\";\r\nimport \"./interfaces/IStakingPool.sol\";\r\nimport \"./interfaces/IInjector.sol\";\r\n\r\nimport \"./Injector.sol\";\r\nimport \"./Staking.sol\";\r\n\r\ncontract StakingPool is InjectorContextHolder, IStakingPool {\r\n\r\n    /**\r\n     * This value must the same as in Staking smart contract\r\n     */\r\n    uint256 internal constant BALANCE_COMPACT_PRECISION = 1e10;\r\n\r\n    event Stake(address indexed validator, address indexed staker, uint256 amount);\r\n    event Unstake(address indexed validator, address indexed staker, uint256 amount);\r\n    event Claim(address indexed validator, address indexed staker, uint256 amount);\r\n\r\n    struct ValidatorPool {\r\n        address validatorAddress;\r\n        uint256 sharesSupply;\r\n        uint256 totalStakedAmount;\r\n        uint256 dustRewards;\r\n        uint256 pendingUnstake;\r\n    }\r\n\r\n    struct PendingUnstake {\r\n        uint256 amount;\r\n        uint256 shares;\r\n        uint64 epoch;\r\n    }\r\n\r\n    // validator pools (validator => pool)\r\n    mapping(address => ValidatorPool) internal _validatorPools;\r\n    // pending undelegates (validator => staker => pending unstake)\r\n    mapping(address => mapping(address => PendingUnstake)) _pendingUnstakes;\r\n    // allocated shares (validator => staker => shares)\r\n    mapping(address => mapping(address => uint256)) _stakerShares;\r\n\r\n    constructor(bytes memory constructorParams) InjectorContextHolder(constructorParams) {\r\n    }\r\n\r\n    function ctor() external whenNotInitialized {\r\n    }\r\n\r\n    function getStakedAmount(address validator, address staker) external view returns (uint256) {\r\n        ValidatorPool memory validatorPool = _getValidatorPool(validator);\r\n        return _stakerShares[validator][staker] * 1e18 / _calcRatio(validatorPool);\r\n    }\r\n\r\n    function getShares(address validator, address staker) external view returns (uint256) {\r\n        return _stakerShares[validator][staker];\r\n    }\r\n\r\n    function getValidatorPool(address validator) external view returns (ValidatorPool memory) {\r\n        ValidatorPool memory validatorPool = _getValidatorPool(validator);\r\n        (uint256 stakedAmount, uint256 dustRewards) = _calcUnclaimedDelegatorFee(validatorPool);\r\n        validatorPool.totalStakedAmount += stakedAmount;\r\n        validatorPool.dustRewards = dustRewards;\r\n        return validatorPool;\r\n    }\r\n\r\n    function getRatio(address validator) external view returns (uint256) {\r\n        ValidatorPool memory validatorPool = _getValidatorPool(validator);\r\n        return _calcRatio(validatorPool);\r\n    }\r\n\r\n    modifier advanceStakingRewards(address validator) {\r\n        {\r\n            ValidatorPool memory validatorPool = _getValidatorPool(validator);\r\n            // claim rewards from staking contract\r\n            (uint256 stakedAmount, uint256 dustRewards) = _calcUnclaimedDelegatorFee(validatorPool);\r\n            _stakingContract.claimDelegatorFee(validator);\r\n            // re-delegate just arrived rewards\r\n            if (stakedAmount > 0) {\r\n                _stakingContract.delegate{value : stakedAmount}(validator);\r\n            }\r\n            // increase total accumulated rewards\r\n            validatorPool.totalStakedAmount += stakedAmount;\r\n            validatorPool.dustRewards = dustRewards;\r\n            // save validator pool changes\r\n            _validatorPools[validator] = validatorPool;\r\n        }\r\n        _;\r\n    }\r\n\r\n    function _getValidatorPool(address validator) internal view returns (ValidatorPool memory) {\r\n        ValidatorPool memory validatorPool = _validatorPools[validator];\r\n        validatorPool.validatorAddress = validator;\r\n        return validatorPool;\r\n    }\r\n\r\n    function _calcUnclaimedDelegatorFee(ValidatorPool memory validatorPool) internal view returns (uint256 stakedAmount, uint256 dustRewards) {\r\n        uint256 unclaimedRewards = _stakingContract.getDelegatorFee(validatorPool.validatorAddress, address(this));\r\n        // adjust values based on total dust and pending unstakes\r\n        unclaimedRewards += validatorPool.dustRewards;\r\n        unclaimedRewards -= validatorPool.pendingUnstake;\r\n        // split balance into stake and dust\r\n        stakedAmount = (unclaimedRewards / BALANCE_COMPACT_PRECISION) * BALANCE_COMPACT_PRECISION;\r\n        if (stakedAmount < _chainConfigContract.getMinStakingAmount()) {\r\n            return (0, unclaimedRewards);\r\n        }\r\n        return (stakedAmount, unclaimedRewards - stakedAmount);\r\n    }\r\n\r\n    function _calcRatio(ValidatorPool memory validatorPool) internal view returns (uint256) {\r\n        (uint256 stakedAmount, /*uint256 dustRewards*/) = _calcUnclaimedDelegatorFee(validatorPool);\r\n        uint256 stakeWithRewards = validatorPool.totalStakedAmount + stakedAmount;\r\n        if (stakeWithRewards == 0) {\r\n            return 1e18;\r\n        }\r\n        return (validatorPool.sharesSupply * 1e18 + stakeWithRewards - 1) / stakeWithRewards;\r\n    }\r\n\r\n    function stake(address validator) external payable advanceStakingRewards(validator) override {\r\n        ValidatorPool memory validatorPool = _getValidatorPool(validator);\r\n        uint256 shares = msg.value * _calcRatio(validatorPool) / 1e18;\r\n        // increase total accumulated shares for the staker\r\n        _stakerShares[validator][msg.sender] += shares;\r\n        // increase staking params for ratio calculation\r\n        validatorPool.totalStakedAmount += msg.value;\r\n        validatorPool.sharesSupply += shares;\r\n        // save validator pool\r\n        _validatorPools[validator] = validatorPool;\r\n        // delegate these tokens to the staking contract\r\n        _stakingContract.delegate{value : msg.value}(validator);\r\n        // emit event\r\n        emit Stake(validator, msg.sender, msg.value);\r\n    }\r\n\r\n    function unstake(address validator, uint256 amount) external advanceStakingRewards(validator) override {\r\n        ValidatorPool memory validatorPool = _getValidatorPool(validator);\r\n        require(validatorPool.totalStakedAmount > 0, \"StakingPool: nothing to unstake\");\r\n        // make sure user doesn't have pending undelegates (we don't support it here)\r\n        require(_pendingUnstakes[validator][msg.sender].epoch == 0, \"StakingPool: undelegate pending\");\r\n        // calculate shares and make sure user have enough balance\r\n        uint256 shares = amount * _calcRatio(validatorPool) / 1e18;\r\n        require(shares <= _stakerShares[validator][msg.sender], \"StakingPool: not enough shares\");\r\n        // undelegate\r\n        _stakingContract.undelegate(validator, amount);\r\n        // save new undelegate\r\n        IChainConfig chainConfig = IInjector(address(_stakingContract)).getChainConfig();\r\n        _pendingUnstakes[validator][msg.sender] = PendingUnstake({\r\n        amount : amount,\r\n        shares : shares,\r\n        epoch : _stakingContract.nextEpoch() + chainConfig.getUndelegatePeriod()\r\n        });\r\n        validatorPool.pendingUnstake += amount;\r\n        _validatorPools[validator] = validatorPool;\r\n        // emit event\r\n        emit Unstake(validator, msg.sender, amount);\r\n    }\r\n\r\n    function claimableRewards(address validator, address staker) external view override returns (uint256) {\r\n        return _pendingUnstakes[validator][staker].amount;\r\n    }\r\n\r\n    function claim(address validator) external advanceStakingRewards(validator) override {\r\n        PendingUnstake memory pendingUnstake = _pendingUnstakes[validator][msg.sender];\r\n        uint256 amount = pendingUnstake.amount;\r\n        uint256 shares = pendingUnstake.shares;\r\n        // make sure user have pending unstake\r\n        require(pendingUnstake.epoch >= 0, \"StakingPool: nothing to claim\");\r\n        require(pendingUnstake.epoch <= _stakingContract.currentEpoch(), \"StakingPool: not ready\");\r\n        // updates shares and validator pool params\r\n        _stakerShares[validator][msg.sender] -= shares;\r\n        ValidatorPool memory validatorPool = _getValidatorPool(validator);\r\n        validatorPool.sharesSupply -= shares;\r\n        validatorPool.totalStakedAmount -= amount;\r\n        validatorPool.pendingUnstake -= amount;\r\n        _validatorPools[validator] = validatorPool;\r\n        // remove pending claim\r\n        delete _pendingUnstakes[validator][msg.sender];\r\n        // its safe to use call here (state is clear)\r\n        require(address(this).balance >= amount, \"StakingPool: not enough balance\");\r\n        payable(address(msg.sender)).transfer(amount);\r\n        // emit event\r\n        emit Claim(validator, msg.sender, amount);\r\n    }\r\n\r\n    receive() external payable {\r\n        require(address(msg.sender) == address(_stakingContract));\r\n    }\r\n}",
  "sourcePath": "D:\\code\\rust\\bas-genesis-config\\contracts\\StakingPool.sol",
  "compiler": {
    "name": "solc",
    "version": "0.8.11+commit.d7f03943.Emscripten.clang"
  },
  "schemaVersion": "3.4.4",
  "updatedAt": "2022-04-21T10:08:23.810Z",
  "devdoc": {
    "kind": "dev",
    "methods": {},
    "version": 1
  },
  "userdoc": {
    "kind": "user",
    "methods": {},
    "version": 1
  }
}