{
  "contractName": "SystemReward",
  "abi": [
    {
      "inputs": [
        {
          "internalType": "bytes",
          "name": "ctor",
          "type": "bytes"
        }
      ],
      "stateMutability": "nonpayable",
      "type": "constructor"
    },
    {
      "inputs": [],
      "name": "TREASURY_AUTO_CLAIM_THRESHOLD",
      "outputs": [
        {
          "internalType": "uint256",
          "name": "",
          "type": "uint256"
        }
      ],
      "stateMutability": "view",
      "type": "function"
    },
    {
      "inputs": [],
      "name": "getChainConfig",
      "outputs": [
        {
          "internalType": "contract IChainConfig",
          "name": "",
          "type": "address"
        }
      ],
      "stateMutability": "view",
      "type": "function"
    },
    {
      "inputs": [],
      "name": "getGovernance",
      "outputs": [
        {
          "internalType": "contract IGovernance",
          "name": "",
          "type": "address"
        }
      ],
      "stateMutability": "view",
      "type": "function"
    },
    {
      "inputs": [],
      "name": "getSlashingIndicator",
      "outputs": [
        {
          "internalType": "contract ISlashingIndicator",
          "name": "",
          "type": "address"
        }
      ],
      "stateMutability": "view",
      "type": "function"
    },
    {
      "inputs": [],
      "name": "getStaking",
      "outputs": [
        {
          "internalType": "contract IStaking",
          "name": "",
          "type": "address"
        }
      ],
      "stateMutability": "view",
      "type": "function"
    },
    {
      "inputs": [],
      "name": "getStakingPool",
      "outputs": [
        {
          "internalType": "contract IStakingPool",
          "name": "",
          "type": "address"
        }
      ],
      "stateMutability": "view",
      "type": "function"
    },
    {
      "inputs": [],
      "name": "getSystemReward",
      "outputs": [
        {
          "internalType": "contract ISystemReward",
          "name": "",
          "type": "address"
        }
      ],
      "stateMutability": "view",
      "type": "function"
    },
    {
      "inputs": [],
      "name": "init",
      "outputs": [],
      "stateMutability": "nonpayable",
      "type": "function"
    },
    {
      "inputs": [
        {
          "internalType": "contract IStaking",
          "name": "stakingContract",
          "type": "address"
        },
        {
          "internalType": "contract ISlashingIndicator",
          "name": "slashingIndicatorContract",
          "type": "address"
        },
        {
          "internalType": "contract ISystemReward",
          "name": "systemRewardContract",
          "type": "address"
        },
        {
          "internalType": "contract IStakingPool",
          "name": "stakingPoolContract",
          "type": "address"
        },
        {
          "internalType": "contract IGovernance",
          "name": "governanceContract",
          "type": "address"
        },
        {
          "internalType": "contract IChainConfig",
          "name": "chainConfigContract",
          "type": "address"
        },
        {
          "internalType": "contract IRuntimeUpgrade",
          "name": "runtimeUpgradeContract",
          "type": "address"
        },
        {
          "internalType": "contract IDeployerProxy",
          "name": "deployerProxyContract",
          "type": "address"
        }
      ],
      "name": "initManually",
      "outputs": [],
      "stateMutability": "nonpayable",
      "type": "function"
    },
    {
      "inputs": [],
      "name": "isInitialized",
      "outputs": [
        {
          "internalType": "bool",
          "name": "",
          "type": "bool"
        }
      ],
      "stateMutability": "view",
      "type": "function"
    },
    {
      "stateMutability": "payable",
      "type": "receive"
    },
    {
      "inputs": [
        {
          "internalType": "address",
          "name": "systemTreasury",
          "type": "address"
        }
      ],
      "name": "ctor",
      "outputs": [],
      "stateMutability": "nonpayable",
      "type": "function"
    },
    {
      "inputs": [],
      "name": "getSystemFee",
      "outputs": [
        {
          "internalType": "uint256",
          "name": "",
          "type": "uint256"
        }
      ],
      "stateMutability": "view",
      "type": "function"
    },
    {
      "inputs": [],
      "name": "claimSystemFee",
      "outputs": [],
      "stateMutability": "nonpayable",
      "type": "function"
    }
  ],
  "bytecode": "0x60806040523480156200001157600080fd5b5060405162000a1338038062000a13833981016040819052620000349162000110565b805181906200004b90600190602084019062000054565b50505062000229565b8280546200006290620001ec565b90600052602060002090601f016020900481019282620000865760008555620000d1565b82601f10620000a157805160ff1916838001178555620000d1565b82800160010185558215620000d1579182015b82811115620000d1578251825591602001919060010190620000b4565b50620000df929150620000e3565b5090565b5b80821115620000df5760008155600101620000e4565b634e487b7160e01b600052604160045260246000fd5b600060208083850312156200012457600080fd5b82516001600160401b03808211156200013c57600080fd5b818501915085601f8301126200015157600080fd5b815181811115620001665762000166620000fa565b604051601f8201601f19908116603f01168101908382118183101715620001915762000191620000fa565b816040528281528886848701011115620001aa57600080fd5b600093505b82841015620001ce5784840186015181850187015292850192620001af565b82841115620001e05760008684830101525b98975050505050505050565b600181811c908216806200020157607f821691505b602082108114156200022357634e487b7160e01b600052602260045260246000fd5b50919050565b6107da80620002396000396000f3fe6080604052600436106100c65760003560e01c8063459463341161007f5780637b1391a6116100595780637b1391a614610234578063929a55c0146102525780639ac51fab1461026f578063e1c7392a1461028457600080fd5b806345946334146101da578063606c0c94146101f85780637a37cc591461021657600080fd5b806316cbea511461010357806323056e9914610123578063244d825714610147578063289b3c0d14610179578063392e53cd146101975780633e1bbdc9146101ba57600080fd5b366100fe5734606560008282546100dd919061058b565b90915550506065546802b5e3af16b1880000116100fc576100fc610299565b005b600080fd5b34801561010f57600080fd5b506100fc61011e3660046105c9565b6102df565b34801561012f57600080fd5b506065545b6040519081526020015b60405180910390f35b34801561015357600080fd5b506003546001600160a01b03165b6040516001600160a01b03909116815260200161013e565b34801561018557600080fd5b506006546001600160a01b0316610161565b3480156101a357600080fd5b5060005460ff16604051901515815260200161013e565b3480156101c657600080fd5b506100fc6101d53660046105ed565b61032d565b3480156101e657600080fd5b506005546001600160a01b0316610161565b34801561020457600080fd5b506007546001600160a01b0316610161565b34801561022257600080fd5b506004546001600160a01b0316610161565b34801561024057600080fd5b506002546001600160a01b0316610161565b34801561025e57600080fd5b506101346802b5e3af16b188000081565b34801561027b57600080fd5b506100fc6103e9565b34801561029057600080fd5b506100fc6103f3565b6064546065546040516001600160a01b0390921691829180156108fc02916000818181858888f193505050501580156102d6573d6000803e3d6000fd5b50506000606555565b60005460ff161561030b5760405162461bcd60e51b815260040161030290610696565b60405180910390fd5b606480546001600160a01b0319166001600160a01b0392909216919091179055565b60005460ff16156103505760405162461bcd60e51b815260040161030290610696565b600280546001600160a01b03199081166001600160a01b038b8116919091179092556003805482168a8416179055600480548216898416179055600580548216888416179055600680548216878416179055600780548216868416179055600880548216858416179055600980549091169183169190911790556103d2610499565b50506000805460ff19166001179055505050505050565b6103f1610299565b565b60005460ff16156104165760405162461bcd60e51b815260040161030290610696565b600280546001600160a01b0319908116611000179091556003805482166110011790556004805482166110021790556005805482166170011790556006805482166170021790556007805482166170031790556008805482166170041790556009805490911661700517905561048a610499565b6000805460ff19166001179055565b600180546104a6906106cd565b151590506104b057565b600080306001600160a01b031660016040516104cc9190610708565b6000604051808303816000865af19150503d8060008114610509576040519150601f19603f3d011682016040523d82523d6000602084013e61050e565b606091505b5091509150811561051d575050565b80516105825760405162461bcd60e51b815260206004820152602e60248201527f496e6a6563746f723a20636f6e737472756374696f6e206661696c656420772f60448201526d103ab735b737bbb71032b93937b960911b6064820152608401610302565b80518082602001fd5b600082198211156105ac57634e487b7160e01b600052601160045260246000fd5b500190565b6001600160a01b03811681146105c657600080fd5b50565b6000602082840312156105db57600080fd5b81356105e6816105b1565b9392505050565b600080600080600080600080610100898b03121561060a57600080fd5b8835610615816105b1565b97506020890135610625816105b1565b96506040890135610635816105b1565b95506060890135610645816105b1565b94506080890135610655816105b1565b935060a0890135610665816105b1565b925060c0890135610675816105b1565b915060e0890135610685816105b1565b809150509295985092959890939650565b6020808252601d908201527f496e6a6563746f723a20616c726561647920696e697469616c697a6564000000604082015260600190565b600181811c908216806106e157607f821691505b6020821081141561070257634e487b7160e01b600052602260045260246000fd5b50919050565b600080835481600182811c91508083168061072457607f831692505b602080841082141561074457634e487b7160e01b86526022600452602486fd5b818015610758576001811461076957610796565b60ff19861689528489019650610796565b60008a81526020902060005b8681101561078e5781548b820152908501908301610775565b505084890196505b50949897505050505050505056fea2646970667358221220b6c7b5ff98341369e6240c8590ca70f0bbab5b8188467593ee10c2e37869a7f064736f6c634300080b0033",
  "immutableReferences": {},
  "source": "// SPDX-License-Identifier: GPL-3.0-only\r\npragma solidity ^0.8.0;\r\n\r\nimport \"./Injector.sol\";\r\n\r\ncontract SystemReward is ISystemReward, InjectorContextHolder {\r\n\r\n    /**\r\n     * Parlia has 100 ether limit for max fee, its better to enable auto claim\r\n     * for the system treasury otherwise it might cause lost of funds\r\n     */\r\n    uint256 public constant TREASURY_AUTO_CLAIM_THRESHOLD = 50 ether;\r\n\r\n    // total system fee that is available for claim for system needs\r\n    address internal _systemTreasury;\r\n    uint256 internal _systemFee;\r\n\r\n    constructor(bytes memory ctor) InjectorContextHolder(ctor) {\r\n    }\r\n\r\n    function ctor(address systemTreasury) external whenNotInitialized {\r\n        _systemTreasury = systemTreasury;\r\n    }\r\n\r\n    function getSystemFee() external view override returns (uint256) {\r\n        return _systemFee;\r\n    }\r\n\r\n    function claimSystemFee() external override {\r\n        _claimSystemFee();\r\n    }\r\n\r\n    receive() external payable {\r\n        // increase total system fee\r\n        _systemFee += msg.value;\r\n        // once max fee threshold is reached lets do force claim\r\n        if (_systemFee >= TREASURY_AUTO_CLAIM_THRESHOLD) {\r\n            _claimSystemFee();\r\n        }\r\n    }\r\n\r\n    function _claimSystemFee() internal {\r\n        address payable payableTreasury = payable(_systemTreasury);\r\n        payableTreasury.transfer(_systemFee);\r\n        _systemFee = 0;\r\n    }\r\n}",
  "sourcePath": "D:\\code\\rust\\bas-genesis-config\\contracts\\SystemReward.sol",
  "compiler": {
    "name": "solc",
    "version": "0.8.11+commit.d7f03943.Emscripten.clang"
  },
  "schemaVersion": "3.4.4",
  "updatedAt": "2022-04-21T10:08:23.824Z",
  "devdoc": {
    "kind": "dev",
    "methods": {},
    "version": 1
  },
  "userdoc": {
    "kind": "user",
    "methods": {
      "TREASURY_AUTO_CLAIM_THRESHOLD()": {
        "notice": "Parlia has 100 ether limit for max fee, its better to enable auto claim for the system treasury otherwise it might cause lost of funds"
      }
    },
    "version": 1
  }
}